:1000000000200020F90000002D270000F926000044
:10001000F9260000F9260000F9260000F926000064
:10002000F9260000F9260000F92600002D2700001F
:100030002D270000F92600002D270000E9260000EA
:100040002D2700002D2700002D2700002D27000060
:100050002D2700002D2700002D2700002D27000050
:100060002D2700002D2700002D2700002D27000040
:100070002D2700002D2700002D2700002D27000030
:10008000F92C00002D270000E53200002D2700008C
:10009000853700002D2700002D2700002D270000A8
:1000A0002D2700002D2700002D2700002D27000000
:1000B0002D2700002D2700002D2700002D270000F0
:1000C0002D2700002D2700002D270000DD1B00003C
:1000D0002D2700002D2700002D2700002D270000D0
:1000E0002D2700002D2700002D2700002D270000C0
:1000F0002D2700002D270000544B4CF2205210B544
:100100001A804DF628121A8000BF00BF02F012FBC1
:100110004F4B504A1A60504A5A60A3F53043283B6F
:100120001A6812F4807204D14C490A604FF4A85244
:100130001A604B4B1A78110703D51A7842F008025F
:100140001A70484B2A221A700023474A47499818C8
:10015000884204D24649595899500433F5E7454A34
:10016000454B9A424FF0000302D242F8043BF7E7B6
:100170004249434A595899500433F82BF8D1414B1E
:10018000802103F8011B40498B42F9D13F4B1A6093
:100190003F4B8A221A70A3F5805324225A70A02262
:1001A0001A709A799207FCD59A79D406FCD4394B07
:1001B0009A7902F00C02082AF9D103221A7140221E
:1001C0005A719A799006FCD5324B9A795106FBD533
:1001D000314A324911600221516020221A702D4BA0
:1001E0009B7903F00C030C2BF9D12D4B2D4A1A608F
:1001F0002D4B4BF67F321A6000225A60072243F8DB
:10020000042C2A4AC3F80C2D62B601F0D5FB134B1F
:100210001B68DA0705D5264801F02CFB254B264A3A
:100220001A60264B1B785B0609D5224C224A2368AC
:10023000934204D11E4801F01DFB0023236003F00C
:1002400015FD02F07DFA02F0DDF9FEE70E20054013
:1002500038800440823F04000100002B14D003408A
:1002600002D0074000E0074060E5FF1F5CE6FF1F8B
:10027000884000005CE6FF1FA0E9FF1F00000000AF
:1002800000E1FF1F00E400E02EE400E008ED00E0E4
:100290000050064000400640448004400000131116
:1002A00004800440C010050014E000E0000020209D
:1002B000ED92FA571CE00340A5C3945A00F00740A2
:1002C000FFFFFFFFFFFFFFFFFFFFFFFFFFFFFFFF3E
:1002D000FFFFFFFFFFFFFFFFFFFFFFFFFFFFFFFF2E
:1002E000FFFFFFFFFFFFFFFFFFFFFFFFFFFFFFFF1E
:1002F000FFFFFFFFFFFFFFFFFFFFFFFFFFFFFFFF0E
:10030000FFFFFFFFFFFFFFFFFFFFFFFFFFFFFFFFFD
:10031000FFFFFFFFFFFFFFFFFFFFFFFFFFFFFFFFED
:10032000FFFFFFFFFFFFFFFFFFFFFFFFFFFFFFFFDD
:10033000FFFFFFFFFFFFFFFFFFFFFFFFFFFFFFFFCD
:10034000FFFFFFFFFFFFFFFFFFFFFFFFFFFFFFFFBD
:10035000FFFFFFFFFFFFFFFFFFFFFFFFFFFFFFFFAD
:10036000FFFFFFFFFFFFFFFFFFFFFFFFFFFFFFFF9D
:10037000FFFFFFFFFFFFFFFFFFFFFFFFFFFFFFFF8D
:10038000FFFFFFFFFFFFFFFFFFFFFFFFFFFFFFFF7D
:10039000FFFFFFFFFFFFFFFFFFFFFFFFFFFFFFFF6D
:1003A000FFFFFFFFFFFFFFFFFFFFFFFFFFFFFFFF5D
:1003B000FFFFFFFFFFFFFFFFFFFFFFFFFFFFFFFF4D
:1003C000FFFFFFFFFFFFFFFFFFFFFFFFFFFFFFFF3D
:1003D000FFFFFFFFFFFFFFFFFFFFFFFFFFFFFFFF2D
:1003E000FFFFFFFFFFFFFFFFFFFFFFFFFFFFFFFF1D
:1003F000FFFFFFFFFFFFFFFFFFFFFFFFFFFFFFFF0D
:10040000FFFFFFFFFFFFFFFFFFFFFFFFDEF9FFFF23
:1004100010B5054C237833B9044B13B10448AFF33E
:1004200000800123237010BD5CE6FF1F0000000068
:100430008840000008B5064B1BB106480649AFF3DB
:1004400000800648036813B1054B03B1984708BD07
:10045000000000008840000060E6FF1F5CE6FF1F10
:100460000000000038B51648164904680B78E4040B
:1004700043F0040201D59A420FD10A700068C0040B
:1004800043F0050301D5934210D10B7001F01EF922
:100490000620BDE8384000F001BE0B4C4FF4A275B9
:1004A00025604FF40075C4F8F05FE6E7074A4FF4A3
:1004B000A27010604FF40070C2F8F00FE5E700BFC3
:1004C0003C800440CDE7FF1F14B0044018B0044046
:1004D000014800F0C1B900BF78E6FF1F642101F0B8
:1004E00029BF10B5642190B0044601F023FF002815
:1004F00002DC4FF0FF300EE06846642101F0DCFEC4
:100500000028F6DD20466946402203F0D5FB003086
:1005100018BF0120404210B010BD2DE9F043D0F8C3
:10052000023095B0044693FA83F84FF4FA7101F063
:10053000C3FE00283CDB04A8214603F0CCFB04A842
:1005400000F0CAFE10B104A800F003FF2046FFF738
:10055000C5FF04A84146002200F006FF40B36846EC
:1005600004A900F039FEDDF80090029DB9F1000FFA
:100570001ED000264645204618D24FF4FA7101F0ED
:100580009BFE002814DB019F05F14003BB4203D909
:10059000BD4209D27F1B00E0402705EB0900214640
:1005A0003A4600F0ABFB3D444036E3E7FFF796FFE9
:1005B00015B0BDE8F083F0B54FF4FA7195B004467C
:1005C00001F07AFE002834DB2046FFF787FF002881
:1005D0002FDB04A8214603F07EFB04A800F07CFE7C
:1005E00008B1012300E002232370684604A900F04B
:1005F000F3FD029D019F3BBAC4F801302046FFF78E
:1006000070FFB0B905F14003BB4203D9BD4210D21F
:100610007E1B00E04026009821462844324600F028
:1006200085FA35442EB12046FFF75BFF08B9002E4E
:10063000E8DC15B0F0BDFFFF70B5164B002292B09C
:1006400004461A8002A8402101AA00F071FFD8B127
:1006500001232370019B1BBAC4F801302046FFF729
:1006600040FFA8B902AD224612AE2B4603CBB342DF
:10067000106051601D4602F10802F6D12046FFF7D6
:1006800030FF0028DED003E020702046FFF729FF6E
:1006900012B070BDB8E6FF1F10B5642190B00446DB
:1006A00001F00AFE002812DB6846214603F013FB26
:1006B000684600F011FE28B1684600F04AFE0123AA
:1006C000237000E020702046642101F033FE10B05A
:1006D00010BD10B5044600F03BFC112380F0010072
:1006E0002070637020466421BDE8104001F022BEF6
:1006F00038B50546012305F8083B0446284600F0B6
:1007000065FB284600F0A8FC00BAC4F8010004F11B
:10071000100000F06DFC20466421BDE8384001F077
:1007200009BEFFFF012330B5037007231BBAC0F8D1
:100730000630224B1BBAC0F80A304FF400631BBAD4
:10074000C0F801301E4B1ABA02611E4A12BA426149
:100750001BBA83611C4B1BBAC3611C4B41221A702C
:100760001B4A0E2313701B4B8021197014461A78F4
:100770001506FCD51849194A0B7880F83A301378D9
:1007800080F83B30164B1D7880F83C500F252570C3
:10079000104C802525700F4C24782406FBD5097851
:1007A00080F83D10127880F83E201B7880F83F30AA
:1007B0006421BDE8304001F0BDBD00BF500DF85FC1
:1007C000006CDC0200D8B80500366E01070002405C
:1007D00006000240000002400A00024009000240F8
:1007E0000800024038B505464FF400631BBAC0F854
:1007F0000130FFF776FE68B90446284621464022BC
:1008000000F0A8FF2846FFF76CFE18B94034B4F595
:10081000006FF2D138BD38B504464FF400631BBAFF
:10082000C0F80130FFF75DFEA8B9054620464FF439
:10083000FA7101F041FD00280DDB294620464022D7
:10084000403500F0A9FFB5F5006FEFD12046BDE8B7
:100850003840FFF743BE38BD10B5044601F05EFDD9
:10086000002853D00021204601F026FD2046FFF746
:1008700035FE00284ADB62782378FD2A31D0FE2A33
:100880003DD0002A42D1032B1CD007D8012B0FD01A
:1008900013D82046BDE81040FFF73FBE092B16D005
:1008A000632B19D0042B31D1BDE8104000F0CABA37
:1008B0002046BDE81040FFF77EBE2046BDE8104050
:1008C000FFF7BABE2046BDE81040FFF7E5BE204660
:1008D000BDE81040FFF70CBF2046BDE81040FFF711
:1008E000F8BE13B1012B05D010BD2046BDE8104065
:1008F000FFF791BF2046BDE81040FFF773BF092BFB
:1009000004D12046BDE81040FFF70CBF10BDFFFF2B
:10091000002AF0B50CBF4FF064524FF06052002433
:100920000F4E104FA65B104D97FBF6F6B14255F8EF
:10093000145004D3190706D542F0806203E0023454
:100940002E2CEDD1F6E75B0707D525F4704305F4AF
:10095000704542F0007243EA15152A430260F0BD6B
:10096000F63C0000006CDC02243D000010B504469B
:10097000FFF7CEFF204610BD10B5134B1A78B2B169
:1009800072B61B78DA0707D5104A1149146809684E
:100990002140104C216011609B0707D50E4B0C4A7B
:1009A000196852680A400B494A601A6062B60B4BDC
:1009B000DA68824207D00A4A1A60D860094A40F0D1
:1009C000804018611A6010BDD4E6FF1F80E100E08E
:1009D000C4E6FF1FCCE6FF1F84E100E000C0024038
:1009E00001401F0000001F80054B4FF00042DA62FB
:1009F0005863DA6A002AFCDA014B986BC0B2704780
:100A000000C00240064B4FF0004240F08050DA62D6
:100A10005863DA6A002AFCDA014B986B80B270479F
:100A200000C00240F0B541B3144B02781C6844F496
:100A300080641C604FF00044DC625A630C4602463E
:100A4000013C0E4D05D05678EF6A0C4B002FFBDAB7
:100A500004E00139EB6A002BFCDA0BE09D6B1F68A8
:100A600047F480671F604FF00047DF625E6302F863
:100A7000015BE5E7014B9B6B4354F0BD00C00240B6
:100A8000074B1B785BB1DA0703D5064A1168064AA3
:100A900011609B0703D5034B5A68044B1A607047DB
:100AA000D4E6FF1FCCE6FF1F00E100E004E100E018
:100AB00073B500231949012201A8FFF757FF0198D8
:100AC000FFF75AFF164B1C68164B1B78012503F0E5
:100AD000020384F8005103F0FF068BB17020FFF78A
:100AE00083FF0020FFF780FF84F880500646FFF761
:100AF000C7FF3206DDD50C4B00221A7002B070BD64
:100B00000520FFF771FF3046FFF76EFF84F8805035
:100B10000646FFF7B5FFF307CBD4ECE780F0FA0207
:100B2000BCE6FF1FBAE6FF1FBBE6FF1F2DE9F04F33
:100B3000064685B008468946DFF8BCA10021174665
:100B400000F09AFD002369499AF80080012203A869
:100B5000FFF70CFF0398FFF70FFF654B1D789B46CF
:100B6000002D6BD0634B1C68012384F800319AF888
:100B7000003003F0020303F0FF0A4BB17020FFF7CF
:100B800033FF0020FFF730FF000609D5002507E0FE
:100B90000520FFF729FF5046FFF726FFC107F5D5CF
:100BA0004FF0010A84F880A015B98BF8005045E099
:100BB000022D35D884F800A10620FFF715FF84F830
:100BC00080A01023013B7FF4FDAF18F0040F04D088
:100BD000012D0CBF8520752000E075204FF0010B22
:100BE00084F800B1FFF700FF18F0020F84F880B01E
:100BF00084F800B108D07020FFF7F6FE0020FFF760
:100C0000F3FE0206FAD507E00520FFF7EDFE00200F
:100C1000FFF7EAFEC307FAD4012384F880300DE021
:100C2000FFF72EFFFFF744FF30495246002303A889
:100C3000FFF79CFE0398FFF79FFE002518F0080FB2
:100C40000AD0F319013B734013F07E4F04D026F015
:100C50007E43C3F1007A00E0BA46264B1C680122AD
:100C600018F0010F84F800211FFA86FB4FEA1642A4
:100C700006D003200192FFF7B7FE019A104602E06A
:100C8000D0B240F44070FFF7BDFE5846FFF7BAFE01
:100C900048465146FFF7C6FE4FF0010BB7EB0A0777
:100CA00084F880B0D1445644C8D1D5B184F800B19D
:100CB0000620FFF799FE84F880B01023013B7FF4F3
:100CC000FDAF18F0040F04D05D450CBF8A207A20D8
:100CD00000E07A20012584F80051FFF785FE84F8B2
:100CE0008050FFF7CDFE05B0BDE8F08F80F0FA022E
:100CF000BBE6FF1FBCE6FF1FBAE6FF1F2DE9F74F5B
:100D000004460F461546DFF8C0A09AF800300BB134
:100D1000FFF7CEFE29490122002301A8FFF726FE96
:100D20000198FFF729FE264B1E684FF001095FFA74
:100D300084F886F800910620C8F58078FFF754FE05
:100D4000A84528BFA84686F880901023013B7FF471
:100D5000FDAF1C4B86F800911B7813F0010F4FEA92
:100D6000144B1FFA84F904D00220FFF73DFE5846C9
:100D700003E05FFA8BF040F40070FFF743FE484653
:100D8000FFF740FE4444C8EB0505B94619F8010BCE
:100D9000FFF72AFEC9EB07034344002BF6D10123DA
:100DA00086F88030042347448AF80030FFF768FE55
:100DB000002DA8D103B0BDE8F08F00BF80F0FA028B
:100DC000BCE6FF1FBAE6FF1FBBE6FF1F37B51A4B95
:100DD0001B7804460BB1FFF76BFE18490122002374
:100DE00001A8FFF7C3FD0198FFF7C6FD144B1D686E
:100DF000012385F800319F20FFF7F6FD0020FFF763
:100E0000F3FD20700020FFF7EFFD60700020FFF77A
:100E1000EBFD2378A070012B07D10020FFF7E4FD44
:100E2000E0700020FFF7E0FD2071012385F880309D
:100E3000FFF726FE03B030BDBBE6FF1F80F0FA02CD
:100E4000BCE6FF1F2DE9FF473D4B1A7898460AB1D3
:100E5000FFF72EFE02A8FFF7B9FF9DF80830202B00
:100E600048D19DF80A30A3F12002022A42D8354C1D
:100E70002278212B4FEAA2170CBF042102215FFA2E
:100E800087F902F03F028945227056D2222B2E4963
:100E90004FF001024FF0000301A80CBF4FF0080A09
:100EA0004FF0020AFFF762FD0198FFF765FD274B3F
:100EB0001D68012685F800610620FFF795FD85F87D
:100EC00080601023013B7FF4FDAFC42085F80061F2
:100ED000FFF78AFD09FB0AF00002FFF793FD0020EF
:100EE000FFF790FD237885F88060374443EA871741
:100EF00027701FE014490122002301A8FFF736FDE7
:100F00000198FFF739FD114B1C68012584F8005149
:100F10000620FFF769FD84F880501023013B7FF421
:100F2000FDAFC72084F80051FFF75EFD84F88050C4
:100F3000FFF7A6FD032388F8003004B0BDE8F08772
:100F4000BBE6FF1FBAE6FF1F80F0FA02BCE6FF1FF8
:100F50002DE9F341224B1A781E460AB901203CE0E4
:100F600020490122002301A8FFF700FD0198FFF7A7
:100F700003FD1D491D4B0A781C68012502F0020281
:100F800084F8005102F0FF080F46BAB17020FFF755
:100F90002BFD0020FFF728FD84F880508046FFF7E6
:100FA0006FFD18F0800F17D03B78002413F0C00FAE
:100FB0003470D3D0FFF746FF20460EE00520FFF740
:100FC00013FD4046FFF710FD84F880508046FFF780
:100FD00057FD18F0010FE7D0002002B0BDE8F08106
:100FE000BBE6FF1F80F0FA02BAE6FF1FBCE6FF1F58
:100FF00073B5164B1B7806460BB1FFF759FD144924
:101000000122002301A8FFF7B1FC0198FFF7B4FC0F
:10101000104B1D68012385F800314B20FFF7E4FCDD
:101020000020FFF7EFFC0020FFF7ECFC002400207D
:10103000FFF7DAFC30550134082CF8D1012385F88C
:101040008030FFF71DFD02B070BD00BFBBE6FF1F83
:1010500080F0FA02BCE6FF1F8378A3F110020F2A8A
:1010600004D9A3F12002052A03D8063B01209840A9
:10107000704702781AB9427862B9002B05E0FF2A5E
:1010800008D14278FF2A05D1FF2B0CBF00204FF476
:10109000801070474FF480107047FFFF7FB5344BCE
:1010A000344D53F830302B60334B012406461C700E
:1010B00000F09CFA2146304600F00CFC2B6802A898
:1010C00083F88040FFF782FE02A8FFF7C5FFB0F16A
:1010D000807F32D929492246002301A8FFF746FC28
:1010E0000198FFF749FC9DF80860A64209D12C68D9
:1010F0004FF4BC5084F80061FFF784FC84F88060F2
:1011000012E02D68062085F80041FFF76DFC85F898
:1011100080401023013B7FF4FDAFB72085F80041EC
:10112000FFF762FC85F88040FFF7AAFC9DF80830C5
:10113000202B0CBF0923012300E000239DF8082089
:10114000012A05D19DF80C203AB943F0140306E0BA
:10115000202A04D143F0020301E043F00403084ACB
:1011600002A81370FFF732FE012004B070BD00BF6B
:10117000903D0000BCE6FF1FC0E6FF1F80F0FA02B2
:10118000BAE6FF1F13B5082200206946FFF7CEFC20
:101190000F4C009BA34217D0013301D0002014E074
:1011A0000C4B00940020694608220193FFF7A6FD2E
:1011B000FFF7CEFE0028FBD0002069460822FFF78B
:1011C000B5FC009BA342E9D1019802B010BD00BF5D
:1011D0004C5596FA5802F6182DE9F04F002391B0BD
:1011E000036004468A46FFF7CDFF00286BD0384BDA
:1011F00087B20AF1FF3212F8015F1DB15D40354B35
:101200006B43F8E74FF6FE72B3FBF2F102FB1133CA
:1012100001339BB2039307EB47030293BD4252D2C3
:10122000C5EB0708B8F1080F28BF4FF00808281DC4
:101230000DF1200B400059464FEA4802FFF776FCBB
:10124000002646453DD03BF81630039A934232D1F2
:10125000002306EB05090793381D09EB89031844A1
:101260000A22400005A9FFF761FC079B029A02339E
:1012700013449B00D446184610220CA90193CDF8C4
:1012800000C0FFF753FC019BDDF800C010330022C3
:101290000CA91CF8010B515C814210D119B101322B
:1012A000102AF5D1E7E7059B2360069B6360A160E8
:1012B000A4F80C9007E04FF6FF72934203D001367A
:1012C000BFE73544AAE7204611B0BDE8F08F00BF64
:1012D000C59D1C81930100011FB501466846FFF7BB
:1012E0007BFF0098003018BF012005B05DF804FBBB
:1012F000036837B504460BB9002527E08089043020
:1013000040000DF106010222FFF710FCA089BDF894
:1013100006300430DB4340000DF106010222ADF837
:101320000630FFF7EBFCFFF713FE05460028FAD066
:10133000A089043040000DF106010222FFF7F6FB00
:10134000BDF80630002BD7D123606360284603B078
:1013500030BD1FB501466846FFF73EFF6846FFF700
:10136000C7FF05B05DF804FB2DE9F04F8DB0824654
:1013700089461646FFF7B0FF044608B10020CDE0CD
:10138000FFF700FF83460028F8D085B204F1080378
:10139000AB428CBFC4EB05070827201D0DF12008C8
:1013A000400041467A00FFF7C1FB0023BB420BD04F
:1013B00038F813104FF6FF72914203D11C44AC422F
:1013C00006D3DBE70133F1E71C44AC42DED3D5E7BB
:1013D0000C236B43039303F1080734B94FEA1B4B0B
:1013E0004FEA0B4B07EB9B3B3BE005F10042013A18
:1013F00004EB84015018002305A90A22400007933A
:101400000193FFF793FB059A0699019B01EB020BF1
:10141000079A07EB820C6746414610223846019333
:10142000CDF808C0FFF782FB019BDDF808C003F18F
:1014300010011A460DF1200EC3EB0E0E501C12F8CF
:101440000EE0BEF1000F05D10CF1040C354F6244E3
:10145000174006E0884201D00246EBE710370B4602
:10146000DAE76EB1731E09F1FF399B44B144BBFB4F
:10147000F6FBB9FBF6F906FB0BFB06FB09F903E0EB
:101480000BF1FF0B2BF0FF0B504602F02CFC064635
:101490004046FFF79BFC0BEB090340460193FFF727
:1014A000DBFD019B83423FF669AF38465146721C13
:1014B000FFF724FC039ACDF814B06FF007039B1AD2
:1014C0003B449B080793043504EB8403E818400071
:1014D00005A90A22CDF81890FFF710FCFFF738FD98
:1014E0000028FBD0104B0AF1FF3111F8012F1AB17F
:1014F00053400E4A5343F8E74FF6FE72B3FBF2F146
:1015000002FB1133201D0133400005A9022205937F
:10151000FFF7F4FBFFF71CFD0028FBD00DB0BDE882
:10152000F08F00BFFCFF0300C59D1C8193010001EB
:101530002DE9F047002388B0037006460D4691461A
:10154000FFF720FE08B900204AE0274B1C8804F171
:10155000040887B24FEA48089A46BC42F3D2404694
:1015600002220DF10601FFF7E1FABDF8062008F1AD
:101570000208631C0AB91C46EFE7B81D04EB84049B
:101580002044AAF8003006220023400002A9039359
:10159000FFF7CCFA029B5A1CD5D0C9F80030039B48
:1015A00007EB470702331F44BF00B5B1102D34BF0E
:1015B0002C4610240DF11008384641462246FFF70C
:1015C000B5FA002318F8032006F8012B3AB10133CD
:1015D000A342F7D32D1B2744E7E706F8015C01205F
:1015E00008B0BDE8F08700BFB8E6FF1F164B1A68C9
:1015F00042F480521A60154B154A1A60154ADA6097
:1016000002F180421A61144A1A60144B1B78DA07FF
:1016100055BF134A134A4FF410714FF4007113F081
:10162000020F11600CBF104910495B074FF40072A4
:1016300054BF0F4B0F4B0A6054BF4FF410724FF45E
:1016400000721A60704700BF3C80044000C0024036
:1016500001401F000110003800001F80CDE7FF1F70
:1016600018B0044008C004401CB004400CC0044042
:1016700014B0044004C0044001B5EAB1102A17DBDD
:1016800000F0070333B1C3F10803D21A013B00F89D
:10169000011BFBDCC9B241EA012141EA01418C4650
:1016A000D308013BE0E8021CFBDC12F0070203D088
:1016B000013A00F8011BFBDC01BD00BF024B1B78A7
:1016C000DB07FBD5704700BF010002407FB51C4B14
:1016D0006A4603F110056E4618685968144603C43B
:1016E0000833AB422246F7D1164B1A7812F0020F9C
:1016F0001D461CD0144A154B117811F0700118BF0B
:10170000117080221A70002203F8032C33221A7100
:101710000322DA7072B60C4C46F001062046B04740
:1017200062B6237813F0700301D0237005E0084BF4
:101730002A78D20701D4013BFAD104B070BD00BFB2
:10174000803D00000100024000000240070002400E
:10175000410D030070B50F4B1B78DB0705460C46A7
:1017600001EB020601D4FFF7B1FFB6F5006F34BFFD
:1017700032464FF4006204F1A05303F16C419142F0
:1017800007D2291B194401F16C4118780870013304
:10179000F3E770BD01000240B1F5006FF8B50546F2
:1017A0000F4614460E465FD2304B1B78DB0701D440
:1017B000FFF78CFFB4F5006F28BF4FF400643B19AE
:1017C000B3F5006F24D3C7F5006421E016F00301E0
:1017D0002A7806F1A0531ED1032C1ED9A978687867
:1017E000090441EA00210A43E97842EA01621968E2
:1017F000914205F1040708D01D49087810F07000E7
:1018000018BF08701A60FFF759FF0436043C3D46C4
:10181000002CDBD128E0022915D1012C13D06978E6
:1018200042EA01221988914205F1020708D01049C5
:10183000087810F0700018BF08701A80FFF73EFF9C
:101840000236023CE3E71978914205F1010508D020
:101850000749087810F0700018BF08701A70FFF779
:101860002DFF0136013CD3E7F8BD00BF0100024067
:1018700000000240044B054900221A600A60044A35
:10188000106010221A60704714D0034004D0034047
:1018900000D00340212810B518D80D4A52F8303036
:1018A00093F880423CB1012211B183F8802010BD31
:1018B00083F8002110BD02EBC00043681A6811B123
:1018C00042F0030201E022F002021A6010BD00BFE4
:1018D000903D0000212810B537D81C4A02EBC00308
:1018E00001295B68144601D004290FD154F8302037
:1018F000012082F880024FF4A2721A601A6804294B
:101900000CBF42F0200222F020021DE052F83020ED
:10191000002082F8800211B18A1E012A12D84FF4E9
:10192000807202291A6003D11A6842F003020BE0A8
:1019300003290AD11A6842F002021A601A6822F0DA
:10194000010201E040F203121A6010BD903D000058
:1019500072B60B4B0B491A680B4B1B68096862B6D1
:10196000490102D5322A88BF0133C2F53B423021FA
:101970007F32B2FBF1F24FF47A7000FB0320704724
:1019800018E000E004ED00E0D8E6FF1F38B504469B
:10199000FFF7DEFF054624B938BD013C0AD005F546
:1019A0007A75FFF7D5FF401BB0F57A7FF5D200F0CE
:1019B00031FEF6E738BDFFFF1C4B4FF4807210B5C7
:1019C0001A604FF400721A604FF480621A604FF48C
:1019D00000621A604FF480521A60154B154A164C7B
:1019E00000204BF6FF711860596028231360936044
:1019F00013619361136293621363936309222260FC
:101A000004F58054043420600C4801600C490B60DC
:101A10008B600C4B1A6000F01DFE4FF4C870FFF78E
:101A2000B5FFBDE8104000F0C9BB00BF04E100E015
:101A3000048003400C800340008003400890034072
:101A40000C90034000900340F0B50C4B0C4C1A78FE
:101A500042F0020504EBC50682F0010270600948FD
:101A60001A700678002E0CBF8827C82786F001065A
:101A700047EA0141067044F83510F0BD44E7FF1F06
:101A800000E0FF1FBCE7FF1F431E032B10B510D85B
:101A900072B6094A52F8230048B1416842F823104F
:101AA000064A018832F81340611A22F8131062B610
:101AB00010BD002010BD00BF34E7FF1F98E9FF1FD5
:101AC000013803280AD872B6054B53F8203000209D
:101AD00013B101305B68FBE762B6704700207047C6
:101AE00088E7FF1F10B572B60123174A1A4412F88F
:101AF000012C12071CD59900144A52F831402CB918
:101B000002EB431308305860114B09E041F001012A
:101B100052F8314064B902EBC103083058600D4BF4
:101B200042F831300C4B1A78013A1A7062B610BD87
:101B30000133052BD9D162B6074B00221A70BDE8DC
:101B4000104000F097BB00BFA03E000000E0FF1F68
:101B500088004000C8004000B2E7FF1F431E032B6F
:101B600030B532D8194A400140F01000104472B626
:101B7000174CE25C032A09D8DFE802F016021805C8
:101B80000830022213E00830042210E01148124A03
:101B900050F8234014B940F8231002E052F8230013
:101BA000416042F823100FE0032200E00522E254D6
:101BB00010F0080F01F108030A8843600CBF882366
:101BC000C82343EA0243036062B630BD00E0FF1F52
:101BD000F0E6FF1F88E7FF1F98E7FF1F2DE9F84F8A
:101BE000A74F3C78E4B214F0040F3D4619D0A54B42
:101BF0001B78A3B1A44A117801F0FF0321B1013B86
:101C0000DBB2137003B900BEA04A117801F0FF03E4
:101C100029B1013BDBB213700BB900F0D7FC0423F0
:101C20003B7004F0080303F0FF02002B00F05C821D
:101C3000974B984C1A78D2B215094FEA920840F0A7
:101C4000D98154F8382004EBC803C2F38302013A67
:101C50005B680C2A00F2CB81DFE812F08501850178
:101C6000C901C901C901C901C901C901A501C90148
:101C7000C901C9010D00884D1A685B6887486B600F
:101C8000874B44F8383001232A60DFF84082037024
:101C900092B240F2816000218242C8F800102161B6
:101CA000A16117D8B2F5D06F80F01681B2F5817FAF
:101CB00000F0C78006D8802A00F0B280822A00F0A7
:101CC000B38021E140F202339A4200F0C980B2F5BC
:101CD000A06F14E0B2F5106F14D008D8B2F5086FF9
:101CE00040F01281674A6F4C1278227014E140F67E
:101CF00021139A4200F0348140F621239A4200F0E9
:101D0000078101E15F4B634EAA781A7006F18009E2
:101D1000336A1B0603D5706A083800F0ABFA083640
:101D20004E45F5D10026B146DFF8A4A156F80A00C9
:101D300028B1D0F804B000F09DFA5846F8E74AF808
:101D40000600594BDFF88CA1F05056F80A0028B174
:101D5000D0F804B000F08EFA5846F8E7534B4AF832
:101D60000600F050524B23F81900524B19F803208B
:101D7000023A032A08D8DFE802F002040204002233
:101D800000E0012203F8092009F10109B9F1040F6B
:101D900006F10406C8D1484B00221A7001269A4663
:101DA000464A474B3244334412F8012C9B0012F050
:101DB000080F1A704FEA860925D000F03DFA38B1B5
:101DC00004EB4613083058603E4B44F8393006E0C7
:101DD0009AF8003044F8390001338AF8003000F0F6
:101DE0002BFA49F0010338B104EBC302083050600C
:101DF0002B4A44F8332006E044F833009AF80030C8
:101E000001338AF8003049F00202013649F0030933
:101E10000023052E44F8323044F83930C0D178E040
:101E2000204C2170617076E0AA88042A6CD81D4C81
:101E3000217061709100244A525C96076BD5237023
:101E400069E0AA8802F07F02042A5DDC6B88002B1F
:101E50005AD191001C4A0A44117821F002010DE088
:101E6000AA8802F07F02042A4EDC6B88002B4BD13B
:101E70009100154A0A44117841F00201117048E0BE
:101E800080200740BBE7FF1F45E7FF1FCCE7FF1F90
:101E90009020074000E0FF1FA8E7FF1FBCE7FF1FDF
:101EA000C8004000B3E7FF1FE0E6FF1F98E7FF1FF1
:101EB00098E9FF1FF0E6FF1FB2E7FF1FA03E0000FA
:101EC00030C8011088004000C0200740DCE6FF1F3A
:101ED00034E7FF1F88E7FF1F6A88A9889E4B53F8E5
:101EE000084CA3F10C007CB133F80C6C964209D17C
:101EF00033F80A6C8E4205D1120A032A0CBF2378EC
:101F0000038909E00C33EAE7944B0F221A7027E0AB
:101F100000231C4600E00223EE88B34238BF1E4671
:101F2000402E34BF3546402520462946FFF78CFD1C
:101F3000761B2C4403D1402D12D1354603E0402EB0
:101F400034BF3546402520462946FFF77DFD761BE8
:101F50002C4401D1402D03D1814AC8F8004016809D
:101F60000122804B42E0804A80481168814216D1AC
:101F700051687F4A914212D11A78A92A0FD15A7812
:101F8000452A0CD19A78C22A09D1DB786B2B06D16D
:101F9000784B0020052201461A70FFF755FD764B5D
:101FA00044F8383023E0754E3568B5B1DFF8B081BC
:101FB000B8F80090B9F1400F34BF4C464024284691
:101FC0002146FFF741FDC4EB09039BB2A8F800309E
:101FD0000BB9402C00D12B193360634B1A88B2F532
:101FE000A06F04D100225A709A78654B1A700122B2
:101FF0005C4B6CE004EBC806013D736802F008021C
:10200000A3F10800EDB202F0FF01002A36D000F083
:1020100031F95C485C4B50F82520EAB1516840F832
:10202000251002F108017160595D03290BD8DFE822
:1020300001F002040608032104E0022102E0052168
:1020400000E00421595516F0080F12880CBF8823B0
:10205000C82343EA024342E05A5D032A07D8DFE877
:1020600002F040400204002206E0012204E016F0E3
:10207000080F0CBF022203225A5532E054F83820D0
:10208000120C23F8082C22B3DFF82CE123F8061CED
:1020900043F8041C5EF825303C4913B94EF825007E
:1020A00002E051F825305860394B41F8250033F8EB
:1020B00015100A4423F8152000F0BEF810B10830BE
:1020C000706006E0334B44F838001A7801321A7019
:1020D00007E0294B304A16F0080F08BF134644F8B2
:1020E000383008233B707BE5E0071FD51D492A489F
:1020F0002A4C02230B702A4B1A702A4B18609860E6
:102100002948D8601A619A615C60144B0D201870E0
:102110002648FF2303702B700274254A1370254B49
:102120009F221A7001230B70BDE8F88F210604D599
:102130000A4B0D221A7080232B70A20705D51B4B6A
:102140001A78D2B21A7002232B70E30644BF102310
:102150002B70BDE8F88F00BFB03E0000C0200740E4
:10216000B0E7FF1F94200740A8E7FF1F21090003E5
:102170000100040045E7FF1FC8004000DCE6FF1F28
:102180009820074088E7FF1FF0E6FF1FE0E6FF1FEB
:1021900098E9FF1FB2E7FF1F88004000F4E6FF1F29
:1021A00044E7FF1F00E0FF1F48E7FF1F88200740AC
:1021B0008C2007408420074034E7FF1F08B501F05A
:1021C00049FB0022184B0021D15098180832882A68
:1021D0004160F7D1154A106840F48020106002F584
:1021E00028326832C3F307201070C3F307401B0E78
:1021F00010751376FF2302F81C3C02F8143C02F819
:102200008C3C012302F8083C82F8641002F8183C68
:10221000074B70221A70A3F21F3308221A60054B75
:1022200010221A7008BD00BF00E0FF1F3480044078
:1022300023E400E00821074072B60C4A1168B1FAA5
:1022400081F30B2B02D962B6002070474FF000409B
:10225000D84021EA0001116062B605494822534383
:10226000C8180022CA504260704700BF60E5FF1FD7
:1022700000E2FF1F0C4B4822C31AB3FBF2F30B2BF7
:1022800011D80A4A127822B1094A12780AB1FFF726
:1022900029BC72B6074A4FF0004121FA03F31168D6
:1022A0001943116062B6704700E2FF1FB2E7FF1FDB
:1022B000BBE7FF1F60E5FF1FF7B5164B1A680092DA
:1022C000009E05460C461F46134B1B78E3B10420C5
:1022D000FFF7DAFB48B93B680193019B9B1BA342C4
:1022E00016D8A4B100F096F9EEE700F108032A46EB
:1022F00000F1480153F8044B42F8044B8B42F9D1EA
:10230000FFF7B8FF402003E04FF0FF3000E0204629
:1023100003B0F0BDD8E6FF1FBBE7FF1F034B1B78E0
:1023200003F0FF000BB1024BD8887047BBE7FF1FDB
:1023300098E9FF1FF7B51B4B1A680092009D0446F1
:102340000E461F46184B1B782BB30320FFF7B8FB34
:10235000032808D93B680193019B5B1BB3421DD83E
:1023600000F058F9EEE7FFF767FF03460028F1D0C9
:10237000204603F1080204F1400150F8044B42F8F2
:10238000044B8842F9D1402403201C801946FFF7F2
:10239000E5FB204603E04FF0FF3000E0002003B0F3
:1023A000F0BD00BFD8E6FF1FBBE7FF1F38B5124BDB
:1023B0001B78EBB1114C23681BB90220FFF764FBBB
:1023C000206020680D4D98B14388C218147A5CB122
:1023D00002880133934204D3FFF74CFF00232B60A4
:1023E00000E04380204638BDFFF744FF2C60DEE765
:1023F0004FF0FF3038BD00BFBBE7FF1FC8E7FF1F2E
:1024000010B50D4B1B788BB10C4C23681BB9022007
:10241000FFF73AFB2060206840B1438803441C7AF0
:102420003CB9FFF727FF054B1C60EAE74FF0FF3090
:1024300010BD204610BD00BFBBE7FF1FC8E7FF1F50
:1024400038B5104D2B6823B12868002402884388D2
:102450000FE00D4B1B781BB10220FFF715FB286026
:102460002C68002CF0D10BE0C1182144097A19B175
:102470000134E1189142F7DB14B9FFF7FBFE2C6041
:10248000204638BDC8E7FF1FBBE7FF1F2DE9F84313
:10249000324D012307460C462B70002C5AD0304E8B
:1024A0003368B1465BBB43F229282E4B1B7803F0FF
:1024B000FF020BB92A7018E00120FFF701FB052885
:1024C00004D9B8F10108284A09D10AE001232B7088
:1024D000FFF7B2FEC9F800000028F2D00FE0137831
:1024E0003BB10123137000232B704FF0FF30BDE888
:1024F000F8832B7000F08EF801232B70D5E731683C
:10250000194A488800231370C0F14002944238BF32
:10251000224600F1080C10448C444880A41A9342CF
:1025200004D0F85C0CF803000133F8E71F444B8833
:102530003F2B0E4B02D805221A70AEE740220A80CC
:102540004FF00008012083F80080FFF707FBC6F872
:102550000080A2E72C702046BDE8F883BDE7FF1F8E
:10256000C0E7FF1FBBE7FF1FC4E7FF1FCCE7FF1F4C
:1025700007B502AB012103F8010D1846FFF786FFEE
:1025800003B05DF804FBFFFF10B50D4B1B78B3B132
:102590000C4B19681C4691B14B8883B10A4A002044
:1025A00010703F2B04DCCA18002010720133F8E7CA
:1025B00040230B800120FFF7D1FA0023236010BDD8
:1025C000BBE7FF1FC0E7FF1FCCE7FF1F10B50B4B9A
:1025D0001B788BB90A4A11684B8814463F2B04DCE0
:1025E000CA18002010720133F8E740230B80012045
:1025F000FFF7B4FA0023236010BD00BFBDE7FF1F43
:10260000C0E7FF1F08B5FDF72DFFFDF761FF00F0E4
:1026100001F8FAE710B50E4C2378BBB901232370FB
:10262000FFF70EFF08B101F0F4FA00F0EFFA08B17D
:1026300001F0C1F900F0F2FD08B101F044FA01F037
:102640003DF808B101F0C7FA0023237010BD00BFA8
:10265000CEE7FF1F1B4B60221A70E1225A701A4B03
:102660001A4A19781A4B082901D1012102E00A29D6
:1026700003D139211160132205E00C290CBF35214B
:102680003D21116012221A60124B1A78124B02B1CE
:1026900001221A60114B1A78114B012A01D88022AD
:1026A0000BE0042A01D8842207E0082A01D88522F9
:1026B00003E0102A94BF862287221A60094B012268
:1026C0001A7070470040074064E5FF1F08B00340E0
:1026D0000CB00340D0E7FF1F20B0034065E5FF1FAB
:1026E00024B00340CFE7FF1F024B1A6801321A6083
:1026F000704700BFD8E6FF1F08B50B4C236858038E
:1027000001D5FFF76BFA2368590501D500F0F4FAFB
:1027100023681A0501D500F0E5FD2368DB04ECD53C
:1027200001F030F8E9E700BF3480044008B5FFF756
:10273000E3FFFFFF014B10221A8070470020054085
:102740007047FFFFEFF313839BB9EFF3108098B945
:10275000EFF3058323B10F2B04D9084A985C01E0FD
:102760004FF48070EFF311833BB1834238BF1846BA
:1027700070474FF0FF30704718467047F0E300E0B5
:10278000234B1A6842F480621A60224A00231370B5
:10279000214A1370214A1370214A1370214A137081
:1027A000214B1B782BB1152B07D140F213321F4B55
:1027B00002E01F4B40F213321A601E4B1B78012BB4
:1027C00005D0052B07D14FF451721B4B02E01B4B78
:1027D0004FF451721A601A4BC0F344321A70C0F3AE
:1027E00047125A7000F01F000422022198729A705A
:1027F000D9745A7588221A743C22DA70114B40221F
:102800001A70A3F544734FF480321A60704700BF0A
:10281000348004405BE8FF1FD9E7FF1F64E8FF1F17
:102820005CE8FF1FD8E7FF1F1AE8FF1F18C004402D
:1028300040A0044066E5FF1F1CC0044044A00440C3
:1028400000A0064010E400E0134A937800F0030172
:1028500003F0EC030B43410748BF43F010039370B0
:1028600000F00F03042B0C4903D18B7943F0400394
:102870008B715379C20603F0EF03074A48BF43F058
:10288000100353719379810603F0EF0348BF43F0BF
:1028900010039371704700BF00A0064008B5114BAC
:1028A0001B685B0500D408BD0F4B1A7802F0FF03CC
:1028B00012B1FFF7AFFEF7E70C4A4FF48031116019
:1028C0000B4A0C49D37040F203120A604A600A4A6C
:1028D00013700A4A13700A4B1B680BB101221A705D
:1028E00008BD00BF34800440D8E7FF1F80E100E04E
:1028F00000A0064040A004405BE8FF1FD9E7FF1F8F
:10290000D4E7FF1F38B50446094B1B7803F0FF05D9
:10291000002BF9D120460121FEF7DCFF2046294695
:10292000FEF7B8FF034B53F83420034B1A6038BD51
:10293000D8E7FF1F903D000060E8FF1F10B509B108
:1029400040F08000144A13789842144622D0134A6B
:10295000126852051DD503F07F03012B04D0052B0F
:1029600005D100220E4B01E00E4B00221A60002917
:1029700000F07F020CBF44236023012A05D0052A02
:1029800007D143F44073064A02E0064A43F4407319
:102990001360207010BD00BF66E5FF1F3480044047
:1029A0001CC0044044A004400E4A1378984218D03A
:1029B0000D490968490513D52BB1152B05D10B4BD2
:1029C0000021196001E00A490B6028B1152807D1E0
:1029D00040F21331054B02E0054B40F21331196010
:1029E000107070471AE8FF1F3480044018C004407C
:1029F00040A004400D4A38B5146814F480624FF0CA
:102A0000000410D021280A4D0AD80A4A012152F8A0
:102A100030302B60FEF75EFF2B681C70012038BD44
:102A20002C60204638BD104638BD00BF34800440BD
:102A3000D4E7FF1F903D00000E4B1B6813F480632A
:102A400016D012280C4B03D140F202310B4A04E09D
:102A5000142809D10A4A40F2023111605A7B42F02F
:102A600001025A73012070475A7B02F0FE025A732A
:102A7000002070473480044000A006400CA00440B1
:102A800014C00440F8B51D4B1B685A05064633D5E3
:102A90001B4B1B680BB101221A701A4B1C780134B6
:102AA000402C1F4628BF0024174D2B78A34218D175
:102AB000FFF748FE40280FDC144A13791B06F3D5B4
:102AC0002B7813490133402B28BF0023C95CDBB2AC
:102AD000C9B2D1712B70E7E7FF28E5DDFFF79AFD5A
:102AE000E2E70B4BF6B21E550A4B01221A70074B58
:102AF000E4B2BC223C70DA70F8BD00BF3480044000
:102B000060E8FF1F64E8FF1F5CE8FF1F00A00640AD
:102B1000DAE7FF1FD8E7FF1F274B1B685A052DE98F
:102B2000F04707468A4644D5244B1B680BB1012267
:102B30001A703D4607EB0A039D4237D2DFF89080BA
:102B40001F4E98F8004096F800900134402C28BFA2
:102B500000245FFA89F9A1451DD11A4BBC22DA7015
:102B6000FFF7F0FD40280FDC164A13791B060FD53E
:102B7000337815490133402B28BF0023C95CDBB2F1
:102B8000C9B2D171337003E0FF2801DDFFF742FDC8
:102B900033784B45E4D00C4B15F8012B1A550B4BF1
:102BA0000122E4B21A7088F80040C3E7054BBC224A
:102BB000DA70BDE8F08700BF3480044060E8FF1F92
:102BC0005CE8FF1F00A00640DAE7FF1FD8E7FF1F01
:102BD00064E8FF1F08B5034B1B7813B1FFF71AFD1C
:102BE000F9E708BDD8E7FF1F064A074B1B781078A6
:102BF000DBB2C0B283422CBF3F3000F1FF30C01ABD
:102C0000704700BF5CE8FF1F64E8FF1F054B1878A2
:102C1000054B1B78C0B2DBB2984238BF4030C01AB7
:102C2000704700BF5BE8FF1FD9E7FF1F10B5104BCF
:102C300010491A780B78D2B2DBB29A4214D0013321
:102C4000402B28BF00230C48DCB2C05C0C700B4941
:102C50000968C0B251B19A4238BF4032D31A1A2B18
:102C600004DC00230B7010BD4FF0FF3010BD00BF1F
:102C70005BE8FF1FD9E7FF1F1BE8FF1FD4E7FF1F1B
:102C8000084B1A78084B1B78DBB29A4207D0013305
:102C9000402B28BF0023054AD05CC0B270474FF0DC
:102CA000FF3070475BE8FF1FD9E7FF1F1BE8FF1FDE
:102CB0000C4B1B685B0514D50B4BDA7802F0CB028A
:102CC000DA7040225A74DA7842F03402DA70074B34
:102CD0001A78074BD2B21A70064B1B680BB1002250
:102CE0001A7070473480044000A00640D9E7FF1FE7
:102CF0005BE8FF1FD4E7FF1F30B5374B1A7912F09E
:102D0000300F31D072B69A7D02F0FF0022B9DA7925
:102D100040225A7462B627E062B6304A30491378CE
:102D20000978DBB2C9B214462B4AD5795A1C402A1D
:102D300028BF00228A42EDB202D02A4B9D5413468E
:102D4000421E12F0FF00EFD1DAB22270264A12685A
:102D500052B18B4236BFC1F14001C1EB03035B1896
:102D6000272BC4BF012313701B4BD978C9B20C06A3
:102D700020D51B7918061DD51C4B1D4A1D781378CC
:102D8000EDB2DBB21046AB420CD0134A0133402BFC
:102D90001479184C28BF0023E45CE4B2D471127D8E
:102DA000072AF0D9DBB203700B4B1A79120644BF25
:102DB0007C22DA704B060ED5074B1A7912F0400FC1
:102DC000194608D00C4B00221A700C4B1B6803B13B
:102DD0001A703C23CB7030BD00A006405BE8FF1F9B
:102DE000D9E7FF1F1BE8FF1FD4E7FF1F64E8FF1FA1
:102DF0005CE8FF1FDAE7FF1FD8E7FF1F60E8FF1F4F
:102E0000214B1A6842F400621A60204A00231370B2
:102E10001F4A13701F4A13701F4A13701F4A137002
:102E20001F4B1B78092B05D01A2B07D140F2133208
:102E30001C4B02E01C4B40F213321A601B4B1B78F8
:102E40000A2B05D01F2B07D14FF45172184B02E00B
:102E5000184B4FF451721A60174BC0F344321A707A
:102E6000C0F347125A7000F01F00002298729A7047
:102E70001A742C22DA70114B40221A70A3F212330A
:102E80004FF480221A60704734800440D6E8FF1F58
:102E90006DE8FF1FDCE8FF1FD7E8FF1F6CE8FF1F8E
:102EA00067E5FF1F04D004400CB0044068E5FF1F35
:102EB00000D0044010B0044000B0064012E400E02E
:102EC000134A937800F0030103F0EC030B4341072E
:102ED00048BF43F01003937000F00F03042B0C491C
:102EE00003D18B7943F040038B715379C20603F011
:102EF000EF03074A48BF43F01003537193798106EB
:102F000003F0EF0348BF43F010039371704700BF15
:102F100000B0064008B51E4B1B681B0500D408BD59
:102F20001C4B1B7803F0FF0213B1FFF773FBF7E7AD
:102F3000194B4FF480211960184BDA70184B1B782D
:102F4000092B05D01A2B07D140F20312154B02E0D2
:102F5000154B40F203121A60144B1B7803F07F03E9
:102F60000A2B05D01F2B07D140F20312104B02E0B1
:102F7000104B40F203121A600F4A002313700F4ADD
:102F800013700F4B1B680BB101221A7008BD00BFF4
:102F9000348004406CE8FF1F80E100E000B0064090
:102FA00067E5FF1F04D004400CB0044068E5FF1F34
:102FB00000D0044010B00440D6E8FF1F6DE8FF1FAA
:102FC00068E8FF1F38B50446094B1B7803F0FF057E
:102FD000002BF9D120460121FEF77CFC2046294632
:102FE000FEF758FC034B53F83420034B1A6038BDEE
:102FF0006CE8FF1F903D0000D8E8FF1F10B509B135
:1030000040F08000144A13789842144622D0134AA4
:10301000126812051DD503F07F030A2B04D01F2B65
:1030200005D100220E4B01E00E4B00221A60002950
:1030300000F07F020CBF442360230A2A05D01F2A18
:1030400007D143F44073064A02E0064A43F4407352
:103050001360207010BD00BF68E5FF1F348004407E
:1030600000D0044010B004400F4A137898421AD0A0
:103070000E490968090515D5092B04D01A2B05D16D
:1030800000210B4B01E00B4B00211960092805D0F2
:103090001A2807D140F21331054B02E0054B40F2EC
:1030A000133119601070704767E5FF1F34800440CA
:1030B00004D004400CB004400D4A38B5146814F430
:1030C00000624FF0000410D021280A4D0AD80A4AA5
:1030D000012152F830302B60FEF7FCFB2B681C708E
:1030E000012038BD2C60204638BD104638BD00BFD9
:1030F0003480044068E8FF1F903D00000B4B1B68C4
:1031000013F4006310D01728094B09D1094A40F283
:10311000023111605A7B42F001025A73012070475C
:103120005A7B02F0FE025A7300207047348004403C
:1031300000B0064008B00440F8B51D4B1B681A05E6
:10314000064633D51B4B1B680BB101221A701A4B74
:103150001C780134282C1F4628BF0024174D2B78DB
:10316000A34218D1FFF7EEFA40280FDC144A137976
:103170001B06F3D52B7813490133282B28BF0023D6
:10318000C95CDBB2C9B2D1712B70E7E7FF28E5DD7E
:10319000FFF740FAE2E70B4BF6B21E550A4B01224D
:1031A0001A70074BE4B2AC223C70DA70F8BD00BF75
:1031B00034800440D8E8FF1FDCE8FF1FD7E8FF1F7A
:1031C00000B006406EE8FF1F6CE8FF1F38B50446EC
:1031D0004518AC4204D014F8010BFFF7ADFFF8E737
:1031E00038BDFFFF08B5034B1B7813B1FFF712FA88
:1031F000F9E708BD6CE8FF1F064A074B1B781078FB
:10320000DBB2C0B283422CBF273000F1FF30C01ABE
:10321000704700BFD7E8FF1FDCE8FF1F054B187899
:10322000054B1B78C0B2DBB2984238BF4030C01AA1
:10323000704700BFD6E8FF1F6DE8FF1F10B5104BA9
:1032400010491A780B78D2B2DBB29A4214D001330B
:10325000402B28BF00230C48DCB2C05C0C700B492B
:103260000968C0B251B19A4238BF4032D31A1A2B02
:1032700004DC00230B7010BD4FF0FF3010BD00BF09
:10328000D6E8FF1F6DE8FF1F96E8FF1F68E8FF1FE5
:10329000084B1A78084B1B78DBB29A4207D00133EF
:1032A000402B28BF0023054AD05CC0B270474FF0C6
:1032B000FF307047D6E8FF1F6DE8FF1F96E8FF1F3D
:1032C000054B1A78054BD2B21A70054B1B680BB12F
:1032D00000221A70704700BF6DE8FF1FD6E8FF1F7D
:1032E00068E8FF1F10B5214B1A7992060FD5204AC6
:1032F000D87913781F490133402B097828BF002360
:103300008B42C0B203D01C49C854DBB21370174AB9
:10331000D178C9B20C0616D51379180613D5174BF8
:1033200017481C780378DBB29C4202D16C23D3701F
:1033300009E00133282B28BF0023124CE45CDBB2E8
:10334000E4B2D47103704B060ED5084B1A7912F013
:10335000400F194608D00C4B00221A700B4B1B680B
:1033600003B11A702C23CB7010BD00BF00B0064013
:10337000D6E8FF1F6DE8FF1F96E8FF1FDCE8FF1F80
:10338000D7E8FF1F6EE8FF1F6CE8FF1FD8E8FF1F9C
:10339000164B1A6842F480521A60154A00231370C3
:1033A000144A1370144A1370144A1370144A137099
:1033B000144A40F2133111604FF451715160124AB6
:1033C000C0F344311170C0F3471100F01F00517079
:1033D0009072937013742C23D3700C4B40221A708C
:1033E000A3F545734FF480121A607047348004408F
:1033F0004EE9FF1FE5E8FF1F54E9FF1F4FE9FF1FDC
:10340000E4E8FF1F08C0044000C0064014E400E0E8
:10341000134A937800F0030103F0EC030B434107D8
:1034200048BF43F01003937000F00F03042B0C49C6
:1034300003D18B7943F040038B715379C20603F0BB
:10344000EF03074A48BF43F0100353719379810695
:1034500003F0EF0348BF43F010039371704700BFC0
:1034600000C0064008B5114B1B68DB0400D408BD42
:103470000F4B1A7802F0FF0312B1FFF7CBF8F7E712
:103480000C4A4FF4801111600B4A0C49D37040F282
:1034900003120A604A600A4A13700A4A13700A4B00
:1034A0001B680BB101221A7008BD00BF34800440B4
:1034B000E4E8FF1F80E100E000C0064008C00440CF
:1034C0004EE9FF1FE5E8FF1FE0E8FF1F38B504469F
:1034D000094B1B7803F0FF05002BF9D12046012191
:1034E000FEF7F8F920462946FEF7D4F9034B53F8C6
:1034F0003420034B1A6038BDE4E8FF1F903D000004
:1035000050E9FF1F10B509B140F080000E4A137852
:10351000984217D00D4C2468E40412D503F07F03C1
:10352000082B02D10A4B00241C60002900F07F0305
:103530000CBF44216021082B03D1054B41F440719D
:103540001960107010BD00BF69E5FF1F3480044092
:103550000CC004407047FFFF0D4A38B5146814F4DE
:1035600080524FF0000410D021280A4D0AD80A4A90
:10357000012152F830302B60FEF7ACF92B681C703B
:10358000012038BD2C60204638BD104638BD00BF34
:1035900034800440E0E8FF1F903D00000B4B1B68A7
:1035A00013F4805310D00E28094B09D1094A40F278
:1035B000023111605A7B42F001025A7301207047B8
:1035C0005A7B02F0FE025A73002070473480044098
:1035D00000C0064004C00440F8B51D4B1B68DA0467
:1035E000064633D51B4B1B680BB101221A701A4BD0
:1035F0001C780134282C1F4628BF0024174D2B7837
:10360000A34218D1FFF79EF840280FDC144A137923
:103610001B06F3D52B7813490133282B28BF002331
:10362000C95CDBB2C9B2D1712B70E7E7FF28E5DDD9
:10363000FEF7F0FFE2E70B4BF6B21E550A4B0122F4
:103640001A70074BE4B2AC223C70DA70F8BD00BFD0
:103650003480044050E9FF1F54E9FF1F4FE9FF1F6A
:1036600000C00640E6E8FF1FE4E8FF1F38B5044647
:103670004518AC4204D014F8010BFFF7ADFFF8E792
:1036800038BDFFFF08B5034B1B7813B1FEF7C2FF2F
:10369000F9E708BDE4E8FF1F064A074B1B781078DE
:1036A000DBB2C0B283422CBF273000F1FF30C01A1A
:1036B000704700BF4FE9FF1F54E9FF1F054B187803
:1036C000054B1B78C0B2DBB2984238BF4030C01AFD
:1036D000704700BF4EE9FF1FE5E8FF1F10B5104B14
:1036E00010491A780B78D2B2DBB29A4214D0013367
:1036F000402B28BF00230C48DCB2C05C0C700B4987
:103700000968C0B251B19A4238BF4032D31A1A2B5D
:1037100004DC00230B7010BD4FF0FF3010BD00BF64
:103720004EE9FF1FE5E8FF1F0EE9FF1FE0E8FF1F5E
:10373000084B1A78084B1B78DBB29A4207D001334A
:10374000402B28BF0023054AD05CC0B270474FF021
:10375000FF3070474EE9FF1FE5E8FF1F0EE9FF1F2E
:10376000054B1A78054BD2B21A70054B1B680BB18A
:1037700000221A70704700BFE5E8FF1F4EE9FF1FE7
:10378000E0E8FF1F10B5294B1A79920620D5284A88
:10379000D879137827490133402B097828BF0023B3
:1037A0008B42C0B203D02449C854D9B21170234A05
:1037B000116869B1224A1278D2B2934236BFC2F17F
:1037C0004002C2EB03039B18272BC4BF01230B70DD
:1037D000164AD178C9B20C0616D51379180613D536
:1037E000184B17481C780378DBB29C4202D16C233B
:1037F000D37009E00133282B28BF0023124CE45C6E
:10380000DBB2E4B2D47103704B060ED5074B1A79C4
:1038100012F0400F194608D00C4B00221A700C4BC6
:103820001B6803B11A702C23CB7010BD00C006407A
:103830004EE9FF1FE5E8FF1F0EE9FF1FE0E8FF1F4D
:103840004FE9FF1F54E9FF1FE6E8FF1FE4E8FF1FF1
:1038500050E9FF1F1FB572B6154B70221A70154A3A
:10386000412111700F2102F8011C80221A701A7870
:103870001206FCD5104B186862B6104B984298BFE0
:103880000A2301AC98BF584321460A2200F0D0F920
:103890000023E15C0A4A29B102EB430001330A2B01
:1038A0004180F6D101335B00137004B010BD00BF3E
:1038B0000000024007000240080002407F96980086
:1038C00044E6FF1F08B50368C9B21B68984708BDE6
:1038D00008B50368C9B21B68984708BD08B50368F6
:1038E000C9B21B68984708BD08B50368C9B21B6810
:1038F000984708BD4B0803F1B76000F55840B0FB8E
:10390000F1F0FEF73DBF10B54B0803F1B76000F5CD
:1039100058401446B0FBF1F0FEF732FF2046BDE8F8
:103920001040FEF791BFFEF7B9BF0846FEF7EABFA9
:103930000846FFF739B808461146FEF7FFBF08B53D
:103940000846FFF757F8003018BF012008BD08B53A
:103950000846FFF771F8003018BF012008BDFFF7D7
:1039600055B9FFF78DB9FFF761B9FFF733B9FFF725
:103970009FB9FFF739B908B50846FFF783F801206A
:1039800008BD08B50846FFF77DF8012008BD10B551
:10399000084614461146FFF7BFF8204610BD38B55B
:1039A00008460D4600F09FF9044621462846FFF7D9
:1039B000B3F8204638BD7047044B00221A714FF40B
:1039C0007A711A73024A99601A60704758E9FF1FAA
:1039D000303F000008B50368C9B21B68984708BDAE
:1039E00008B50368C9B21B68984708BD08B50368E5
:1039F000C9B21B68984708BD08B50368C9B21B68FF
:103A0000984708BD4B0803F1B76000F55840B0FB7C
:103A1000F1F0FFF7F5B910B54B0803F1B76000F509
:103A200058401446B0FBF1F0FFF7EAF92046BDE834
:103A30001040FFF745BAFFF76DBA0846FFF7C2BA64
:103A40000846FFF711BB08461146FFF7D7BA08B57D
:103A50000846FFF731FB003018BF012008BD08B54C
:103A60000846FFF74BFB003018BF012008BDFFF7E9
:103A7000D5BBFFF70DBCFFF7E1BBFFF7B3BBFFF70B
:103A80001FBCFFF7B9BB08B50846FFF755FB01207F
:103A900008BD08B50846FFF74FFB012008BD10B56B
:103AA000084614461146FFF791FB204610BD38B575
:103AB00008460D4600F017F9044621462846FFF750
:103AC00085FB204638BD7047044B00221A714FF425
:103AD0007A711A73024A99601A60704768E9FF1F89
:103AE000903F000008B50368C9B21B68984708BD3D
:103AF00008B50368C9B21B68984708BD08B50368D4
:103B0000C9B21B68984708BD08B50368C9B21B68ED
:103B1000984708BD4B0803F1B76000F55840B0FB6B
:103B2000F1F0FFF735BC10B54B0803F1B76000F5B5
:103B300058401446B0FBF1F0FFF72AFC2046BDE8E0
:103B40001040FFF765BCFFF78DBC0846FFF7BEBC11
:103B50000846FFF7FFBC08461146FFF7D3BC08B57F
:103B60000846FFF7F9FC003018BF012008BD08B572
:103B70000846FFF713FD003018BF012008BDFFF70E
:103B80009DBDFFF7D5BDFFF7A9BDFFF77BBDFFF7D3
:103B9000E7BDFFF781BD08B50846FFF71DFD012011
:103BA00008BD08B50846FFF717FD012008BD10B590
:103BB000084614461146FFF759FD204610BD38B59A
:103BC00008460D4600F08FF8044621462846FFF7C8
:103BD0004DFD204638BD7047044B00221A714FF44A
:103BE0007A711A73024A99601A60704778E9FF1F68
:103BF000F03F0000FEF724BCFEF7D8BBFEF700BC88
:103C0000FEF7C2BC0846FEF7B3BC08461146FEF7F5
:103C10003DBC7047044B00221A714FF47A711A733D
:103C2000024A99601A60704788E9FF1F50400000FF
:103C300010B50023B0FBF2F402FB1400092894BF76
:103C400030303730C0B2C85420460CB10133F1E7F0
:103C5000CA18547022469A4206DA885CCC5C8C54AE
:103C6000C8540132013BF6E7084610BD70B50E4B53
:103C70000E4DED1AAD1000241E46AC4204D056F88D
:103C8000242090470134F8E700F0EEF9084D094B85
:103C9000ED1AAD1000241E46AC4204D056F8242084
:103CA00090470134F8E770BD744000007440000094
:103CB000884000007440000030B50023934208D0D3
:103CC000C55C0133CC1814F8014CA542F6D0281B72
:103CD00030BD002030BD034611F8012B03F8012B45
:103CE000002AF9D17047034613F8012B002AFBD1B3
:103CF000181A01387047020003000400050006008E
:103D000008000A000C001000140018002000280011
:103D10003800400060008000C00000018001000207
:103D2000800200030000008000000180000000000D
:103D300000000280000001000110000000000200ED
:103D40000110010003200000010002000320010017
:103D5000043000000320020003200300054000009F
:103D600005400100065000000650010007600000F9
:103D70000760010008700000076002000870010081
:103D80006FF07F030370037813F0800FFBD0704750
:103D90004008FE4340A004404408FE4344A00440C1
:103DA0000018FE4300C004403000FE433090044041
:103DB0003400FE43349004401C18FE431CC00440F1
:103DC0001018FE4310C004400818FE4308C0044009
:103DD0000C18FE430CC004400C10FE430CB0044011
:103DE0001010FE4310B004401810FE4318B00440F9
:103DF0001C10FE431CB004401410FE4314B00440D9
:103E00000418FE4304C004400010FE4300B0044008
:103E10000008FE4300A004400408FE4304A0044040
:103E20000C08FE430CA004400808FE4308A0044010
:103E30001418FE4314C004401818FE4318C0044070
:103E40000410FE4304B004400810FE4308B00440D0
:103E50001400FE43149004404C08FE434CA0044060
:103E60000420FE4304D004402410FE4324B0044048
:103E70002010FE4320B004402810FE4328B0044028
:103E80002C10FE432CB004400020FE4300D0044020
:103E90004808FE4348A004401000FE431090044030
:103EA00015191519000100006AE5FF1F1200000036
:103EB0000002000094E5FF1F4900000000220100FD
:103EC000DDE5FF1F2100000000210100C6E5FF1F06
:103ED0000900000000220000FEE5FF1F1C0000009A
:103EE00000210000A6E5FF1F0900000000030000FC
:103EF00040E6FF1F00000000010309047CE5FF1FEE
:103F000000000000020309041AE6FF1F0000000081
:103F10000303090444E6FF1F000000000000000046
:103F20000000000000000000000000000000000091
:103F3000773900008F3900005F39000067390000D1
:103F4000633900006B390000F538000007390000C4
:103F5000273900002B3900003139000037390000C3
:103F60003F3900004F3900006F39000073390000FD
:103F7000C5380000D1380000DD380000E938000005
:103F80009F3900008339000000000000000000009D
:103F9000873A00009F3A00006F3A0000773A00002D
:103FA000733A00007B3A0000053A0000173A00001F
:103FB000373A00003B3A0000413A0000473A00001F
:103FC0004F3A00005F3A00007F3A0000833A000059
:103FD000D5390000E1390000ED390000F939000061
:103FE000AF3A0000933A000000000000000000001B
:103FF000973B0000AF3B00007F3B0000873B000089
:10400000833B00008B3B0000153B0000273B00007A
:10401000473B00004B3B0000513B0000573B00007A
:104020005F3B00006F3B00008F3B0000933B0000B4
:10403000E53A0000F13A0000FD3A0000093B0000BB
:10404000BF3B0000A33B0000000000000000000098
:10405000053C00000B3C0000F53B0000F93B000074
:10406000FD3B0000013C0000F8B500BFF8BC08BCF7
:104070009E46704735040000B9390000C93A000077
:08408000D93B0000153C0000D3
:10408800FFFFFFFF0A0401090A08120101010000ED
:104098000040C01686040002010203011803540000
:1040A800650065006E0073007900640075006900A2
:1040B8006E006F0009024900020100C032090400C5
:1040C800000203000000092111010001221C000761
:1040D80005830340000107050403400001090401AA
:1040E800000203000000092111010001222100073C
:1040F8000581034000010705020320000206C9FFED
:104108000904A15C7508150026FF00954009758112
:104118000295200976910295040976B102C006AB92
:10412800FF0A0002A1017508150026FF0095400945
:10413800018102954009029102C0260354006500DE
:1041480065006E00730079006400750069006E00F8
:104158006F002000520061007700480049004400C9
:10416800040309040C030000000000000000000024
:0C4178000000000000000000000000003B
:00000001FF
