:1000000000800020BD01000035270000012700000E
:100010000127000001270000012700000127000040
:1000200001270000012700000127000035270000FC
:10003000352700000127000035270000F1260000C9
:100040003527000035270000352700003527000040
:100050003527000035270000352700003527000030
:100060003527000035270000352700003527000020
:100070003527000035270000352700003527000010
:100080003527000035270000352700003527000000
:1000900035270000352700003527000035270000F0
:1000A00035270000352700003527000035270000E0
:1000B00035270000352700003527000035270000D0
:1000C00035270000352700003527000035270000C0
:1000D00035270000352700003527000035270000B0
:1000E00035270000352700003527000035270000A0
:1000F00035270000012D000035270000BD3300002A
:1001000035270000BD3800003527000035270000E6
:10011000352700003527000035270000352700006F
:10012000352700003527000035270000352700005F
:10013000352700003527000035270000352700004F
:10014000352700003527000035270000352700003F
:10015000352700003527000035270000352700002F
:1001600035270000BD1B00003527000035270000A3
:10017000352700003527000035270000352700000F
:1001800035270000352700003527000035270000FF
:1001900035270000352700003527000035270000EF
:1001A00035270000352700003527000035270000DF
:1001B000352700003527000035270000564B4CF24C
:1001C000205210B51A804DF628121A8000BF00BFC9
:1001D00002F0B4FA514B4FF010621A60504A9A6024
:1001E000504ADA60A3F53043203B1A6812F480725B
:1001F00004D14D490A604FF4A8521A604B4B1A784B
:10020000110703D51A7842F008021A70484B2A22C7
:100210001A700023474A48499818884204D247492F
:10022000595899500433F5E7454A464B9A424FF0E6
:10023000000302D242F8043BF7E74349434A5958C6
:1002400099500433B3F5DE7FF7D1414B802103F899
:10025000011B40498B42F9D13F4B1A603F4B8A2228
:100260001A70A3F5805324225A70A0221A709A792A
:100270009207FCD59A79D406FCD4394B9A7902F0CE
:100280000C02082AF9D105221A7143225A719A796F
:100290009006FCD5324B9A795106FBD5314A4FF086
:1002A000817111600521516020221A702C4B9B79BD
:1002B00003F00C030C2BF9D12B4B2C4A1A602C4B5E
:1002C0002C4A1A6000225A60072243F8042C2A4A5A
:1002D000C3F80C2D62B601F057FB134B1B68DA070D
:1002E00005D5264801F0ACFA254B264A1A60264B64
:1002F0001B785B0609D5224C224A2368934204D11D
:100300001E4801F09DFA0023236003F051FD02F026
:100310001BFA02F069F9FEE70E2005403080044028
:10032000823F04000100002B14D0034002D007409C
:1003300000E007406087FF1F5C88FF1FD04100007E
:100340005C88FF1FA88BFF1F000000000082FF1FBA
:1003500000E400E05FE400E008ED00E0005006404B
:10036000004006404480044004800440C010050062
:1003700014E000E03F19010000002020DC92FA5751
:100380001CE00340A5C3945A00F00740FFFFFFFFA5
:10039000FFFFFFFFFFFFFFFFFFFFFFFFFFFFFFFF6D
:1003A000FFFFFFFFFFFFFFFFFFFFFFFFFFFFFFFF5D
:1003B000FFFFFFFFFFFFFFFFFFFFFFFFFFFFFFFF4D
:1003C000FFFFFFFFFFFFFFFFFFFFFFFFFFFFFFFF3D
:1003D000FFFFFFFFFFFFFFFFFFFFFFFFFFFFFFFF2D
:1003E000FFFFFFFFFFFFFFFFFFFFFFFFFFFFFFFF1D
:1003F000FFFFFFFFFFFFFFFFFFFFFFFFFFFFFFFF0D
:10040000FFFFFFFFFFFFFFFFFFFFFFFFDEF9FFFF23
:1004100010B5054C237833B9044B13B10448AFF33E
:1004200000800123237010BD5C88FF1F00000000C6
:10043000D041000008B5064B1BB106480649AFF392
:1004400000800648036813B1054B03B1984708BD07
:1004500000000000D04100006088FF1F5C88FF1F83
:100460000000000008B501F017F90620BDE80840BB
:1004700000F026BC014801F089B800BF9D88FF1F2D
:10048000164B1A6842F480521A60154B154A1A60CE
:10049000154ADA6002F180421A61144A1A60144B5C
:1004A0001B78DA0755BF134A134A4FF410714FF403
:1004B000007113F0020F11600CBF104910495B0767
:1004C0004FF4007254BF0F4B0F4B0A6054BF4FF4F0
:1004D00010724FF400721A60704700BF3C800440F5
:1004E00000C0024001401F000110003800001F80C2
:1004F000D589FF1F18B0044008C004401CB0044058
:100500000CC0044014B0044004C00440002AF0B5FC
:100510000CBF4FF064524FF0605200240F4E104F4A
:10052000A65B104D97FBF6F6B14255F8145004D374
:10053000190706D542F0806203E002342E2CEDD17B
:10054000F6E75B0707D525F4704305F4704542F0E4
:10055000007243EA15152A430260F0BD3A3E0000DE
:1005600000512502683E000010B50446FFF7CEFF9B
:10057000204610BD10B5184B1A7802B372B61B781E
:10058000D90707D5154A1649146809682140154C42
:10059000216011609A0707D5134A11491468496808
:1005A0002140104C616011605B0707D50F4B0C4A6E
:1005B000196892680A400B498A601A6062B60C4B4F
:1005C000DA68824207D00B4A1A60D8600A4A40F0C3
:1005D000804018611A6010BD9088FF1F80E100E024
:1005E0007888FF1F8488FF1F84E100E088E100E035
:1005F00000C0024001401F0000001F80054B4FF06B
:100600000042DA625863DA6A002AFCDA014B986B1E
:10061000C0B2704700C00240064B4FF0004240F0AD
:100620008050DA625863DA6A002AFCDA014B986B70
:1006300080B2704700C00240F0B541B3144B02785D
:100640001C6844F480641C604FF00044DC625A6310
:100650000C460246013C0E4D05D05678EF6A0C4B15
:10066000002FFBDA04E00139EB6A002BFCDA0BE027
:100670009D6B1F6847F480671F604FF00047DF6283
:100680005E6302F8015BE5E7014B9B6B4354F0BDF1
:1006900000C002400A4B1B788BB1D90703D5094A29
:1006A0001168094A11609A0703D5064A5168074A3A
:1006B00011605B0703D5034B9A68054B1A607047BE
:1006C0009088FF1F8488FF1F00E100E004E100E044
:1006D00008E100E073B500231949012201A8FFF7E2
:1006E00043FF0198FFF746FF164B1C68164B1B781B
:1006F000012503F0020384F8005103F0FF068BB1DB
:100700007020FFF77BFF0020FFF778FF84F8805010
:100710000646FFF7BFFF3206DDD50C4B00221A70EC
:1007200002B070BD0520FFF769FF3046FFF766FF96
:1007300084F880500646FFF7ADFFF307CBD4ECE713
:1007400080F0FA029888FF1F9488FF1F9588FF1F8A
:100750002DE9F04F064685B008468946DFF8BCA172
:100760000021174600F06EFF002369499AF80080C7
:10077000012203A8FFF7F8FE0398FFF7FBFE654B85
:100780001D789B46002D6BD0634B1C68012384F8B9
:1007900000319AF8003003F0020303F0FF0A4BB176
:1007A0007020FFF72BFF0020FFF728FF000609D578
:1007B000002507E00520FFF721FF5046FFF71EFF49
:1007C000C107F5D54FF0010A84F880A015B98BF860
:1007D000005045E0022D35D884F800A10620FFF72F
:1007E0000DFF84F880A01823013B7FF4FDAF18F0C3
:1007F000040F04D0012D0CBF8520752000E075206A
:100800004FF0010B84F800B1FFF7F8FE18F0020F6B
:1008100084F880B084F800B108D07020FFF7EEFEB5
:100820000020FFF7EBFE0206FAD507E00520FFF7F0
:10083000E5FE0020FFF7E2FEC307FAD4012384F8A7
:1008400080300DE0FFF726FFFFF744FF30495246A6
:10085000002303A8FFF788FE0398FFF78BFE00250F
:1008600018F0080F0AD0F319013B734013F07E4FC4
:1008700004D026F07E43C3F1007A00E0BA46264B4E
:100880001C68012218F0010F84F800211FFA86FB72
:100890004FEA164206D003200192FFF7AFFE019AFD
:1008A000104602E0D0B240F44070FFF7B5FE584663
:1008B000FFF7B2FE48465146FFF7BEFE4FF0010B70
:1008C000B7EB0A0784F880B0D1445644C8D1D5B1FB
:1008D00084F800B10620FFF791FE84F880B0182359
:1008E000013B7FF4FDAF18F0040F04D05D450CBF51
:1008F0008A207A2000E07A20012584F80051FFF751
:100900007DFE84F88050FFF7C5FE05B0BDE8F08F8E
:1009100080F0FA029588FF1F9888FF1F9488FF1FB8
:100920002DE9F74F04460F461546DFF8C0A09AF8A8
:1009300000300BB1FFF7CEFE29490122002301A8A8
:10094000FFF712FE0198FFF715FE264B1E684FF0C9
:1009500001095FFA84F886F800910620C8F58078CE
:10096000FFF74CFEA84528BFA84686F880901823BC
:10097000013B7FF4FDAF1C4B86F800911B7813F010
:10098000010F4FEA144B1FFA84F904D00220FFF73D
:1009900035FE584603E05FFA8BF040F40070FFF735
:1009A0003BFE4846FFF738FE4444C8EB0505B94610
:1009B00019F8010BFFF722FEC9EB07034344002B94
:1009C000F6D1012386F88030042347448AF80030AA
:1009D000FFF760FE002DA8D103B0BDE8F08F00BF87
:1009E00080F0FA029888FF1F9488FF1F9588FF1FE8
:1009F00037B51A4B1B7804460BB1FFF76BFE18494D
:100A00000122002301A8FFF7AFFD0198FFF7B2FD17
:100A1000144B1D68012385F800319F20FFF7EEFD80
:100A20000020FFF7EBFD20700020FFF7E7FD60706E
:100A30000020FFF7E3FD2378A070012B07D10020F1
:100A4000FFF7DCFDE0700020FFF7D8FD20710123E7
:100A500085F88030FFF71EFE03B030BD9588FF1F7C
:100A600080F0FA029888FF1F2DE9FF473D4B1A7866
:100A700098460AB1FFF72EFE02A8FFF7B9FF9DF8CE
:100A80000830202B48D19DF80A30A3F12002022A19
:100A900042D8354C2278212B4FEAA2170CBF0421F3
:100AA00002215FFA87F902F03F028945227056D28F
:100AB000222B2E494FF001024FF0000301A80CBF7A
:100AC0004FF0080A4FF0020AFFF74EFD0198FFF7BA
:100AD00051FD274B1D68012685F800610620FFF7B0
:100AE0008DFD85F880601823013B7FF4FDAFC420A5
:100AF00085F80061FFF782FD09FB0AF00002FFF7AD
:100B00008BFD0020FFF788FD237885F8806037444F
:100B100043EA871727701FE014490122002301A828
:100B2000FFF722FD0198FFF725FD114B1C680125F9
:100B300084F800510620FFF761FD84F880501823E7
:100B4000013B7FF4FDAFC72084F80051FFF756FD4D
:100B500084F88050FFF79EFD032388F8003004B02E
:100B6000BDE8F0879588FF1F9488FF1F80F0FA0288
:100B70009888FF1F2DE9F341224B1A781E460AB9C7
:100B800001203CE020490122002301A8FFF7ECFCF2
:100B90000198FFF7EFFC1D491D4B0A781C680125E1
:100BA00002F0020284F8005102F0FF080F46BAB1C9
:100BB0007020FFF723FD0020FFF720FD84F8805010
:100BC0008046FFF767FD18F0800F17D03B780024B0
:100BD00013F0C00F3470D3D0FFF746FF20460EE06D
:100BE0000520FFF70BFD4046FFF708FD84F8805015
:100BF0008046FFF74FFD18F0010FE7D0002002B04C
:100C0000BDE8F0819588FF1F80F0FA029488FF1FED
:100C10009888FF1F73B5164B1B7806460BB1FFF77C
:100C200059FD14490122002301A8FFF79DFC0198FA
:100C3000FFF7A0FC104B1D68012385F800314B2005
:100C4000FFF7DCFC0020FFF7E7FC0020FFF7E4FCE7
:100C500000240020FFF7D2FC30550134082CF8D1D5
:100C6000012385F88030FFF715FD02B070BD00BF8D
:100C70009588FF1F80F0FA029888FF1F8378A3F100
:100C800010020F2A04D9A3F12002052A03D8063B3B
:100C900001209840704702781AB9427862B9002B57
:100CA00005E0FF2A08D14278FF2A05D1FF2B0CBFAF
:100CB00000204FF4801070474FF480107047FFFF02
:100CC0007FB5344B344D53F830302B60334B012417
:100CD00006461C70FFF7D4FB2146304600F0E0FDCD
:100CE0002B6802A883F88040FFF782FE02A8FFF776
:100CF000C5FFB0F1807F32D929492246002301A8DF
:100D0000FFF732FC0198FFF735FC9DF80860A6421A
:100D100009D12C684FF4BC5084F80061FFF77CFCCB
:100D200084F8806012E02D68062085F80041FFF706
:100D300065FC85F880401823013B7FF4FDAFB720A8
:100D400085F80041FFF75AFC85F88040FFF7A2FCC8
:100D50009DF80830202B0CBF0923012300E000235D
:100D60009DF80820012A05D19DF80C203AB943F0DE
:100D7000140306E0202A04D143F0020301E043F00B
:100D80000403084A02A81370FFF732FE012004B0E2
:100D900070BD00BFD43E00009888FF1F9C88FF1FD5
:100DA00080F0FA029488FF1F13B5082200206946DC
:100DB000FFF7CEFC0F4C009BA34217D0013301D0AC
:100DC000002014E00C4B0094002069460822019397
:100DD000FFF7A6FDFFF7CEFE0028FBD000206946F6
:100DE0000822FFF7B5FC009BA342E9D1019802B0AD
:100DF00010BD00BF4C5596FA5802F6182DE9F04F79
:100E0000002391B0036004468A46FFF7CDFF002817
:100E10006BD0384B87B20AF1FF3212F8015F1DB177
:100E20005D40354B6B43F8E74FF6FE72B3FBF2F1D2
:100E300002FB113301339BB2039307EB4703029389
:100E4000BD4252D2C5EB0708B8F1080F28BF4FF0DA
:100E50000808281D0DF1200B400059464FEA4802B2
:100E6000FFF776FC002646453DD03BF81630039A46
:100E7000934232D1002306EB05090793381D09EB95
:100E8000890318440A22400005A9FFF761FC079B6B
:100E9000029A023313449B00D446184610220CA930
:100EA0000193CDF800C0FFF753FC019BDDF800C0B3
:100EB000103300220CA91CF8010B515C814210D1A7
:100EC00019B10132102AF5D1E7E7059B2360069B93
:100ED0006360A160A4F80C9007E04FF6FF729342A4
:100EE00003D00136BFE73544AAE7204611B0BDE87C
:100EF000F08F00BFC59D1C81930100011FB5014605
:100F00006846FFF77BFF0098003018BF012005B04E
:100F10005DF804FB036837B504460BB9002527E0EC
:100F20008089043040000DF106010222FFF710FC19
:100F3000A089BDF806300430DB4340000DF1060106
:100F40000222ADF80630FFF7EBFCFFF713FE054673
:100F50000028FAD0A089043040000DF106010222D9
:100F6000FFF7F6FBBDF80630002BD7D12360636096
:100F7000284603B030BD1FB501466846FFF73EFF67
:100F80006846FFF7C7FF05B05DF804FB2DE9F04F99
:100F90008DB0824689461646FFF7B0FF044608B179
:100FA0000020CDE0FFF700FF83460028F8D085B28F
:100FB00004F10803AB428CBFC4EB05070827201DD2
:100FC0000DF12008400041467A00FFF7C1FB0023E5
:100FD000BB420BD038F813104FF6FF72914203D189
:100FE0001C44AC4206D3DBE70133F1E71C44AC42BE
:100FF000DED3D5E70C236B43039303F1080734B921
:101000004FEA1B4B4FEA0B4B07EB9B3B3BE005F1D9
:101010000042013A04EB84015018002305A90A227A
:10102000400007930193FFF793FB059A0699019BF4
:1010300001EB020B079A07EB820C67464146102230
:1010400038460193CDF808C0FFF782FB019BDDF81D
:1010500008C003F110011A460DF1200EC3EB0E0E6D
:10106000501C12F80EE0BEF1000F05D10CF1040C7B
:10107000354F6244174006E0884201D00246EBE754
:1010800010370B46DAE76EB1731E09F1FF399B4446
:10109000B144BBFBF6FBB9FBF6F906FB0BFB06FB09
:1010A00009F903E00BF1FF0B2BF0FF0B504602F0A8
:1010B000BCFE06464046FFF79BFC0BEB090340468F
:1010C0000193FFF7DBFD019B83423FF669AF384692
:1010D0005146721CFFF724FC039ACDF814B06FF050
:1010E00007039B1A3B449B080793043504EB8403D6
:1010F000E818400005A90A22CDF81890FFF710FC67
:10110000FFF738FD0028FBD0104B0AF1FF3111F832
:10111000012F1AB153400E4A5343F8E74FF6FE72BF
:10112000B3FBF2F102FB1133201D0133400005A98E
:1011300002220593FFF7F4FBFFF71CFD0028FBD00C
:101140000DB0BDE8F08F00BFFCFF0300C59D1C8102
:10115000930100012DE9F047002388B00370064693
:101160000D469146FFF720FE08B900204AE0274BC4
:101170001C8804F1040887B24FEA48089A46BC422A
:10118000F3D2404602220DF10601FFF7E1FABDF865
:10119000062008F10208631C0AB91C46EFE7B81DD7
:1011A00004EB84042044AAF8003006220023400007
:1011B00002A90393FFF7CCFA029B5A1CD5D0C9F8B9
:1011C0000030039B07EB470702331F44BF00B5B154
:1011D000102D34BF2C4610240DF11008384641461E
:1011E0002246FFF7B5FA002318F8032006F8012B72
:1011F0003AB10133A342F7D32D1B2744E7E706F8A2
:10120000015C012008B0BDE8F08700BF9288FF1F95
:10121000642101F081B810B5642190B0044601F05A
:101220007BF8002802DC4FF0FF300EE068466421B6
:1012300001F034F80028F6DD20466946402202F02D
:10124000DDFD003018BF0120404210B010BD2DE977
:10125000F043D0F8023095B0044693FA83F84FF487
:10126000FA7101F01BF800283CDB04A8214602F0CB
:10127000D4FD04A8FFF742FE10B104A8FFF77BFEDF
:101280002046FFF7C5FF04A841460022FFF77EFE77
:1012900040B3684604A9FFF7B1FDDDF80090029D58
:1012A000B9F1000F1ED000264645204618D24FF453
:1012B000FA7100F0F3FF002814DB019F05F14003F1
:1012C000BB4203D9BD4209D27F1B00E0402705EB9A
:1012D000090021463A46FFF723FB3D444036E3E749
:1012E000FFF796FF15B0BDE8F083F0B54FF4FA7143
:1012F00095B0044600F0D2FF002834DB2046FFF70B
:1013000087FF00282FDB04A8214602F086FD04A8F1
:10131000FFF7F4FD08B1012300E0022323706846C3
:1013200004A9FFF76BFD029D019F3BBAC4F8013091
:101330002046FFF770FFB0B905F14003BB4203D967
:10134000BD4210D27E1B00E0402600982146284472
:101350003246FFF7FDF935442EB12046FFF75BFF1B
:1013600008B9002EE8DC15B0F0BDFFFF70B5164BD4
:10137000002292B004461A8002A8402101AAFFF779
:10138000E9FED8B101232370019B1BBAC4F80130D8
:101390002046FFF740FFA8B902AD224612AE2B4609
:1013A00003CBB342106051601D4602F10802F6D132
:1013B0002046FFF730FF0028DED003E020702046F3
:1013C000FFF729FF12B070BD9288FF1F10B564218E
:1013D00090B0044600F062FF002812DB6846214608
:1013E00002F01BFD6846FFF789FD28B16846FFF74C
:1013F000C2FD0123237000E020702046642100F02C
:101400008BFF10B010BD10B50446FFF7B3FB1123DE
:1014100080F001002070637020466421BDE8104018
:1014200000F07ABF38B50546012305F8083B0446AD
:101430002846FFF7DDFA2846FFF720FC00BAC4F87B
:10144000010004F11000FFF7E5FB20466421BDE830
:10145000384000F061BFFFFF022330B5037007235F
:101460001BBAC0F80630224B1BBAC0F80A304FF442
:1014700000631BBAC0F801301E4B1ABA02611BBAD6
:1014800043611D4B1BBA83611C4B1BBAC3611C4BD0
:1014900041221A701B4A0E2313701B4B80211970B6
:1014A00014461A781506FCD51849194A0B7880F8A5
:1014B0003A30137880F83B30164B1D7880F83C505A
:1014C0000F252570104C802525700F4C247824069C
:1014D000FBD5097880F83D10127880F83E201B7803
:1014E00080F83F306421BDE8304000F015BF00BFF8
:1014F000500DF85F00A24A040051250200366E012B
:101500000700024006000240000002400A000240BC
:10151000090002400800024038B505464FF4006358
:101520001BBAC0F80130FFF776FE68B904462846BA
:101530002146402200F0F4F82846FFF76CFE18B967
:101540004034B4F5006FF2D138BD38B504464FF4DD
:1015500000631BBAC0F80130FFF75DFEA8B905466D
:1015600020464FF4FA7100F099FE00280DDB294661
:1015700020464022403500F0F5F8B5F5006FEFD178
:101580002046BDE83840FFF743BE38BD10B50446DD
:1015900000F0B6FE002853D00021204600F07EFE69
:1015A0002046FFF735FE00284ADB62782378FD2AC3
:1015B00031D0FE2A3DD0002A42D1032B1CD007D8BF
:1015C000012B0FD013D82046BDE81040FFF73FBED7
:1015D000092B16D0632B19D0042B31D1BDE8104054
:1015E000FFF742BA2046BDE81040FFF77EBE204616
:1015F000BDE81040FFF7BABE2046BDE81040FFF737
:10160000E5BE2046BDE81040FFF70CBF2046BDE810
:101610001040FFF7F8BE13B1012B05D010BD2046D6
:10162000BDE81040FFF791BF2046BDE81040FFF72E
:1016300073BF092B04D12046BDE81040FFF70CBF53
:1016400010BDFFFF01B5EAB1102A17DB00F0070358
:1016500033B1C3F10803D21A013B00F8011BFBDCD4
:10166000C9B241EA012141EA01418C46D308013B5C
:10167000E0E8021CFBDC12F0070203D0013A00F89C
:10168000011BFBDC01BD00BF024B1B78DB07FBD558
:10169000704700BF010002407FB51C4B6A4603F152
:1016A00010056E4618685968144603C40833AB42E7
:1016B0002246F7D1164B1A7812F0020F1D461CD0A5
:1016C000144A154B117811F0700118BF1170802267
:1016D0001A70002203F8032C33221A710322DA70E5
:1016E00072B60C4C46F001062046B04762B623782D
:1016F00013F0700301D0237005E0084B2A78D2075D
:1017000001D4013BFAD104B070BD00BFC43E00005B
:10171000010002400000024007000240410D0300AA
:1017200070B50F4B1B78DB0705460C4601EB020634
:1017300001D4FFF7B1FFB6F5006F34BF32464FF466
:10174000006204F1A05303F16C41914207D2291BBE
:10175000194401F16C41187808700133F3E770BD4A
:1017600001000240B1F5006FF8B505460F4614467A
:101770000E465FD2304B1B78DB0701D4FFF78CFF9E
:10178000B4F5006F28BF4FF400643B19B3F5006F48
:1017900024D3C7F5006421E016F003012A7806F18E
:1017A000A0531ED1032C1ED9A9786878090441EAF8
:1017B00000210A43E97842EA01621968914205F181
:1017C000040708D01D49087810F0700018BF087091
:1017D0001A60FFF759FF0436043C3D46002CDBD16C
:1017E00028E0022915D1012C13D0697842EA0122A0
:1017F0001988914205F1020708D01049087810F0C5
:10180000700018BF08701A80FFF73EFF0236023CD6
:10181000E3E71978914205F1010508D007490878F6
:1018200010F0700018BF08701A70FFF72DFF013616
:10183000013CD3E7F8BD00BF0100024000000240B8
:10184000044B054900221A600A60044A1060102205
:101850001A60704714D0034004D0034000D0034006
:10186000212810B518D80D4A52F8303093F880422C
:101870003CB1012211B183F8802010BD83F8002112
:1018800010BD02EBC00043681A6811B142F00302B8
:1018900001E022F002021A6010BD00BFD43E000039
:1018A000212810B537D81C4A02EBC00301295B6818
:1018B000144601D004290FD154F83020012082F8B9
:1018C00080024FF4A2721A601A6804290CBF42F019
:1018D000200222F020021DE052F83020002082F881
:1018E000800211B18A1E012A12D84FF48072022997
:1018F0001A6003D11A6842F003020BE003290AD1EF
:101900001A6842F002021A601A6822F0010201E02D
:1019100040F203121A6010BDD43E000072B60C4BA8
:101920000C491A680C4B1B68096862B6490102D55C
:10193000322A88BF0133C2F58C32482102F23F12AD
:10194000B2FBF1F24FF47A7000FB0320704700BF46
:1019500018E000E004ED00E0E088FF1F38B5044621
:10196000FFF7DCFF054624B938BD013C0AD005F578
:101970007A75FFF7D3FF401BB0F57A7FF5D200F000
:101980003BFEF6E738BDFFFF204B4FF4000210B5D9
:101990001A604FF080721A604FF000721A604FF0B8
:1019A00080621A604FF000621A60194B194A1A4C93
:1019B000002048F6FF711860596028231360936077
:1019C000136193611362936213639363092222602C
:1019D00004F58054043420606160A360236144F8FE
:1019E000042C04F5FE2420600C4801600C490B60B7
:1019F0008B600C4B1A6000F01FFE4FF4C870FFF7AD
:101A0000ADFFBDE8104000F0C9BB00BF08E100E039
:101A1000048003400C8003400080034008800B409A
:101A20000C800B4000800B40F0B50C4B0C4C1A782E
:101A300042F0020504EBC50682F00102706009481D
:101A40001A700678002E0CBF8827C82786F001067A
:101A500047EA0141067044F83510F0BD4C89FF1F7C
:101A60000080FF1FC489FF1F431E032B10B510D831
:101A700072B6094A52F8230048B1416842F823106F
:101A8000064A018832F81340611A22F8131062B630
:101A900010BD002010BD00BF3C89FF1FA08BFF1FA1
:101AA000013803280AD872B6054B53F820300020BD
:101AB00013B101305B68FBE762B6704700207047E6
:101AC0009089FF1F10B572B60123174A1A4412F805
:101AD000012C12071CD59900144A52F831402CB938
:101AE00002EB431308305860114B09E041F001014B
:101AF00052F8314064B902EBC103083058600D4B15
:101B000042F831300C4B1A78013A1A7062B610BDA7
:101B10000133052BD9D162B6074B00221A70BDE8FC
:101B2000104000F099BB00BFE43F00000080FF1FA1
:101B300088004000C8004000BA89FF1F431E032BE5
:101B400030B532D8194A400140F01000104472B646
:101B5000174CE25C032A09D8DFE802F016021805E8
:101B60000830022213E00830042210E01148124A23
:101B700050F8234014B940F8231002E052F8230033
:101B8000416042F823100FE0032200E00522E254F6
:101B900010F0080F01F108030A8843600CBF882386
:101BA000C82343EA0243036062B630BD0080FF1FD2
:101BB000F888FF1F9089FF1FA089FF1F2DE9F84FAC
:101BC000A74F3C78E4B214F0040F3D4619D0A54B62
:101BD0001B78A3B1A44A117801F0FF0321B1013BA6
:101BE000DBB2137003B900BEA04A117801F0FF0305
:101BF00029B1013BDBB213700BB900F0D9FC04230F
:101C00003B7004F0080303F0FF02002B00F05C823D
:101C1000974B984C1A78D2B215094FEA920840F0C7
:101C2000D98154F8382004EBC803C2F38302013A87
:101C30005B680C2A00F2CB81DFE812F08501850198
:101C4000C901C901C901C901C901C901A501C90168
:101C5000C901C9010D00884D1A685B6887486B602F
:101C6000874B44F8383001232A60DFF84082037044
:101C700092B240F2816000218242C8F800102161D6
:101C8000A16117D8B2F5D06F80F01681B2F5817FCF
:101C900000F0C78006D8802A00F0B280822A00F0C7
:101CA000B38021E140F202339A4200F0C980B2F5DC
:101CB000A06F14E0B2F5106F14D008D8B2F5086F19
:101CC00040F01281674A6F4C1278227014E140F69E
:101CD00021139A4200F0348140F621239A4200F009
:101CE000078101E15F4B634EAA781A7006F1800903
:101CF000336A1B0603D5706A083800F0ADFA08365F
:101D00004E45F5D10026B146DFF8A4A156F80A00E9
:101D100028B1D0F804B000F09FFA5846F8E74AF826
:101D20000600594BDFF88CA1F05056F80A0028B194
:101D3000D0F804B000F090FA5846F8E7534B4AF850
:101D40000600F050524B23F81900524B19F80320AB
:101D5000023A032A08D8DFE802F002040204002253
:101D600000E0012203F8092009F10109B9F1040F8B
:101D700006F10406C8D1484B00221A7001269A4683
:101D8000464A474B3244334412F8012C9B0012F070
:101D9000080F1A704FEA860925D000F03FFA38B1D3
:101DA00004EB4613083058603E4B44F8393006E0E7
:101DB0009AF8003044F8390001338AF8003000F016
:101DC0002DFA49F0010338B104EBC302083050602A
:101DD0002B4A44F8332006E044F833009AF80030E8
:101DE00001338AF8003049F00202013649F0030954
:101DF0000023052E44F8323044F83930C0D178E061
:101E0000204C2170617076E0AA88042A6CD81D4CA1
:101E1000217061709100244A525C96076BD5237043
:101E200069E0AA8802F07F02042A5DDC6B88002B3F
:101E30005AD191001C4A0A44117821F002010DE0A8
:101E4000AA8802F07F02042A4EDC6B88002B4BD15B
:101E50009100154A0A44117841F00201117048E0DE
:101E600080200740C389FF1F4D89FF1FD489FF1FB2
:101E7000902007400080FF1FB089FF1FC489FF1F0B
:101E8000C8004000BB89FF1FE888FF1FA089FF1F13
:101E9000A08BFF1FF888FF1FBA89FF1FE43F0000D7
:101EA00030C8011088004000C0200740E488FF1FB0
:101EB0003C89FF1F9089FF1F6A88A9889E4B53F8B1
:101EC000084CA3F10C007CB133F80C6C964209D19C
:101ED00033F80A6C8E4205D1120A032A0CBF23780C
:101EE000038909E00C33EAE7944B0F221A7027E0CC
:101EF00000231C4600E00223EE88B34238BF1E4692
:101F0000402E34BF3546402520462946FFF78CFD3C
:101F1000761B2C4403D1402D12D1354603E0402ED0
:101F200034BF3546402520462946FFF77DFD761B08
:101F30002C4401D1402D03D1814AC8F800401680BD
:101F40000122804B42E0804A80481168814216D1CC
:101F500051687F4A914212D11A78A92A0FD15A7832
:101F6000452A0CD19A78C22A09D1DB786B2B06D18D
:101F7000784B0020052201461A70FFF755FD764B7D
:101F800044F8383023E0754E3568B5B1DFF8B081DC
:101F9000B8F80090B9F1400F34BF4C4640242846B1
:101FA0002146FFF741FDC4EB09039BB2A8F80030BE
:101FB0000BB9402C00D12B193360634B1A88B2F552
:101FC000A06F04D100225A709A78654B1A700122D2
:101FD0005C4B6CE004EBC806013D736802F008023C
:101FE000A3F10800EDB202F0FF01002A36D000F0A4
:101FF00033F95C485C4B50F82520EAB1516840F851
:10200000251002F108017160595D03290BD8DFE842
:1020100001F002040608032104E0022102E0052188
:1020200000E00421595516F0080F12880CBF8823D0
:10203000C82343EA024342E05A5D032A07D8DFE897
:1020400002F040400204002206E0012204E016F003
:10205000080F0CBF022203225A5532E054F83820F0
:10206000120C23F8082C22B3DFF82CE123F8061C0D
:1020700043F8041C5EF825303C4913B94EF825009E
:1020800002E051F825305860394B41F8250033F80B
:1020900015100A4423F8152000F0C0F810B10830DC
:1020A000706006E0334B44F838001A7801321A7039
:1020B00007E0294B304A16F0080F08BF134644F8D2
:1020C000383008233B707BE5E0071FD51D492A48BF
:1020D0002A4C02230B702A4B1A702A4B1860986006
:1020E0002948D8601A619A615C60144B0D20187001
:1020F0002648FF2303702B700274254A1370254B6A
:102100009F221A7001230B70BDE8F88F210604D5B9
:102110000A4B0D221A7080232B70A20705D51B4B8A
:102120001A78D2B21A7002232B70E30644BF102330
:102130002B70BDE8F88F00BFF43F0000C0200740BF
:10214000B889FF1F94200740B089FF1F21090003B1
:10215000010004004D89FF1FC8004000E488FF1FF4
:10216000982007409089FF1FF888FF1FE888FF1F0D
:10217000A08BFF1FBA89FF1F88004000FC88FF1F4B
:102180004C89FF1F0080FF1F5089FF1F88200740D8
:102190008C200740842007403C89FF1F08B501F0D0
:1021A000F5FB00221A4B0021D15098180832882ADA
:1021B0004160F7D1174A106840F48020106002F5A2
:1021C00028326832C3F307201070C3F307401B0E98
:1021D00010751376FF2302F81C3C02F8143C02F839
:1021E0008C3C012302F8083C82F8641002F8183C89
:1021F000094B70226FF450711A700B444FF4007247
:102200001A6003F1C04303F5C82310221A7008BDF9
:102210000080FF1F3480044049E400E072B60C4A9D
:102220001168B1FA81F30B2B02D962B60020704716
:102230004FF00040D84021EA0001116062B6054924
:1022400048225343C8180022CA504260704700BF5A
:102250006087FF1F0084FF1F0C4B4822C31AB3FB8B
:10226000F2F30B2B11D80A4A127822B1094A1278DC
:102270000AB1FFF727BC72B6074A4FF0004121FAB6
:1022800003F311681943116062B670470084FF1FA1
:10229000BA89FF1FC389FF1F6087FF1FF7B5164B61
:1022A0001A680092009E05460C461F46134B1B7889
:1022B000E3B10420FFF7D8FB48B93B680193019BC9
:1022C0009B1BA34216D8A4B100F096F9EEE700F1EB
:1022D00008032A4600F1480153F8044B42F8044B26
:1022E0008B42F9D1FFF7B8FF402003E04FF0FF30F9
:1022F00000E0204603B0F0BDE088FF1FC389FF1F48
:10230000034B1B7803F0FF000BB1024BD8887047DA
:10231000C389FF1FA08BFF1FF7B51B4B1A680092E4
:10232000009D04460E461F46184B1B782BB3032016
:10233000FFF7B6FB032808D93B680193019B5B1BA1
:10234000B3421DD800F058F9EEE7FFF767FF0346E8
:102350000028F1D0204603F1080204F1400150F8B2
:10236000044B42F8044B8842F9D1402403201C80DE
:102370001946FFF7E3FB204603E04FF0FF3000E093
:10238000002003B0F0BD00BFE088FF1FC389FF1F1E
:1023900038B5124B1B78EBB1114C23681BB90220E6
:1023A000FFF762FB206020680D4D98B14388C2188A
:1023B000147A5CB102880133934204D3FFF74CFFD7
:1023C00000232B6000E04380204638BDFFF744FF28
:1023D0002C60DEE74FF0FF3038BD00BFC389FF1F20
:1023E000D089FF1F10B50D4B1B788BB10C4C2368A7
:1023F0001BB90220FFF738FB2060206840B14388FA
:1024000003441C7A3CB9FFF727FF054B1C60EAE741
:102410004FF0FF3010BD204610BD00BFC389FF1F25
:10242000D089FF1F38B5104D2B6823B128680024D0
:10243000028843880FE00D4B1B781BB10220FFF789
:1024400013FB28602C68002CF0D10BE0C11821444C
:10245000097A19B10134E1189142F7DB14B9FFF799
:10246000FBFE2C60204638BDD089FF1FC389FF1FAB
:102470002DE9F843324D012307460C462B70002C02
:102480005AD0304E3368B1465BBB43F601482E4B01
:102490001B7803F0FF020BB92A7018E00120FFF748
:1024A000FFFA052804D9B8F10108284A09D10AE041
:1024B00001232B70FFF7B2FEC9F800000028F2D00C
:1024C0000FE013783BB10123137000232B704FF002
:1024D000FF30BDE8F8832B7000F08EF801232B70DD
:1024E000D5E73168194A488800231370C0F14002CB
:1024F000944238BF224600F1080C10448C444880B6
:10250000A41A934204D0F85C0CF803000133F8E7F6
:102510001F444B883F2B0E4B02D805221A70AEE7A2
:1025200040220A804FF00008012083F80080FFF766
:1025300005FBC6F80080A2E72C702046BDE8F883B2
:10254000C589FF1FC889FF1FC389FF1FCC89FF1FD3
:10255000D489FF1F07B502AB012103F8010D18460E
:10256000FFF786FF03B05DF804FBFFFF10B50D4BCE
:102570001B78B3B10C4B19681C4691B14B8883B1E1
:102580000A4A002010703F2B04DCCA180020107289
:102590000133F8E740230B800120FFF7CFFA002337
:1025A000236010BDC389FF1FC889FF1FD489FF1F87
:1025B00010B50B4B1B788BB90A4A11684B8814462F
:1025C0003F2B04DCCA18002010720133F8E74023C7
:1025D0000B800120FFF7B2FA0023236010BD00BF7B
:1025E000C589FF1FC889FF1F08B5FDF73BFFFDF731
:1025F00041FF00F001F8FAE710B50E4C2378BBB9A3
:1026000001232370FFF70EFF08B101F0A4FB00F0D7
:1026100001FB08B101F06CFA00F05AFE08B101F0BC
:10262000F1FA01F0E7F808B101F076FB002323701E
:1026300010BD00BFD689FF1F10B5204B204821498F
:1026400060221A70E1225A701F4B204A1C78204BDE
:10265000082C01D1012402E00A2C03D119240460C2
:10266000132005E00C2C0CBF15243D24046012201F
:10267000086014601860174B17491B78174A03B19C
:1026800001230B601360164B164A1978164B01296B
:1026900001D880210BE0042901D8842107E0082912
:1026A00001D8852103E0102994BF8621872111607C
:1026B00019600E4B01221A7010BD00BF0040074088
:1026C00008B003400CB003406487FF1F08B00B4004
:1026D0000CB00B40D889FF1F20B0034020B00B4046
:1026E0006587FF1F24B0034024B00B40D789FF1F2C
:1026F000024B1A6801321A60704700BFE088FF1F62
:1027000008B50B4C2368580301D5FFF757FA236827
:10271000590501D500F0F4FA23681A0501D500F037
:102720004DFE2368DB04ECD501F0C8F8E9E700BFF3
:102730003480044008B5FFF7E3FFFFFF014B102290
:102740001A807047002005407047FFFFEFF31383A6
:102750009BB9EFF3108098B9EFF3058323B10F2BEA
:1027600004D9084A985C01E04FF48070EFF31183BC
:102770003BB1834238BF184670474FF0FF30704777
:1027800018467047F0E300E0234B1A6842F4806279
:102790001A60224A00231370214A1370214A1370D1
:1027A000214A1370214A1370214B1B782BB1152B32
:1027B00007D140F213321F4B02E01F4B40F213329D
:1027C0001A601E4B1B78012B05D0052B07D14FF447
:1027D00051721B4B02E01B4B4FF451721A601A4BA3
:1027E000C0F344321A70C0F347125A700221042217
:1027F00000F01F0098729A70D9745A7588221A7462
:102800003C22DA70114B40226FF44A711A700B446B
:102810004FF400521A60704734800440638AFF1FEF
:10282000E189FF1F6C8AFF1F648AFF1FE089FF1F79
:10283000228AFF1F18C0044040A004406687FF1F83
:102840001CC0044044A0044000A006402DE400E069
:10285000134A937800F0030103F0EC030B434107A4
:1028600048BF43F01003937000F00F03042B0C4992
:1028700003D18B7943F040038B715379C20603F087
:10288000EF03074A48BF43F0100353719379810661
:1028900003F0EF0348BF43F010039371704700BF8C
:1028A00000A0064008B5114B1B685B0500D408BDAD
:1028B0000F4B1A7802F0FF0312B1FFF79DFEF7E706
:1028C0000C4A4FF4005111600B4A0C49D37040F28E
:1028D00003120A604A600A4A13700A4A13700A4BCC
:1028E0001B680BB101221A7008BD00BF3480044080
:1028F000E089FF1F84E100E000A0064040A0044002
:10290000638AFF1FE189FF1FDC89FF1F38B504467A
:10291000094B1B7803F0FF05002BF9D1204601215C
:10292000FEF7BEFF20462946FEF79AFF034B53F8F9
:102930003420034B1A6038BDE089FF1FD43E0000ED
:10294000688AFF1F10B509B140F08000144A13785F
:102950009842144622D0134A126852051DD503F03E
:102960007F03012B04D0052B05D100220E4B01E083
:102970000E4B00221A60002900F07F020CBF442396
:102980006023012A05D0052A07D143F44073064A83
:1029900002E0064A43F440731360207010BD00BF8C
:1029A0006687FF1F348004401CC0044044A00440DC
:1029B0000E4A1378984218D00D490968490513D575
:1029C0002BB1152B05D10B4B0021196001E00A49F1
:1029D0000B6028B1152807D140F21331054B02E0F6
:1029E000054B40F21331196010707047228AFF1FA7
:1029F0003480044018C0044040A004400D4A38B55B
:102A0000146814F480624FF0000410D021280A4D9D
:102A10000AD80A4A012152F830302B60FEF740FFF5
:102A20002B681C70012038BD2C60204638BD104634
:102A300038BD00BF34800440DC89FF1FD43E000055
:102A40000E4B1B6813F4806316D012280C4B03D175
:102A500040F202310B4A04E0142809D10A4A40F23C
:102A6000023111605A7B42F001025A730120704713
:102A70005A7B02F0FE025A730020704734800440F3
:102A800000A006400CA0044014C00440F8B51D4B43
:102A90001B685A05064633D51B4B1B680BB1012238
:102AA0001A701A4B1C780134402C1F4628BF002492
:102AB000174D2B78A34218D1FFF748FE40280FDCB2
:102AC000144A13791B06F3D52B7813490133402B95
:102AD00028BF0023C95CDBB2C9B2D1712B70E7E714
:102AE000FF28E5DDFFF788FDE2E70B4BF6B21E5548
:102AF0000A4B01221A70074BE4B2BC223C70DA7018
:102B0000F8BD00BF34800440688AFF1F6C8AFF1F35
:102B1000648AFF1F00A00640E289FF1FE089FF1FB3
:102B2000274B1B685A052DE9F04707468A4644D5CE
:102B3000244B1B680BB101221A703D4607EB0A03B8
:102B40009D4237D2DFF890801F4E98F8004096F8EB
:102B500000900134402C28BF00245FFA89F9A14578
:102B60001DD11A4BBC22DA70FFF7F0FD40280FDCB4
:102B7000164A13791B060FD5337815490133402BBC
:102B800028BF0023C95CDBB2C9B2D171337003E046
:102B9000FF2801DDFFF730FD33784B45E4D00C4BC7
:102BA00015F8012B1A550B4B0122E4B21A7088F864
:102BB0000040C3E7054BBC22DA70BDE8F08700BFD8
:102BC00034800440688AFF1F648AFF1F00A006400B
:102BD000E289FF1FE089FF1F6C8AFF1F08B5034BC6
:102BE0001B7813B1FFF708FDF9E708BDE089FF1F67
:102BF000064A074B1B781078DBB2C0B283422CBF69
:102C00003F3000F1FF30C01A704700BF648AFF1FD9
:102C10006C8AFF1F054B1878054B1B78C0B2DBB2DE
:102C2000984238BF4030C01A704700BF638AFF1F08
:102C3000E189FF1F10B5104B10491A780B78D2B2FA
:102C4000DBB29A4214D00133402B28BF00230C483A
:102C5000DCB2C05C0C700B490968C0B251B19A4239
:102C600038BF4032D31A1A2B04DC00230B7010BD7E
:102C70004FF0FF3010BD00BF638AFF1FE189FF1FC7
:102C8000238AFF1FDC89FF1F084B1A78084B1B782B
:102C9000DBB29A4207D00133402B28BF0023054AFC
:102CA000D05CC0B270474FF0FF307047638AFF1F9F
:102CB000E189FF1F238AFF1F0C4B1B685B0514D59E
:102CC0000B4BDA7802F0CB02DA7040225A74DA78D1
:102CD00042F03402DA70074B1A78074BD2B21A70FE
:102CE000064B1B680BB100221A70704734800440F9
:102CF00000A00640E189FF1F638AFF1FDC89FF1FD8
:102D000030B5374B1A7912F0300F31D072B69A7D48
:102D100002F0FF0022B9DA7940225A7462B627E045
:102D200062B6304A304913780978DBB2C9B214462A
:102D30002B4AD5795A1C402A28BF00228A42EDB27C
:102D400002D02A4B9D541346421E12F0FF00EFD1D1
:102D5000DAB22270264A126852B18B4236BFC1F1F4
:102D60004001C1EB03035B18272BC4BF0123137081
:102D70001B4BD978C9B20C0620D51B7918061DD576
:102D80001C4B1D4A1D781378EDB2DBB21046AB42E6
:102D90000CD0134A0133402B1479184C28BF002360
:102DA000E45CE4B2D471127D072AF0D9DBB203707F
:102DB0000B4B1A79120644BF7C22DA704B060ED5F3
:102DC000074B1A7912F0400F194608D00C4B00221D
:102DD0001A700C4B1B6803B11A703C23CB7030BDCA
:102DE00000A00640638AFF1FE189FF1F238AFF1F9F
:102DF000DC89FF1F6C8AFF1F648AFF1FE289FF1FA7
:102E0000E089FF1F688AFF1F234B1A6842F40062A3
:102E10001A60224A00231370214A1370214A13704A
:102E2000214A1370214A1370214B1B78092B05D0BE
:102E30001A2B07D140F213321E4B02E01E4B40F218
:102E400013321A601D4B1B780A2B05D01F2B07D19C
:102E50004FF451721A4B02E01A4B4FF451721A6040
:102E6000194BC0F344321A70C0F347125A7000F085
:102E70001F000422022198729A70D9745A75882210
:102E80001A743C22DA70114B40221A70A3F22B33D1
:102E90004FF400421A60704734800440DE8AFF1FFE
:102EA000758AFF1FE48AFF1FDF8AFF1F748AFF1FD6
:102EB0006787FF1F04D004400CB004406887FF1FE1
:102EC00000D0044010B0044000B006402FE400E001
:102ED000134A937800F0030103F0EC030B4341071E
:102EE00048BF43F01003937000F00F03042B0C490C
:102EF00003D18B7943F040038B715379C20603F001
:102F0000EF03074A48BF43F01003537193798106DA
:102F100003F0EF0348BF43F010039371704700BF05
:102F200000B0064008B51E4B1B681B0500D408BD49
:102F30001C4B1B7803F0FF0213B1FFF75DFBF7E7B3
:102F4000194B4FF400411960184BDA70184B1B787D
:102F5000092B05D01A2B07D140F20312154B02E0C2
:102F6000154B40F203121A60144B1B7803F07F03D9
:102F70000A2B05D01F2B07D140F20312104B02E0A1
:102F8000104B40F203121A600F4A002313700F4ACD
:102F900013700F4B1B680BB101221A7008BD00BFE4
:102FA00034800440748AFF1F84E100E000B00640D2
:102FB0006787FF1F04D004400CB004406887FF1FE0
:102FC00000D0044010B00440DE8AFF1F758AFF1F46
:102FD000708AFF1F38B50446094B1B7803F0FF05C4
:102FE000002BF9D120460121FEF75AFC2046294644
:102FF000FEF736FC034B53F83420034B1A6038BD00
:10300000748AFF1FD43E0000E08AFF1F10B509B18B
:1030100040F08000144A13789842144622D0134A94
:10302000126812051DD503F07F030A2B04D01F2B55
:1030300005D100220E4B01E00E4B00221A60002940
:1030400000F07F020CBF442360230A2A05D01F2A08
:1030500007D143F44073064A02E0064A43F4407342
:103060001360207010BD00BF6887FF1F34800440CC
:1030700000D0044010B004400F4A137898421AD090
:103080000E490968090515D5092B04D01A2B05D15D
:1030900000210B4B01E00B4B00211960092805D0E2
:1030A0001A2807D140F21331054B02E0054B40F2DC
:1030B00013311960107070476787FF1F3480044018
:1030C00004D004400CB004400D4A38B5146814F420
:1030D00000624FF0000410D021280A4D0AD80A4A95
:1030E000012152F830302B60FEF7DAFB2B681C70A0
:1030F000012038BD2C60204638BD104638BD00BFC9
:1031000034800440708AFF1FD43E00000B4B1B68C4
:1031100013F4006310D01728094B09D1094A40F273
:10312000023111605A7B42F001025A73012070474C
:103130005A7B02F0FE025A7300207047348004402C
:1031400000B0064008B00440F8B51D4B1B681A05D6
:10315000064633D51B4B1B680BB101221A701A4B64
:103160001C780134282C1F4628BF0024174D2B78CB
:10317000A34218D1FFF7EAFA40280FDC144A13796A
:103180001B06F3D52B7813490133282B28BF0023C6
:10319000C95CDBB2C9B2D1712B70E7E7FF28E5DD6E
:1031A000FFF72AFAE2E70B4BF6B21E550A4B012253
:1031B0001A70074BE4B2BC223C70DA70F8BD00BF55
:1031C00034800440E08AFF1FE48AFF1FDF8AFF1F6C
:1031D00000B00640768AFF1F748AFF1F274B1B68CA
:1031E0001A052DE9F04707468A4644D5244B1B684B
:1031F0000BB101221A703D4607EB0A039D4237D2FC
:10320000DFF890801F4E98F8004096F80090013447
:10321000282C28BF00245FFA89F9A1451DD11A4B3B
:10322000BC22DA70FFF792FA40280FDC164A1379B5
:103230001B060FD5337815490133282B28BF0023EF
:10324000C95CDBB2C9B2D171337003E0FF2801DD84
:10325000FFF7D2F933784B45E4D00C4B15F8012B2E
:103260001A550B4B0122E4B21A7088F80040C3E7EC
:10327000054BBC22DA70BDE8F08700BF3480044003
:10328000E08AFF1FDF8AFF1F00B00640768AFF1F1B
:10329000748AFF1FE48AFF1F08B5034B1B7813B124
:1032A000FFF7AAF9F9E708BD748AFF1F064A074B22
:1032B0001B781078DBB2C0B283422CBF273000F1FC
:1032C000FF30C01A704700BFDF8AFF1FE48AFF1F6C
:1032D000054B1878054B1B78C0B2DBB2984238BF5B
:1032E0004030C01A704700BFDE8AFF1F758AFF1F7B
:1032F00010B5104B10491A780B78D2B2DBB29A4253
:1033000014D00133402B28BF00230C48DCB2C05C32
:103310000C700B490968C0B251B19A4238BF4032B3
:10332000D31A1A2B04DC00230B7010BD4FF0FF30B2
:1033300010BD00BFDE8AFF1F758AFF1F9E8AFF1F18
:10334000708AFF1F084B1A78084B1B78DBB29A4231
:1033500007D00133402B28BF0023054AD05CC0B200
:1033600070474FF0FF307047DE8AFF1F758AFF1FDE
:103370009E8AFF1F0C4B1B681B0514D50B4BDA787C
:1033800002F0CB02DA7040225A74DA7842F034024A
:10339000DA70074B1A78074BD2B21A70064B1B68CB
:1033A0000BB100221A7070473480044000B0064010
:1033B000758AFF1FDE8AFF1F708AFF1F30B5374BEB
:1033C0001A7912F0300F31D072B69A7D02F0FF00F8
:1033D00022B9DA7940225A7462B627E062B6304ADE
:1033E000304913780978DBB2C9B214462B4AD57933
:1033F0005A1C402A28BF00228A42EDB202D02A4B32
:103400009D541346421E12F0FF00EFD1DAB2227033
:10341000264A126852B18B4236BFC1F14001C1EB5E
:1034200003035B18272BC4BF012313701B4BD978F0
:10343000C9B20C0620D51B7918061DD51C4B1D4A98
:103440001D781378EDB2DBB21046AB420CD0134AB4
:103450000133282B1479184C28BF0023E45CE4B214
:10346000D471127D072AF0D9DBB203700B4B1A79A5
:10347000120644BF7C22DA704B060ED5074B1A7930
:1034800012F0400F194608D00C4B00221A700C4B5A
:103490001B6803B11A703C23CB7030BD00B00640EE
:1034A000DE8AFF1F758AFF1F9E8AFF1F708AFF1F1B
:1034B000E48AFF1FDF8AFF1F768AFF1F748AFF1FBF
:1034C000E08AFF1F174B1A6842F480521A60164AAE
:1034D00000231370154A1370154A1370154A1370A0
:1034E000154A1370154A40F2133111604FF45171AF
:1034F0005160134AC0F344311170C0F3471100F01A
:103500001F0051709072937013742C23D3700D4B65
:1035100040226FF44B711A700B444FF400321A6062
:10352000704700BF34800440568BFF1FED8AFF1F99
:103530005C8BFF1F578BFF1FEC8AFF1F08C00440E6
:1035400000C0064031E400E0134A937800F0030124
:1035500003F0EC030B43410748BF43F010039370A3
:1035600000F00F03042B0C4903D18B7943F0400387
:103570008B715379C20603F0EF03074A48BF43F04B
:10358000100353719379810603F0EF0348BF43F0B2
:1035900010039371704700BF00C0064008B5114B7F
:1035A0001B68DB0400D408BD0F4B1A7802F0FF0340
:1035B00012B1FFF721F8F7E70C4A4FF40031116020
:1035C0000B4A0C49D37040F203120A604A600A4A5F
:1035D00013700A4A13700A4B1B680BB101221A7050
:1035E00008BD00BF34800440EC8AFF1F84E100E086
:1035F00000C0064008C00440568BFF1FED8AFF1F25
:10360000E88AFF1F38B50446094B1B7803F0FF0515
:10361000002BF9D120460121FEF742F92046294628
:10362000FEF71EF9034B53F83420034B1A6038BDE4
:10363000EC8AFF1FD43E0000588BFF1F10B509B164
:1036400040F080000E4A1378984217D00D4C246841
:10365000E40412D503F07F03082B02D10A4B0024A7
:103660001C60002900F07F030CBF44216021082B5F
:1036700003D1054B41F440711960107010BD00BFBB
:103680006987FF1F348004400CC004407047FFFF6F
:103690000D4A38B5146814F480524FF0000410D06D
:1036A00021280A4D0AD80A4A012152F830302B60ED
:1036B000FEF7F6F82B681C70012038BD2C60204600
:1036C00038BD104638BD00BF34800440E88AFF1F73
:1036D000D43E00000B4B1B6813F4805310D00E280F
:1036E000094B09D1094A40F2023111605A7B42F07C
:1036F00001025A73012070475A7B02F0FE025A738E
:10370000002070473480044000C0064004C00440DC
:10371000F8B51D4B1B68DA04064633D51B4B1B68F6
:103720000BB101221A701A4B1C780134282C1F4649
:1037300028BF0024174D2B78A34218D1FFF706F8B5
:1037400040280FDC144A13791B06F3D52B78134954
:103750000133282B28BF0023C95CDBB2C9B2D17169
:103760002B70E7E7FF28E5DDFEF746FFE2E70B4BAE
:10377000F6B21E550A4B01221A70074BE4B2AC2276
:103780003C70DA70F8BD00BF34800440588BFF1FD6
:103790005C8BFF1F578BFF1F00C00640EE8AFF1F88
:1037A000EC8AFF1F38B504464518AC4204D014F823
:1037B000010BFFF7ADFFF8E738BDFFFF08B5034B7E
:1037C0001B7813B1FEF718FFF9E708BDEC8AFF1F5D
:1037D000064A074B1B781078DBB2C0B283422CBF7D
:1037E000273000F1FF30C01A704700BF578BFF1F12
:1037F0005C8BFF1F054B1878054B1B78C0B2DBB202
:10380000984238BF4030C01A704700BF568BFF1F28
:10381000ED8AFF1F10B5104B10491A780B78D2B201
:10382000DBB29A4214D00133402B28BF00230C484E
:10383000DCB2C05C0C700B490968C0B251B19A424D
:1038400038BF4032D31A1A2B04DC00230B7010BD92
:103850004FF0FF3010BD00BF568BFF1FED8AFF1FDA
:10386000168BFF1FE88AFF1F084B1A78084B1B783E
:10387000DBB29A4207D00133402B28BF0023054A10
:10388000D05CC0B270474FF0FF307047568BFF1FBF
:10389000ED8AFF1F168BFF1F054B1A78054BD2B21E
:1038A0001A70054B1B680BB100221A70704700BFDD
:1038B000ED8AFF1F568BFF1FE88AFF1F10B5294BAB
:1038C0001A79920620D5284AD879137827490133E6
:1038D000402B097828BF00238B42C0B203D0244973
:1038E000C854D9B21170234A116869B1224A1278BA
:1038F000D2B2934236BFC2F14002C2EB03039B181F
:10390000272BC4BF01230B70164AD178C9B20C060D
:1039100016D51379180613D5184B17481C78037859
:10392000DBB29C4202D16C23D37009E00133282B17
:1039300028BF0023124CE45CDBB2E4B2D471037004
:103940004B060ED5074B1A7912F0400F194608D0D6
:103950000C4B00221A700C4B1B6803B11A702C23FD
:10396000CB7010BD00C00640568BFF1FED8AFF1FB5
:10397000168BFF1FE88AFF1F578BFF1F5C8BFF1FF3
:10398000EE8AFF1FEC8AFF1F588BFF1F1FB572B610
:10399000154B70221A70154A412111700F2102F83F
:1039A000011C80221A701A781206FCD5104B186878
:1039B00062B6104B984298BF0A2301AC98BF584397
:1039C00021460A2200F0D6F90023E15C0A4A29B117
:1039D00002EB430001330A2B4180F6D101335B0037
:1039E000137004B010BD00BF000002400700024089
:1039F000080002407F9698004488FF1F08B50368BE
:103A0000C9B21B68984708BD08B50368C9B21B68EE
:103A1000984708BD08B50368C9B21B68984708BD38
:103A200008B50368C9B21B68984708BD034800EB96
:103A30005100B0FBF1F0FEF7A7BE00BF00449508AF
:103A400010B5064800EB51001446B0FBF1F0FEF74C
:103A50009BFE2046BDE81040FEF7FABE00449508E4
:103A6000FEF720BF0846FEF751BF0846FEF7A0BF8D
:103A700008461146FEF766BF08B50846FEF7BEFFCA
:103A8000003018BF012008BD08B50846FEF7D8FF72
:103A9000003018BF012008BDFFF7BCB8FFF7F4B82D
:103AA000FFF7C8B8FFF79AB8FFF706B9FFF7A0B855
:103AB00008B50846FEF7EAFF012008BD08B508462C
:103AC000FEF7E4FF012008BD10B508461446114674
:103AD000FFF726F8204610BD38B508460D4600F021
:103AE000A4F9044621462846FFF71AF8204638BDB7
:103AF0007047FFFF044B00221A714FF47A711A735A
:103B0000024A99601A607047608BFF1F784000007E
:103B100008B50368C9B21B68984708BD08B50368B3
:103B2000C9B21B68984708BD08B50368C9B21B68CD
:103B3000984708BD08B50368C9B21B68984708BD17
:103B4000034800EB5100B0FBF1F0FFF75DB900BF97
:103B50000044950810B5064800EB51001446B0FB30
:103B6000F1F0FFF751F92046BDE81040FFF7B0B97A
:103B700000449508FFF7D6B90846FFF72BBA084668
:103B8000FFF77ABA08461146FFF740BA08B508466B
:103B9000FFF79AFA003018BF012008BD08B50846A3
:103BA000FFF7B4FA003018BF012008BDFFF790BB43
:103BB000FFF7C8BBFFF79CBBFFF76EBBFFF7DABB95
:103BC000FFF774BB08B50846FFF7BEFA012008BD31
:103BD00008B50846FFF7B8FA012008BD10B5084639
:103BE00014461146FFF7FAFA204610BD38B50846CC
:103BF0000D4600F01AF9044621462846FFF7EEFA72
:103C0000204638BD7047FFFF044B00221A714FF465
:103C10007A711A73024A99601A607047708BFF1F9D
:103C2000D840000008B50368C9B21B68984708BDB2
:103C300008B50368C9B21B68984708BD08B5036892
:103C4000C9B21B68984708BD08B50368C9B21B68AC
:103C5000984708BD034800EB5100B0FBF1F0FFF7B7
:103C600031BC00BF00A24A0410B5064800EB510069
:103C70001446B0FBF1F0FFF725FC2046BDE81040EC
:103C8000FFF762BC00A24A04FFF788BC0846FFF7B2
:103C9000B9BC0846FFF7FABC08461146FFF7CEBC90
:103CA00008B50846FFF7F4FC003018BF012008BD36
:103CB00008B50846FFF70EFD003018BF012008BD0B
:103CC000FFF798BDFFF7D0BDFFF7A4BDFFF776BDA6
:103CD000FFF7E2BDFFF77CBD08B50846FFF718FD0A
:103CE000012008BD08B50846FFF712FD012008BDF8
:103CF00010B5084614461146FFF754FD204610BD86
:103D000038B508460D4600F090F80446214628468E
:103D1000FFF748FD204638BD7047FFFF044B0022E7
:103D20001A714FF47A711A73024A99601A607047D7
:103D3000808BFF1F38410000FEF774BBFEF728BBE5
:103D4000FEF750BBFEF712BC0846FEF703BC084660
:103D50001146FEF78DBB7047044B00221A714FF4D9
:103D60007A711A73024A99601A607047908BFF1F2C
:103D70009841000010B50023B0FBF2F402FB1400E0
:103D8000092894BF30303730C0B2C85420460CB137
:103D90000133F1E7CA18547022469A4206DA885C69
:103DA000CC5C8C54C8540132013BF6E7084610BD88
:103DB00070B50E4B0E4DED1AAD1000241E46AC42F0
:103DC00004D056F8242090470134F8E700F0F0F9C9
:103DD000084D094BED1AAD1000241E46AC4204D02C
:103DE00056F8242090470134F8E770BDBC4100002C
:103DF000BC410000D0410000BC41000030B50023B0
:103E0000934208D0C55C0133CC1814F8014CA5428C
:103E1000F6D0281B30BD002030BD034611F8012B21
:103E200003F8012B002AF9D17047034613F8012B40
:103E3000002AFBD1181A0138704702000300040061
:103E40000500060008000A000C001000140018000D
:103E5000200028003800400060008000C000000101
:103E60008001000280020003000000800000018049
:103E700000000000000002800000010001100000AE
:103E800000000200011001000320000001000200F8
:103E9000032001000430000003200200032003007F
:103EA00005400000054001000650000006500100DA
:103EB0000760000007600100087000000760020052
:103EC000087001006FF07F030370037813F0800F18
:103ED000FBD070474008FE4340A004404408FE4326
:103EE00044A004400018FE4300C004403000FE43DC
:103EF000309004403400FE43349004401C18FE43CC
:103F00001CC004401018FE4310C004400818FE43B3
:103F100008C004400C18FE430CC004400C10FE43C3
:103F20000CB004401010FE4310B004401810FE43C3
:103F300018B004401C10FE431CB004401410FE4393
:103F400014B004400418FE4304C004400010FE43B3
:103F500000B004400008FE4300A004400408FE43F3
:103F600004A004400C08FE430CA004400808FE43D3
:103F700008A004401418FE4314C004401818FE435F
:103F800018C004400410FE4304B004400810FE436F
:103F900008B004401400FE43149004404C08FE4353
:103FA0004CA004400420FE4304D004402410FE43EF
:103FB00024B004402010FE4320B004402810FE43EB
:103FC00028B004402C10FE432CB004400020FE43D7
:103FD00000D004404808FE4348A004401000FE43BF
:103FE0001090044015191519000100006A87FF1F81
:103FF00012000000000200009487FF1F490000002B
:1040000000220100DD87FF1F2100000000210100C8
:10401000C687FF1F0900000000220000FE87FF1F67
:104020001C00000000210000A687FF1F09000000FF
:10403000000300004088FF1F000000000103090486
:104040007C87FF1F00000000020309041A88FF1F7D
:1040500000000000030309044488FF1F0000000063
:10406000000000000000000000000000FFFFFFFF54
:104070000000000000000000B13A0000C93A000052
:10408000993A0000A13A00009D3A0000A53A0000CC
:104090002D3A0000413A0000613A0000653A000004
:1040A0006B3A0000713A0000793A0000893A00004A
:1040B000A93A0000AD3A0000FD390000093A0000BD
:1040C000153A0000213A0000D93A0000BD3A00003C
:1040D0000000000000000000C53B0000DD3B0000C8
:1040E000AD3B0000B53B0000B13B0000B93B000018
:1040F000413B0000553B0000753B0000793B000050
:104100007F3B0000853B00008D3B00009D3B000095
:10411000BD3B0000C13B0000113B00001D3B000007
:10412000293B0000353B0000ED3B0000D13B000087
:104130000000000000000000D93C0000F13C00003D
:10414000C13C0000C93C0000C53C0000CD3C000063
:10415000553C0000693C0000893C00008D3C00009B
:10416000933C0000993C0000A13C0000B13C0000E1
:10417000D13C0000D53C0000253C0000313C000053
:104180003D3C0000493C0000013D0000E53C0000D2
:104190000000000000000000493D00004F3D00000D
:1041A000393D00003D3D0000413D0000453D00001F
:1041B000F8B500BFF8BC08BC9E4670473504000047
:1041C000F53A0000093C00001D3D0000593D00008B
:1041D000FFFFFFFF0A0401090A08120101010000A4
:1041E0000040C016860400020102030118035400B7
:1041F000650065006E007300790064007500690059
:104200006E006F0009024900020100C0320904007B
:10421000000203000000092111010001221C000717
:104220000583034000010705040340000109040160
:1042300000020300000009211101000122210007F2
:104240000581034000010705020320000206C9FFA3
:104250000904A15C7508150026FF009540097581C9
:104260000295200976910295040976B102C006AB49
:10427000FF0A0002A1017508150026FF00954009FC
:10428000018102954009029102C026035400650095
:1042900065006E00730079006400750069006E00AF
:1042A0006F00200052006100770048004900440080
:1042B000040309040C0300000000000000000000DB
:0C42C000000000000000000000000000F2
:00000001FF
