:1000000000800020BD0100002D280000F92700001D
:10001000F9270000F9270000F9270000F927000060
:10002000F9270000F9270000F92700002D2800001B
:100030002D280000F92700002D280000E9270000E6
:100040002D2800002D2800002D2800002D2800005C
:100050002D2800002D2800002D2800002D2800004C
:100060002D2800002D2800002D2800002D2800003C
:100070002D2800002D2800002D2800002D2800002C
:100080002D2800002D2800002D2800002D2800001C
:100090002D2800002D2800002D2800002D2800000C
:1000A0002D2800002D2800002D2800002D280000FC
:1000B0002D2800002D2800002D2800002D280000EC
:1000C0002D2800002D2800002D2800002D280000DC
:1000D0002D2800002D2800002D2800002D280000CC
:1000E0002D2800002D2800002D2800002D280000BC
:1000F0002D280000392E00002D280000913400002A
:100100002D280000413900002D2800002D28000076
:100110002D2800002D2800002D2800002D2800008B
:100120002D2800002D2800002D2800002D2800007B
:100130002D2800002D2800002D2800002D2800006B
:100140002D2800002D2800002D2800002D2800005B
:100150002D2800002D2800002D2800002D2800004B
:100160002D280000591B00002D2800002D2800001C
:100170002D2800002D2800002D2800002D2800002B
:100180002D2800002D2800002D2800002D2800001B
:100190002D2800002D2800002D2800002D2800000B
:1001A0002D2800002D2800002D2800002D280000FB
:1001B0002D2800002D2800002D280000564B4CF261
:1001C000205210B51A804DF628121A8000BF00BFC9
:1001D00002F030FB514B4FF010621A60504A9A60A7
:1001E000504ADA60A3F53043203B1A6812F480725B
:1001F00004D14D490A604FF4A8521A604B4B1A784B
:10020000110703D51A7842F008021A70484B2A22C7
:100210001A700023474A48499818884204D247492F
:10022000595899500433F5E7454A464B9A424FF0E6
:10023000000302D242F8043BF7E74349434A5958C6
:1002400099500433B3F5DE7FF7D1414B802103F899
:10025000011B40498B42F9D13F4B1A603F4B0A22A8
:100260001A70A3F5805324225A70A0221A709A792A
:100270009207FCD59A79D406FCD4394B9A7902F0CE
:100280000C02082AF9D103221A7140225A719A7974
:100290009006FCD5324B9A795106FBD5314A32494A
:1002A00011600221516020221A702D4B9B7903F0BE
:1002B0000C030C2BF9D12D4B2D4A1A602D4B2E4AD5
:1002C0001A6000225A60072243F8042C2B4AC3F814
:1002D0000C2D62B601F028FB134B1B68DA0705D51D
:1002E000274801F07FFA274B274A1A60274B1B78D3
:1002F0005B0609D5234C244A2368934204D1204845
:1003000001F070FA0023236003F052FD02F098FA26
:1003100002F02DF9FEE700BF0E20054030800440BA
:10032000823F04000100002B14D0034002D007409C
:1003300000E007406087FF1FC488FF1F144F0000C4
:10034000C488FF1F1C8CFF1F000000000082FF1FDD
:1003500000E400E05FE400E008ED00E0005006404B
:100360000040064044800440000003010480044033
:10037000C010050014E000E0FF760100000020201E
:10038000EBCB02571CE00340A5C3945A00F0074092
:10039000FFFFFFFFFFFFFFFFFFFFFFFFFFFFFFFF6D
:1003A000FFFFFFFFFFFFFFFFFFFFFFFFFFFFFFFF5D
:1003B000FFFFFFFFFFFFFFFFFFFFFFFFFFFFFFFF4D
:1003C000FFFFFFFFFFFFFFFFFFFFFFFFFFFFFFFF3D
:1003D000FFFFFFFFFFFFFFFFFFFFFFFFFFFFFFFF2D
:1003E000FFFFFFFFFFFFFFFFFFFFFFFFFFFFFFFF1D
:1003F000FFFFFFFFFFFFFFFFFFFFFFFFFFFFFFFF0D
:10040000FFFFFFFFFFFFFFFFFFFFFFFFFEFFFFFFFD
:1004100010B5054C237833B9044B13B10448AFF33E
:1004200000800123237010BDC488FF1F000000005E
:10043000144F000008B5064B1BB106480649AFF340
:1004400000800648036813B1054B03B1984708BD07
:1004500000000000144F0000C888FF1FC488FF1F61
:100460000000000008B501F009F90620BDE80840C9
:1004700000F0D0BD014800F0B5B900BFE088FF1F13
:10048000642101F007BF10B5642190B0044601F06B
:1004900001FF002802DC4FF0FF300EE068466421C7
:1004A00001F0CAFE0028F6DD20466946402203F02E
:1004B000A5FC003018BF0120404210B010BD2DE94E
:1004C000F043D0F8023095B0044693FA83F84FF425
:1004D000FA7101F0B1FE00283CDB04A8214603F0CC
:1004E0005FFD04A800F0B4FE10B104A800F0EDFE1A
:1004F0002046FFF7C5FF04A84146002200F0F0FEA9
:1005000040B3684604A900F023FEDDF80090029D88
:10051000B9F1000F1ED000264645204618D24FF4F0
:10052000FA7101F089FE002814DB019F05F14003F8
:10053000BB4203D9BD4209D27F1B00E0402705EB37
:10054000090021463A4600F0AFFB3D444036E3E760
:10055000FFF796FF15B0BDE8F083F0B54FF4FA71E0
:1005600095B0044601F068FE002834DB2046FFF712
:1005700087FF00282FDB04A8214603F011FD04A803
:1005800000F066FE08B1012300E0022323706846F4
:1005900004A900F0DDFD019F3BBAC4F801302046FC
:1005A000FFF771FFB8B9054605F14003BB4203D917
:1005B000BD4210D27E1B00E0402600982146284410
:1005C000324600F089FA35442EB12046FFF75BFF32
:1005D00008B9002EE8DC15B0F0BDFFFF70B5164B72
:1005E000002292B004461A8002A8402101AA00F01D
:1005F0005BFFD8B101232370019B1BBAC4F8013003
:100600002046FFF740FFA8B902AD224612AE2B46A6
:1006100003CBB342106051601D4602F10802F6D1CF
:100620002046FFF730FF0028DED003E02070204690
:10063000FFF729FF12B070BD2089FF1F10B564219C
:1006400090B0044601F0F8FD002812DB6846214610
:1006500003F0A6FC684600F0FBFD28B1684600F0F8
:1006600034FE0123237000E020702046642101F055
:1006700011FE10B010BD10B5044600F035FC80F03E
:100680000100207064212046BDE8104001F002BE48
:1006900038B50546012305F8083B0446284600F016
:1006A0006BFB284600F0A4FC00BAC4F8010004F17A
:1006B000100000F069FC20466421BDE8384001F0DC
:1006C000E9BDFFFF022330B503704FF400631BBA8E
:1006D000C0F801301D4B1ABA02611BBA43611C4BB2
:1006E0001BBA83611B4B1BBAC3611B4B41221A709F
:1006F0001A4A0E2313701A4B8021197014461A7867
:100700001506FCD51749184A0B7880F83A3013784B
:1007100080F83B30154B1D7880F83C500F25257034
:100720000F4C802525700E4C24782406FBD50978C3
:1007300080F83D10127880F83E201B7880F83F301A
:100740006421BDE8304001F0A5BD00BF00D8B80568
:10075000006CDC0200366E01070002400600024019
:10076000000002400A000240090002400800024066
:1007700038B505464FF400631BBAC0F80130FFF7E7
:1007800082FE68B9044628462146402200F0ACFFAC
:100790002846FFF778FE18B94034B4F5006FF2D15F
:1007A00038BD38B504464FF400631BBAC0F80130B9
:1007B000FFF769FEA8B9054620464FF4FA7101F02B
:1007C0003BFD00280DDB294620464022403500F045
:1007D000AFFFB5F5006FEFD12046BDE83840FFF719
:1007E0004FBE38BD70B50021044601F025FD00283C
:1007F0004FDD204625786678FFF742FE002848DB6B
:10080000FD2E31D0FE2E3DD0002E42D1032D1CD026
:1008100007D8012D0FD013D82046BDE87040FFF750
:100820004EBE092D16D0632D19D0042D31D1BDE84F
:10083000704000F0D1BA2046BDE87040FFF78DBE91
:100840002046BDE87040FFF7C9BE2046BDE87040B5
:10085000FFF7F4BE2046BDE87040FFF719BF204601
:10086000BDE87040FFF707BF15B1012D05D070BD81
:100870002046BDE87040FFF794BF2046BDE87040B9
:10088000FFF776BF092D04D12046BDE87040FFF781
:1008900019BF70BD002AF0B50CBF4FF064524FF085
:1008A000605200240F4E104FA65B104D97FBF6F6DA
:1008B000B14255F8145004D3190706D542F08062AE
:1008C00003E002342E2CEDD1F6E75B0707D525F4C3
:1008D000704305F4704542F0007243EA15152A434F
:1008E0000260F0BDE64A0000006CDC02144B000020
:1008F00010B50446FFF7CEFF204610BD10B5184BCB
:100900001A7802B372B61B78D90707D5154A16496B
:10091000146809682140154C216011609A0707D5B9
:10092000134A1149146849682140104C61601160F4
:100930005B0707D50F4B0C4A196892680A400B49B0
:100940008A601A6062B60C4BDA68824207D00B4AA2
:100950001A60D8600A4A40F0804018611A6010BDE1
:100960004489FF1F80E100E02C89FF1F3889FF1FA9
:1009700084E100E088E100E000C0024001401F0087
:1009800000001F80054B4FF00042DA625863DA6ABC
:10099000002AFCDA014B986BC0B2704700C00240DD
:1009A000064B4FF0004240F08050DA625863DA6A3A
:1009B000002AFCDA014B986B80B2704700C00240FD
:1009C000F0B541B3144B02781C6844F480641C6099
:1009D0004FF00044DC625A630C460246013C0E4D67
:1009E00005D05678EF6A0C4B002FFBDA04E0013992
:1009F000EB6A002BFCDA0BE09D6B1F6847F4806705
:100A00001F604FF00047DF625E6302F8015BE5E7BD
:100A1000014B9B6B4354F0BD00C002400A4B1B7856
:100A20008BB1D90703D5094A1168094A11609A07A1
:100A300003D5064A5168074A11605B0703D5034B8B
:100A40009A68054B1A6070474489FF1F3889FF1F59
:100A500000E100E004E100E008E100E073B50023FC
:100A60001949012201A8FFF743FF0198FFF746FF4C
:100A7000164B1C68164B1B78012503F0020384F803
:100A8000005103F0FF068BB17020FFF77BFF0020C1
:100A9000FFF778FF84F880500646FFF7BFFF320665
:100AA000DDD50C4B00221A7002B070BD0520FFF797
:100AB00069FF3046FFF766FF84F880500646FFF76F
:100AC000ADFFF307CBD4ECE780F0FA022489FF1FD7
:100AD0002289FF1F2389FF1F2DE9F04F064685B0AD
:100AE00008468946DFF8BCA10021174600F09CFDAE
:100AF000002369499AF80080012203A8FFF7F8FE55
:100B00000398FFF7FBFE654B1D789B46002D6BD0CD
:100B1000634B1C68012384F800319AF8003003F01D
:100B2000020303F0FF0A4BB17020FFF72BFF0020F8
:100B3000FFF728FF000609D5002507E00520FFF78D
:100B400021FF5046FFF71EFFC107F5D54FF0010A00
:100B500084F880A015B98BF8005045E0022D35D8F7
:100B600084F800A10620FFF70DFF84F880A0202361
:100B7000013B7FF4FDAF18F0040F04D0012D0CBF32
:100B80008520752000E075204FF0010B84F800B13E
:100B9000FFF7F8FE18F0020F84F880B084F800B177
:100BA00008D07020FFF7EEFE0020FFF7EBFE0206F4
:100BB000FAD507E00520FFF7E5FE0020FFF7E2FE8B
:100BC000C307FAD4012384F880300DE0FFF726FF35
:100BD000FFF744FF30495246002303A8FFF788FE81
:100BE0000398FFF78BFE002518F0080F0AD0F319C1
:100BF000013B734013F07E4F04D026F07E43C3F1D7
:100C0000007A00E0BA46264B1C68012218F0010F5A
:100C100084F800211FFA86FB4FEA164206D0032013
:100C20000192FFF7AFFE019A104602E0D0B240F405
:100C30004070FFF7B5FE5846FFF7B2FE48465146F2
:100C4000FFF7BEFE4FF0010BB7EB0A0784F880B048
:100C5000D1445644C8D1D5B184F800B10620FFF77D
:100C600091FE84F880B02023013B7FF4FDAF18F0A3
:100C7000040F04D05D450CBF8A207A2000E07A2062
:100C8000012584F80051FFF77DFE84F88050FFF7BE
:100C9000C5FE05B0BDE8F08F80F0FA022389FF1F82
:100CA0002489FF1F2289FF1F2DE9F74F04460F46B5
:100CB0001546DFF8C0A09AF800300BB1FFF7CEFE62
:100CC00029490122002301A8FFF712FE0198FFF72E
:100CD00015FE264B1E684FF0010986F8009106208C
:100CE000FFF750FE224B86F880905FFA84F81B785D
:100CF00086F80091C8F58078A84528BFA84613F06B
:100D0000010F4FEA144B1FFA84F904D00220FFF7B9
:100D100039FE584603E05FFA8BF040F40070FFF7AD
:100D20003FFE4846FFF73CFE4444C8EB0505202340
:100D3000013B7FF4FDAFB94619F8010BFFF722FE26
:100D4000C9EB07034344002BF6D1012386F880301A
:100D5000042347448AF80030FFF760FE002DA8D135
:100D600003B0BDE8F08F00BF80F0FA022489FF1FB6
:100D70002289FF1F2389FF1F73B5144B1B7804467C
:100D80000BB1FFF76BFE12490122002301A8FFF708
:100D9000AFFD0198FFF7B2FD0E4B1D68012685F8E7
:100DA00000619F20FFF7EEFD0020FFF7EBFD2070B4
:100DB0000020FFF7E7FD60700020FFF7E3FDA07063
:100DC00085F88060FFF72AFE02B070BD2389FF1FFF
:100DD00080F0FA022489FF1F2DE9F74F3E4B1A7865
:100DE00098460AB1FFF73AFE6846FFF7C5FF9DF83F
:100DF00000A0BAF1200F48D19DF80230A3F12002E3
:100E0000022A42D8354C2278212B4FEAA2170CBF78
:100E1000042102215FFA87F902F03F02894522701E
:100E200056D2222B2E494FF001024FF0000301A8A9
:100E30000CBF4FF0080B4FF0020BFFF759FD019864
:100E4000FFF75CFD274B1D68012685F80061062031
:100E5000FFF798FD85F88060BAF1010A7FF4FCAFD6
:100E6000C42085F80061FFF78DFD09FB0BF000023F
:100E7000FFF796FD0020FFF793FD237885F880604B
:100E8000374443EA871727701FE0154901220023E2
:100E900001A8FFF72DFD0198FFF730FD114B1C68ED
:100EA000012584F800510620FFF76CFD84F880507E
:100EB0002023013B7FF4FDAFC72084F80051FFF7EA
:100EC00061FD84F88050FFF7A9FD032388F8003006
:100ED00003B0BDE8F08F00BF2389FF1F2289FF1FE9
:100EE00080F0FA022489FF1F2DE9F341224B1A7882
:100EF0001E460AB901203CE020490122002301A836
:100F0000FFF7F6FC0198FFF7F9FC1D491D4B0A7825
:100F10001C68012502F0020284F8005102F0FF086B
:100F20000F46BAB17020FFF72DFD0020FFF72AFD14
:100F300084F880508046FFF771FD18F0800F17D0BD
:100F40003B78002413F0C00F3470D3D0FFF744FF78
:100F500020460EE00520FFF715FD4046FFF712FD85
:100F600084F880508046FFF759FD18F0010FE7D054
:100F7000002002B0BDE8F0812389FF1F80F0FA0253
:100F80002289FF1F2489FF1F73B5164B1B78064665
:100F90000BB1FFF763FD14490122002301A8FFF7FD
:100FA000A7FC0198FFF7AAFC104B1D68012385F8E8
:100FB00000314B20FFF7E6FC0020FFF7F1FC00209A
:100FC000FFF7EEFC00240020FFF7DCFC3055013475
:100FD000082CF8D1012385F88030FFF71FFD02B0FF
:100FE00070BD00BF2389FF1F80F0FA022489FF1F14
:100FF0008078A0F110030F2B04D9A0F12003052B5A
:1010000004D80638012303FA00F070474FF480102B
:101010007047FFFF344BF7B5344D53F830302B6039
:10102000334B012406461C7000F0B8FA21463046C6
:1010300000F008FC2B68684683F88040FFF79CFEB0
:101040006846FFF7D5FFB0F1807F074632D92949BE
:101050002246002301A8FFF74BFC0198FFF74EFC46
:101060009DF80060A64209D12C684FF4BC5084F86A
:101070000061FFF795FC84F8806012E02D6806207F
:1010800085F80041FFF77EFC85F880402023013B76
:101090007FF4FDAFB72085F80041FFF773FC85F8BA
:1010A0008040FFF7BBFC9DF80030202B0CBF0923CC
:1010B000012300E000239DF80020012A05D1B7F1AB
:1010C000806F07D343F0140306E0202A04D143F0D5
:1010D000020301E043F00403074A68461370FFF778
:1010E0004BFE012003B0F0BD804B00002489FF1FA0
:1010F0002889FF1F80F0FA022289FF1F13B50822FA
:1011000000206946FFF7E8FC0F4C009BA34217D074
:10111000013301D0002014E00C4B009400206946FC
:1011200008220193FFF7C0FDFFF7DEFE0028FBD089
:10113000002069460822FFF7CFFC009BA342E9D1BB
:10114000019802B010BD00BF4C5596FA5802F6182F
:101150002DE9F04F002391B0036004468A46FFF763
:10116000CDFF00286BD0384B87B20AF1FF3212F85E
:10117000015F1DB15D40354B6B43F8E74FF6FE72E2
:10118000B3FBF2F102FB113301339BB2039307EB84
:1011900047030293BD4252D2C5EB0708B8F1080FCE
:1011A00028BF4FF00808281D0DF1200B40005946BC
:1011B0004FEA4802FFF790FC002646453DD03BF839
:1011C0001630039A934232D1002306EB05090793A8
:1011D000381D09EB890318440A22400005A9FFF7CE
:1011E0007BFC079B029A023313449B00D4461846AB
:1011F00010220CA90193CDF800C0FFF76DFC019BF4
:10120000DDF800C0103300220CA91CF8010B515C62
:10121000814210D119B10132102AF5D1E7E7059BBF
:101220002360069B6360A160A4F80C9007E04FF672
:10123000FF72934203D00136BFE73544AAE7204648
:1012400011B0BDE8F08F00BFC59D1C819301000166
:101250001FB501466846FFF77BFF0098003018BFB6
:10126000012005B05DF804FB036837B504460BB9EF
:10127000002527E08089043040000DF1060102229C
:10128000FFF72AFCA089BDF806300430DB4340009C
:101290000DF106010222ADF80630FFF705FDFFF75C
:1012A00023FE05460028FAD0A089043040000DF145
:1012B00006010222FFF710FCBDF80630002BD7D143
:1012C00023606360284603B030BD1FB50146684601
:1012D000FFF73EFF6846FFF7C7FF05B05DF804FB68
:1012E0002DE9F04F8DB0824689461646FFF7B0FFD4
:1012F000044608B10020CDE0FFF700FF8346002838
:10130000F8D085B204F10803AB428CBFC4EB0507EB
:101310000827201D0DF12008400041467A00FFF704
:10132000DBFB0023BB420BD038F813104FF6FF72E3
:10133000914203D11C44AC4206D3DBE70133F1E711
:101340001C44AC42DED3D5E70C236B43039303F17B
:10135000080734B94FEA1B4B4FEA0B4B07EB9B3B9B
:101360003BE005F10042013A04EB840150180023F0
:1013700005A90A22400007930193FFF7ADFB059AE8
:101380000699019B01EB020B079A07EB820C67465B
:101390004146102238460193CDF808C0FFF79CFB68
:1013A000019BDDF808C003F110011A460DF1200E73
:1013B000C3EB0E0E501C12F80EE0BEF1000F05D16B
:1013C0000CF1040C354F6244174006E0884201D00E
:1013D0000246EBE710370B46DAE76EB1731E09F1F0
:1013E000FF399B44B144BBFBF6FBB9FBF6F906FBA6
:1013F0000BFB06FB09F903E00BF1FF0B2BF0FF0BD6
:10140000504602F0D5FD06464046FFF7B5FC0BEB13
:10141000090340460193FFF7EBFD019B83423FF632
:1014200069AF38465146721CFFF73EFC039ACDF86F
:1014300014B06FF007039B1A3B449B0807930435D5
:1014400004EB8403E818400005A90A22CDF818909F
:10145000FFF72AFCFFF748FD0028FBD0104B0AF1EC
:10146000FF3111F8012F1AB153400E4A5343F8E7E8
:101470004FF6FE72B3FBF2F102FB1133201D013374
:10148000400005A902220593FFF70EFCFFF72CFD93
:101490000028FBD00DB0BDE8F08F00BFFCFF0300BB
:1014A000C59D1C81930100012DE9F047002388B000
:1014B000037006460D469146FFF720FE08B900204E
:1014C0005CE0304B1C8804F1040887B24FEA4808FE
:1014D0009A46BC42F3D2404602220DF10601FFF7C4
:1014E000FBFABDF8062008F10208631C0AB91C4685
:1014F000EFE7B81D04EB84042044AAF8003006226C
:101500000023400002A90393FFF7E6FA029A531C56
:10151000D5D0039CC9F80020023407EB47073C44B0
:1015200019491A48A40001F015F81848184922462C
:1015300001F010F8B046CDB1102D34BF2F46102762
:101540000DF11009204649463A46FFF7C5FA002337
:1015500019F8032008F8012B12B90C480D4909E0CD
:101560000133BB42F4D3ED1B3C44E4E707480A498E
:1015700008F8015C324600F0EDFF012008B0BDE83C
:10158000F08700BF2089FF1FA24A0000408AFF1F8A
:10159000B14A0000C14A0000CE4A0000164B1A684A
:1015A00042F480521A60154B154A1A60154ADA60E7
:1015B00002F180421A61144A1A60144B1B78DA0750
:1015C00055BF134A134A4FF410714FF4007113F0D2
:1015D000020F11600CBF104910495B074FF40072F5
:1015E00054BF0F4B0F4B0A6054BF4FF410724FF4AF
:1015F00000721A60704700BF3C80044000C0024087
:1016000001401F000110003800001F803D8AFF1FAD
:1016100018B0044008C004401CB004400CC0044092
:1016200014B0044004C0044001B5EAB1102A17DB2D
:1016300000F0070333B1C3F10803D21A013B00F8ED
:10164000011BFBDCC9B241EA012141EA01418C46A0
:10165000D308013BE0E8021CFBDC12F0070203D0D8
:10166000013A00F8011BFBDC01BD00BF024B1B78F7
:10167000DB07FBD5704700BF010002407FB5174B69
:101680006A4603F110056E4618685968144603C48B
:101690000833AB422246F7D1114B1A7812F0020FF1
:1016A0001D4612D080229A7133229A7203225A72F6
:1016B00072B60C4C46F001062046B04762B623785D
:1016C00013F0700301D0237006E044F621632A78FA
:1016D000D20701D4013BFAD104B070BD704B0000B9
:1016E000010002400000024070B5104B1B78DB0780
:1016F00005460C4601EB020601D4FFF7BFFFB6F525
:10170000006F34BF32464FF4006204F1A05303F17E
:101710006C41914208D213F8010B291B194401F1C5
:101720006C4101F8010CF2E770BD00BF01000240FE
:10173000B1F5006FF8B505460F4614460E464DD27A
:10174000274B1B78DB0701D4FFF798FFB4F5006F38
:1017500028BF4FF400643B19B3F5006F1ED3C7F5E3
:1017600000641BE016F003012A7806F1A05318D19B
:10177000032C18D9A9786878090441EA00210A43A2
:10178000E97842EA01621968914205F1040702D042
:101790001A60FFF76BFF0436043C3D46002CE1D194
:1017A0001CE002290FD1012C0DD0697842EA0122F8
:1017B0001988914205F1020702D01A80FFF756FFFF
:1017C0000236023CE9E71978914205F1010502D0A1
:1017D0001A70FFF74BFF0136013CDFE7F8BD00BF91
:1017E00001000240044B054900221A600A60044AC5
:1017F000106010221A60704714D0034004D00340D8
:1018000000D00340212810B518D80D4A52F83030C6
:1018100093F880423CB1012211B183F8802010BDC1
:1018200083F8002110BD02EBC00043681A6811B1B3
:1018300042F0030201E022F002021A6010BD00BF74
:10184000804B0000212810B537D81C4A02EBC0039A
:1018500001295B68144601D004290FD154F83020C7
:10186000012082F880024FF4A2721A601A680429DB
:101870000CBF42F0200222F020021DE052F830207E
:10188000002082F8800211B18A1E012A12D84FF47A
:10189000807202291A6003D11A6842F003020BE039
:1018A00003290AD11A6842F002021A601A6822F06B
:1018B000010201E040F203121A6010BD804B0000EB
:1018C00072B60B4B0B491A680B4B1B68096862B662
:1018D000490102D5322A88BF0133C2F5BB326021EB
:1018E000FF32B2FBF1F24FF47A7000FB0320704735
:1018F00018E000E004ED00E04889FF1F38B5044619
:10190000FFF7DEFF054624B938BD013C0AD005F5D6
:101910007A75FFF7D5FF401BB0F57A7FF5D200F05E
:101920004DFEF6E738BDFFFF1F4B4FF4000210B528
:101930001A604FF080721A604FF000721A604FF018
:1019400080621A604FF000621A60184B184A194CF6
:1019500000204BF6FF7118605960282313609360D4
:10196000136193611362936213639363092222608C
:1019700004F58054043420606160A360236144F85E
:10198000042C04F5FE2420600B4801600B490B6019
:101990008B600B4B1A6000F0CBFEFA20FFF7AEFF16
:1019A000BDE8104000F0C8BB08E100E0048003403F
:1019B0000C8003400080034008800B400C800B40EB
:1019C00000800B40F0B50C4B0C4C1A7842F002052D
:1019D00004EBC50682F00102706009481A700678AF
:1019E000002E0CBF8827C82786F0010647EA014170
:1019F000067044F83510F0BDB489FF1F0080FF1F4A
:101A00002C8AFF1F431E032B10B510D872B6094A4B
:101A100052F8230048B1416842F82310064A018871
:101A200032F81340611A22F8131062B610BD00207C
:101A300010BD00BFA489FF1F108CFF1F01380328B1
:101A40000AD872B6054B53F82030002013B101308C
:101A50005B68FBE762B6704700207047F889FF1F9C
:101A600010B572B60123174A1A4412F8012C120756
:101A70001CD59900144A52F831402CB902EB43139B
:101A800008305860114B09E041F0010152F8314033
:101A900064B902EBC103083058600D4B42F8313095
:101AA0000C4B1A78013A1A7062B610BD0133052B3F
:101AB000D9D162B6074B00221A70BDE8104000F081
:101AC00099BB00BFB04C00000080FF1F88004000A1
:101AD000C8004000228AFF1F431E032B30B532D8B6
:101AE000194A400140F01000104472B6174CE25CF5
:101AF000032A09D8DFE802F016021805083002228E
:101B000013E00830042210E01148124A50F8234034
:101B100014B940F8231002E052F82300416042F863
:101B200023100FE0032200E00522E25410F0080F1A
:101B300001F108030A8843600CBF8823C82343EAE5
:101B40000243036062B630BD0080FF1F6089FF1F43
:101B5000F889FF1F088AFF1F2DE9F84FA74F3C782F
:101B6000E4B214F0040F3D4619D0A54B1B78A3B185
:101B7000A44A117801F0FF0321B1013BDBB21370DD
:101B800003B900BEA04A117801F0FF0329B1013B5F
:101B9000DBB213700BB900F0BBFC04233B7004F004
:101BA000080303F0FF02002B00F05C82974B984C77
:101BB0001A78D2B215094FEA920840F0D98154F848
:101BC000382004EBC803C2F38302013A5B680C2A95
:101BD00000F2CB81DFE812F085018501C901C9015E
:101BE000C901C901C901C901A501C901C901C901C9
:101BF0000D00884D1A685B6887486B60874B44F816
:101C0000383001232A60DFF84082037092B240F23C
:101C1000816000218242C8F800102161A16117D8BB
:101C2000B2F5D06F80F01681B2F5817F00F0C780E9
:101C300006D8802A00F0B280822A00F0B38021E129
:101C400040F202339A4200F0C980B2F5A06F14E06E
:101C5000B2F5106F14D008D8B2F5086F40F01281B9
:101C6000674A6F4C1278227014E140F621139A42B1
:101C700000F0348140F621239A4200F0078101E10F
:101C80005F4B634EAA781A7006F18009336A1B060F
:101C900003D5706A083800F0ADFA08364E45F5D124
:101CA0000026B146DFF8A4A156F80A0028B1D0F802
:101CB00004B000F09FFA5846F8E74AF80600594B7E
:101CC000DFF88CA1F05056F80A0028B1D0F804B023
:101CD00000F090FA5846F8E7534B4AF80600F050E7
:101CE000524B23F81900524B19F80320023A032AE9
:101CF00008D8DFE802F002040204002200E001221A
:101D000003F8092009F10109B9F1040F06F10406ED
:101D1000C8D1484B00221A7001269A46464A474BC2
:101D20003244334412F8012C9B0012F0080F1A7051
:101D30004FEA860925D000F03FFA38B104EB46138C
:101D4000083058603E4B44F8393006E09AF80030CD
:101D500044F8390001338AF8003000F02DFA49F0D8
:101D6000010338B104EBC302083050602B4A44F839
:101D7000332006E044F833009AF8003001338AF843
:101D8000003049F00202013649F003090023052E14
:101D900044F8323044F83930C0D178E0204C21701A
:101DA000617076E0AA88042A6CD81D4C217061709D
:101DB0009100244A525C96076BD5237069E0AA888B
:101DC00002F07F02042A5DDC6B88002B5AD191005F
:101DD0001C4A0A44117821F002010DE0AA8802F0A1
:101DE0007F02042A4EDC6B88002B4BD19100154AF0
:101DF0000A44117841F00201117048E08020074048
:101E00002B8AFF1FB589FF1F3C8AFF1F90200740C8
:101E10000080FF1F188AFF1F2C8AFF1FC800400088
:101E2000238AFF1F5089FF1F088AFF1F108CFF1F86
:101E30006089FF1F228AFF1FB04C000030C80110CC
:101E400088004000C02007404C89FF1FA489FF1F65
:101E5000F889FF1F6A88A9889E4B53F8084CA3F1A4
:101E60000C007CB133F80C6C964209D133F80A6C43
:101E70008E4205D1120A032A0CBF2378038909E098
:101E80000C33EAE7944B0F221A7027E000231C461C
:101E900000E00223EE88B34238BF1E46402E34BF16
:101EA0003546402520462946FFF78CFD761B2C44FD
:101EB00003D1402D12D1354603E0402E34BF3546C4
:101EC000402520462946FFF77DFD761B2C4401D195
:101ED000402D03D1814AC8F8004016800122804B72
:101EE00042E0804A80481168814216D151687F4A99
:101EF000914212D11A78A92A0FD15A78452A0CD1C9
:101F00009A78C22A09D1DB786B2B06D1784B002056
:101F1000052201461A70FFF755FD764B44F838301C
:101F200023E0754E3568B5B1DFF8B081B8F80090A0
:101F3000B9F1400F34BF4C46402428462146FFF7F4
:101F400041FDC4EB09039BB2A8F800300BB9402C4B
:101F500000D12B193360634B1A88B2F5A06F04D1FE
:101F600000225A709A78654B1A7001225C4B6CE023
:101F700004EBC806013D736802F00802A3F10800F3
:101F8000EDB202F0FF01002A36D000F033F95C48D0
:101F90005C4B50F82520EAB1516840F8251002F159
:101FA00008017160595D03290BD8DFE801F00204D4
:101FB0000608032104E0022102E0052100E00421DB
:101FC000595516F0080F12880CBF8823C82343EA1E
:101FD000024342E05A5D032A07D8DFE802F040409E
:101FE0000204002206E0012204E016F0080F0CBFF4
:101FF000022203225A5532E054F83820120C23F8FA
:10200000082C22B3DFF82CE123F8061C43F8041C4B
:102010005EF825303C4913B94EF8250002E051F82E
:1020200025305860394B41F8250033F815100A4423
:1020300023F8152000F0C0F810B10830706006E0F9
:10204000334B44F838001A7801321A7007E0294BF4
:10205000304A16F0080F08BF134644F838300823FA
:102060003B707BE5E0071FD51D492A482A4C022317
:102070000B702A4B1A702A4B186098602948D86058
:102080001A619A615C60144B0D2018702648FF237A
:1020900003702B700274254A1370254B9F221A700F
:1020A00001230B70BDE8F88F210604D50A4B0D22E1
:1020B0001A7080232B70A20705D51B4B1A78D2B259
:1020C0001A7002232B70E30644BF10232B70BDE867
:1020D000F88F00BFC04C0000C0200740208AFF1FBF
:1020E00094200740188AFF1F210900030100040003
:1020F000B589FF1FC80040004C89FF1F982007408A
:10210000F889FF1F6089FF1F5089FF1F108CFF1F78
:10211000228AFF1F880040006489FF1FB489FF1FC7
:102120000080FF1FB889FF1F882007408C200740D0
:1021300084200740A489FF1F08B501F069FC002234
:102140001A4B0021D15098180832882A4160F7D1E3
:10215000174A106840F48020106002F52832683277
:10216000C3F307201070C3F307401B0E10751376DE
:10217000FF2302F81C3C02F8143C02F88C3C0123BB
:1021800002F8083C82F8641002F8183C094B7022EF
:102190006FF450711A700B444FF400721A6003F11F
:1021A000C04303F5C82310221A7008BD0080FF1F2A
:1021B0003480044049E400E072B60C4A1168B1FA78
:1021C00081F30B2B02D962B6002070474FF000401C
:1021D000D84021EA0001116062B605494822534304
:1021E000C8180022CA504260704700BF6087FF1FB6
:1021F0000084FF1F0C4B4822C31AB3FBF2F30B2BD6
:1022000011D80A4A127822B1094A12780AB1FFF7A6
:1022100027BC72B6074A4FF0004121FA03F3116858
:102220001943116062B670470084FF1F228AFF1FA6
:102230002B8AFF1F6087FF1FF8B5144B1E680546E9
:102240000C461F46124B1B78D3B10420FFF7DAFB74
:1022500038B93B689B1BA34216D8A4B100F0AEF975
:10226000F0E700F108032A4600F1480153F8044B57
:1022700042F8044B8B42F9D1FFF7BCFF4020F8BD78
:102280004FF0FF30F8BD2046F8BD00BF4889FF1F62
:102290002B8AFF1FF8B5154B1D6804460E461F46D6
:1022A0000320FFF7CBFB072806D93B685B1BB34233
:1022B0001AD800F083F9F3E7FFF77EFF0346002802
:1022C000F3D0204603F1080204F1400150F8044B1A
:1022D00042F8044B8842F9D140241C80032019465F
:1022E000FFF7FAFB2046F8BD0020F8BD4889FF1F24
:1022F00038B5124B1B78EBB1114C23681BB9022087
:10230000FFF780FB206020680D4D98B14388C2180C
:10231000147A5CB102880133934204D3FFF76AFF59
:1023200000232B6000E04380204638BDFFF762FFAA
:102330002C60DEE74FF0FF3038BD00BF2B8AFF1F57
:10234000388AFF1F10B50D4B1B788BB10C4C2368DE
:102350001BB90220FFF756FB2060206840B143887C
:1023600003441C7A3CB9FFF745FF054B1C60EAE7C4
:102370004FF0FF3010BD204610BD00BF2B8AFF1F5D
:10238000388AFF1F38B5104D2B6823B12868002408
:10239000028843880FE00D4B1B781BB10220FFF72A
:1023A00031FB28602C68002CF0D10BE0C1182144CF
:1023B000097A19B10134E1189142F7DB14B9FFF73A
:1023C00019FF2C60204638BD388AFF1F2B8AFF1F5B
:1023D0002DE9F843324D012307460C462B70002CA3
:1023E0005AD0304E3368B1465BBB44F2D9582E4BBD
:1023F0001B7803F0FF020BB92A7018E00120FFF7E9
:102400001DFB052804D9B8F10108284A09D10AE0C2
:1024100001232B70FFF7D0FEC9F800000028F2D08E
:102420000FE013783BB10123137000232B704FF0A2
:10243000FF30BDE8F8832B7000F0C0F801232B704B
:10244000D5E73168194A488800231370C0F140026B
:10245000944238BF224600F1080C10448C44488056
:10246000A41A934204D0F85C0CF803000133F8E797
:102470001F444B883F2B0E4B02D805221A70AEE743
:1024800040220A804FF00008012083F80080FFF707
:1024900023FBC6F80080A2E72C702046BDE8F88335
:1024A0002D8AFF1F308AFF1F2B8AFF1F348AFF1FD0
:1024B0003C8AFF1F07B502AB012103F8010D184646
:1024C000FFF786FF03B05DF804FBFFFF10B50D4B6F
:1024D0001B78B3B10C4B19681C4691B14B8883B182
:1024E0000A4A002010703F2B04DCCA18002010722A
:1024F0000133F8E740230B800120FFF7EDFA0023BA
:10250000236010BD2B8AFF1F308AFF1F3C8AFF1FEC
:1025100010B50B4B1B788BB90A4A11684B881446CF
:102520003F2B04DCCA18002010720133F8E7402367
:102530000B800120FFF7D0FA0023236010BD00BFFD
:102540002D8AFF1F308AFF1F08B503685B68984714
:10255000002008BD0EB403B503AA52F8041B019273
:1025600001F05EFD02B05DF804EB03B0704708B502
:10257000FDF778FFFDF77EFF00F020F8FAE7FFF7A0
:1025800001BFFFF7B5BEFFF7DDBEFFF79FBF0846EF
:10259000FFF790BF08461146FFF71ABF7047FFFFCD
:1025A000044B00221A714FF47A711A73024A99602F
:1025B0001A607047408AFF1F984C000010B50E4CFF
:1025C0002378BBB901232370FFF7DCFE08B1FFF7C6
:1025D000E5FF00F0BBFB08B101F0CAFA00F0E2FE33
:1025E00008B101F04DFB01F047F908B101F0D0FB53
:1025F0000023237010BD00BF508AFF1F844641EAAC
:10260000000313F003036DD1403A41D351F8043B6A
:1026100040F8043B51F8043B40F8043B51F8043BBC
:1026200040F8043B51F8043B40F8043B51F8043BAC
:1026300040F8043B51F8043B40F8043B51F8043B9C
:1026400040F8043B51F8043B40F8043B51F8043B8C
:1026500040F8043B51F8043B40F8043B51F8043B7C
:1026600040F8043B51F8043B40F8043B51F8043B6C
:1026700040F8043B51F8043B40F8043B51F8043B5C
:1026800040F8043B51F8043B40F8043B403ABDD2CB
:10269000303211D351F8043B40F8043B51F8043B6D
:1026A00040F8043B51F8043B40F8043B51F8043B2C
:1026B00040F8043B103AEDD20C3205D351F8043BFC
:1026C00040F8043B043AF9D2043208D0D2071CBFC8
:1026D00011F8013B00F8013B01D30B8803806046F1
:1026E000704700BF082A13D38B078DD010F0030367
:1026F0008AD0C3F10403D21ADB071CBF11F8013BD7
:1027000000F8013B80D331F8023B20F8023B7BE725
:10271000043AD9D3013A11F8013B00F8013BF9D250
:102720000B7803704B7843708B78837060467047EA
:1027300010B5204B2048214960221A70E1225A70BE
:102740001F4B204A1C78204B082C01D1012402E0A9
:102750000A2C03D139240460132005E00C2C0CBF93
:1027600035243D2404601220086014601860174B63
:1027700017491B78174A03B101230B601360164BEE
:10278000164A1978164B012901D880210BE004293B
:1027900001D8842107E0082901D8852103E0102908
:1027A00094BF86218721116019600E4B01221A7097
:1027B00010BD00BF0040074008B003400CB003400C
:1027C0006487FF1F08B00B400CB00B40528AFF1FFC
:1027D00020B0034020B00B406587FF1F24B00340AA
:1027E00024B00B40518AFF1F024B1A6801321A6055
:1027F000704700BF4889FF1F08B50B4C236858037A
:1028000001D5FFF7A9F92368590501D500F014FB9C
:1028100023681A0501D500F03BFE2368DB04ECD5E4
:1028200001F08EF8E9E700BF3480044008B5FFF7F7
:10283000E3FFFFFF014B10221A8070470020054084
:102840007047FFFF024A136818441060184670472B
:102850006887FF1F002070474FF0FF3070474FF030
:10286000FF307047EFF313839BB9EFF3108098B9F3
:10287000EFF3058323B10F2B04D9084A985C01E0DC
:102880004FF48070EFF311833BB1834238BF184699
:1028900070474FF0FF30704718467047F0E300E094
:1028A00010B50023B0FBF2F402FB1400092894BF1A
:1028B00030303730C0B2C85420460CB10133F1E794
:1028C000CA18547022469A4206DA885CCC5C8C5452
:1028D000C8540132013BF6E7084610BD234B1A6885
:1028E00042F480621A60224A00231370214A137056
:1028F000214A1370214A1370214A1370214B1B780F
:102900002BB1152B07D140F213321F4B02E01F4BA6
:1029100040F213321A601E4B1B78012B05D0052B99
:1029200007D14FF451721B4B02E01B4B4FF4517215
:102930001A601A4BC0F344321A70C0F347125A702F
:102940000221042200F01F0098729A70D9745A75FF
:1029500088221A743C22DA70114B40226FF44A71BB
:102960001A700B444FF400521A60704734800440D0
:10297000DB8AFF1F598AFF1FE48AFF1FDC8AFF1FC3
:10298000588AFF1F9A8AFF1F18C0044040A00440C5
:102990006C87FF1F1CC0044044A0044000A00640F8
:1029A0002DE400E0134A937800F0030103F0EC03F8
:1029B0000B43410748BF43F01003937000F00F032F
:1029C000042B0C4903D18B7943F040038B7153796D
:1029D000C20603F0EF03074A48BF43F010035371E8
:1029E0009379810603F0EF0348BF43F0100393711E
:1029F000704700BF00A0064008B5114B1B685B057F
:102A000000D408BD0F4B1A7802F0FF0312B1FFF794
:102A1000D5FDF7E70C4A4FF4005111600B4A0C4901
:102A2000D37040F203120A604A600A4A13700A4ADD
:102A300013700A4B1B680BB101221A7008BD00BF4E
:102A400034800440588AFF1F84E100E000A0064063
:102A500040A00440DB8AFF1F598AFF1F548AFF1FD2
:102A600038B50446094B1B7803F0FF05002BF9D15C
:102A700020460121FEF7E6FE20462946FEF7C2FE6B
:102A8000034B53F83420034B1A6038BD588AFF1F9C
:102A9000804B0000E08AFF1F0F4A137898421AD03B
:102AA0000E490968490515D5012B04D0052B05D120
:102AB00000210B4B01E00B4B00211960012805D0D0
:102AC000052807D14FF45171054B02E0054B4FF437
:102AD00051711960107070476C87FF1F348004407B
:102AE0001CC0044044A004400E4A1378984218D0F9
:102AF0000D490968490513D52BB1152B05D10B4B91
:102B00000021196001E00A490B6028B1152807D19E
:102B100040F21331054B02E0054B40F213311960CE
:102B2000107070479A8AFF1F3480044018C0044018
:102B300040A004400D4A38B5146814F480624FF088
:102B4000000410D021280A4D0AD80A4A012152F85F
:102B500030302B60FEF776FE2B681C70012038BDEC
:102B60002C60204638BD104638BD00BF348004407C
:102B7000548AFF1F804B00000E4B1B6813F48063C8
:102B800016D012280C4B03D140F202310B4A04E05C
:102B9000142809D10A4A40F2023111605A7B42F0EE
:102BA00001025A73012070475A7B02F0FE025A73E9
:102BB000002070473480044000A006400CA0044070
:102BC00014C00440F8B51D4B1B685A05064633D5A2
:102BD0001B4B1B680BB101221A701A4B1C78013475
:102BE000402C1F4628BF0024174D2B78A34218D134
:102BF000FFF738FE40280FDC144A13791B06F3D583
:102C00002B7813490133402B28BF0023C95CDBB26A
:102C1000C9B2D1712B70E7E7FF28E5DDFFF7CEFCE5
:102C2000E2E70B4BF6B21E550A4B01221A70074B16
:102C3000E4B2BC223C70DA70F8BD00BF34800440BE
:102C4000E08AFF1FE48AFF1FDC8AFF1F00A0064006
:102C50005A8AFF1F588AFF1F274B1B685A052DE908
:102C6000F04707468A4644D5244B1B680BB1012226
:102C70001A703D4607EB0A039D4237D2DFF8908079
:102C80001F4E98F8004096F800900134402C28BF61
:102C900000245FFA89F9A1451DD11A4BBC22DA70D4
:102CA000FFF7E0FD40280FDC164A13791B060FD50D
:102CB000337815490133402B28BF0023C95CDBB2B0
:102CC000C9B2D171337003E0FF2801DDFFF776FC54
:102CD00033784B45E4D00C4B15F8012B1A550B4BB0
:102CE0000122E4B21A7088F80040C3E7054BBC2209
:102CF000DA70BDE8F08700BF34800440E08AFF1F2F
:102D0000DC8AFF1F00A006405A8AFF1F588AFF1F57
:102D1000E48AFF1F08B5034B1B7813B1FFF74EFC85
:102D2000F9E708BD588AFF1F064A074B1B78107841
:102D3000DBB2C0B283422CBF3F3000F1FF30C01A7B
:102D4000704700BFDC8AFF1FE48AFF1F054B18781D
:102D5000054B1B78C0B2DBB2984238BF4030C01A76
:102D6000704700BFDB8AFF1F598AFF1F10B5104B49
:102D700010491A780B78D2B2DBB29A4214D00133E0
:102D8000402B28BF00230C48DCB2C05C0C700B4900
:102D90000968C0B251B19A4238BF4032D31A1A2BD7
:102DA00004DC00230B7010BD4FF0FF3010BD00BFDE
:102DB000DB8AFF1F598AFF1F9B8AFF1F548AFF1F50
:102DC000084B1A78084B1B78DBB29A4207D00133C4
:102DD000402B28BF0023054AD05CC0B270474FF09B
:102DE000FF307047DB8AFF1F598AFF1F9B8AFF1F36
:102DF0000C4B1B685B0514D50B4BDA7802F0CB0249
:102E0000DA7040225A74DA7842F03402DA70074BF2
:102E10001A78074BD2B21A70064B1B680BB100220E
:102E20001A7070473480044000A00640598AFF1F82
:102E3000DB8AFF1F548AFF1F30B5374B1A7912F017
:102E4000300F31D072B69A7D02F0FF0022B9DA79E4
:102E500040225A7462B627E062B6304A304913788D
:102E60000978DBB2C9B214462B4AD5795A1C402ADC
:102E700028BF00228A42EDB202D02A4B9D5413464D
:102E8000421E12F0FF00EFD1DAB22270264A126819
:102E900052B18B4236BFC1F14001C1EB03035B1855
:102EA000272BC4BF012313701B4BD978C9B20C0662
:102EB00020D51B7918061DD51C4B1D4A1D7813788B
:102EC000EDB2DBB21046AB420CD0134A0133402BBB
:102ED0001479184C28BF0023E45CE4B2D471127D4D
:102EE000072AF0D9DBB203700B4B1A79120644BFE4
:102EF0007C22DA704B060ED5074B1A7912F0400F80
:102F0000194608D00C4B00221A700C4B1B6803B1F9
:102F10001A703C23CB7030BD00A00640DB8AFF1F37
:102F2000598AFF1F9B8AFF1F548AFF1FE48AFF1FD5
:102F3000DC8AFF1F5A8AFF1F588AFF1FE08AFF1F83
:102F4000234B1A6842F400621A60224A002313706D
:102F5000214A1370214A1370214A1370214A1370B9
:102F6000214B1B78092B05D01A2B07D140F21332C5
:102F70001E4B02E01E4B40F213321A601D4B1B78B1
:102F80000A2B05D01F2B07D14FF451721A4B02E0C8
:102F90001A4B4FF451721A60194BC0F344321A7035
:102FA000C0F347125A7000F01F00042202219872E9
:102FB0009A70D9745A7588221A743C22DA70114BAF
:102FC00040221A70A3F22B334FF400421A6070476C
:102FD00034800440568BFF1FED8AFF1F5C8BFF1F60
:102FE000578BFF1FEC8AFF1F6D87FF1F04D0044023
:102FF0000CB004406E87FF1F00D0044010B00440A6
:1030000000B006402FE400E0134A937800F003017B
:1030100003F0EC030B43410748BF43F010039370E8
:1030200000F00F03042B0C4903D18B7943F04003CC
:103030008B715379C20603F0EF03074A48BF43F090
:10304000100353719379810603F0EF0348BF43F0F7
:1030500010039371704700BF00B0064008B5114BD4
:103060001B681B0500D408BD0F4B1A7802F0FF0344
:1030700012B1FFF7A3FAF7E70C4A4FF400411160D1
:103080000B4A0C49D37040F203120A604A600A4AA4
:1030900013700A4A13700A4B1B680BB101221A7095
:1030A00008BD00BF34800440EC8AFF1F84E100E0CB
:1030B00000B006400CB00440568BFF1FED8AFF1F86
:1030C000E88AFF1F38B50446094B1B7803F0FF055B
:1030D000002BF9D120460121FEF7B4FB20462946FA
:1030E000FEF790FB034B53F83420034B1A6038BDB6
:1030F000EC8AFF1F804B0000588BFF1F0F4A13788C
:1031000098421AD00E490968C90415D50A2B04D073
:103110001F2B05D100210B4B01E00B4B0021196047
:103120000A2805D01F2807D14FF45171054B02E042
:10313000054B4FF451711960107070476E87FF1F77
:103140003480044000D0044010B004400F4A13788B
:1031500098421AD00E490968C90415D5092B04D024
:103160001A2B05D100210B4B01E00B4B00211960FC
:10317000092805D01A2807D140F21331054B02E087
:10318000054B40F213311960107070476D87FF1FB7
:103190003480044004D004400CB004400D4A38B5DB
:1031A000146814F400624FF0000410D021280A4D76
:1031B0000AD80A4A012152F830302B60FEF742FB50
:1031C0002B681C70012038BD2C60204638BD10468D
:1031D00038BD00BF34800440E88AFF1F804B0000E8
:1031E0000B4B1B6813F4006310D01728094B09D14F
:1031F000094A40F2023111605A7B42F001025A73CF
:10320000012070475A7B02F0FE025A73002070477B
:103210003480044000B0064008B00440F8B51D4BAF
:103220001B681A05064633D51B4B1B680BB10122E0
:103230001A701A4B1C780134282C1F4628BF002412
:10324000174D2B78A34218D1FFF70CFB40280FDC59
:10325000144A13791B06F3D52B7813490133282B15
:1032600028BF0023C95CDBB2C9B2D1712B70E7E77C
:10327000FF28E5DDFFF7A2F9E2E70B4BF6B21E559A
:103280000A4B01221A70074BE4B2BC223C70DA7080
:10329000F8BD00BF34800440588BFF1F5C8BFF1FBC
:1032A000578BFF1F00B00640EE8AFF1FEC8AFF1FFE
:1032B000274B1B681A052DE9F04707468A4644D577
:1032C000244B1B680BB101221A703D4607EB0A0321
:1032D0009D4237D2DFF890801F4E98F8004096F854
:1032E00000900134282C28BF00245FFA89F9A145F9
:1032F0001DD11A4BBC22DA70FFF7B4FA40280FDC5C
:10330000164A13791B060FD5337815490133282B3C
:1033100028BF0023C95CDBB2C9B2D171337003E0AE
:10332000FF2801DDFFF74AF933784B45E4D00C4B19
:1033300015F8012B1A550B4B0122E4B21A7088F8CC
:103340000040C3E7054BBC22DA70BDE8F08700BF40
:1033500034800440588BFF1F578BFF1F00B006407E
:10336000EE8AFF1FEC8AFF1F5C8BFF1F08B5034B23
:103370001B7813B1FFF722F9F9E708BDEC8AFF1FAC
:10338000064A074B1B781078DBB2C0B283422CBFD1
:10339000273000F1FF30C01A704700BF578BFF1F66
:1033A0005C8BFF1F054B1878054B1B78C0B2DBB256
:1033B000984238BF4030C01A704700BF568BFF1F7D
:1033C000ED8AFF1F10B5104B10491A780B78D2B256
:1033D000DBB29A4214D00133402B28BF00230C48A3
:1033E000DCB2C05C0C700B490968C0B251B19A42A2
:1033F00038BF4032D31A1A2B04DC00230B7010BDE7
:103400004FF0FF3010BD00BF568BFF1FED8AFF1F2E
:10341000168BFF1FE88AFF1F084B1A78084B1B7892
:10342000DBB29A4207D00133402B28BF0023054A64
:10343000D05CC0B270474FF0FF307047568BFF1F13
:10344000ED8AFF1F168BFF1F0C4B1B681B0514D545
:103450000B4BDA7802F0CB02DA7040225A74DA7839
:1034600042F03402DA70074B1A78074BD2B21A7066
:10347000064B1B680BB100221A7070473480044061
:1034800000B00640ED8AFF1F568BFF1FE88AFF1F22
:1034900030B5374B1A7912F0300F31D072B69A7DB1
:1034A00002F0FF0022B9DA7940225A7462B627E0AE
:1034B00062B6304A304913780978DBB2C9B2144693
:1034C0002B4AD5795A1C402A28BF00228A42EDB2E5
:1034D00002D02A4B9D541346421E12F0FF00EFD13A
:1034E000DAB22270264A126852B18B4236BFC1F15D
:1034F0004001C1EB03035B18272BC4BF01231370EA
:103500001B4BD978C9B20C0620D51B7918061DD5DE
:103510001C4B1D4A1D781378EDB2DBB21046AB424E
:103520000CD0134A0133282B1479184C28BF0023E0
:10353000E45CE4B2D471127D072AF0D9DBB20370E7
:103540000B4B1A79120644BF7C22DA704B060ED55B
:10355000074B1A7912F0400F194608D00C4B002285
:103560001A700C4B1B6803B11A703C23CB7030BD32
:1035700000B00640568BFF1FED8AFF1F168BFF1F02
:10358000E88AFF1F5C8BFF1F578BFF1FEE8AFF1F10
:10359000EC8AFF1F588BFF1F174B1A6842F48052AA
:1035A0001A60164A00231370154A1370154A1370D7
:1035B000154A1370154A1370154A40F21331116001
:1035C0004FF451715160134AC0F344311170C0F38C
:1035D000471100F01F0051709072937013742C23E8
:1035E000D3700D4B40226FF44B711A700B444FF4A3
:1035F00000321A60704700BF34800440CE8BFF1F3A
:10360000658BFF1FD48BFF1FCF8BFF1F648BFF1FAA
:1036100008C0044000C0064031E400E0134A93783B
:1036200000F0030103F0EC030B43410748BF43F0F4
:103630001003937000F00F03042B0C4903D18B7916
:1036400043F040038B715379C20603F0EF03074A3E
:1036500048BF43F0100353719379810603F0EF03E1
:1036600048BF43F010039371704700BF00C006408D
:1036700008B5114B1B68DB0400D408BD0F4B1A784A
:1036800002F0FF0312B1FEF799FFF7E70C4A4FF47F
:10369000003111600B4A0C49D37040F203120A60EA
:1036A0004A600A4A13700A4A13700A4B1B680BB12E
:1036B00001221A7008BD00BF34800440648BFF1FD4
:1036C00084E100E000C0064008C00440CE8BFF1F2C
:1036D000658BFF1F608BFF1F38B50446094B1B78B5
:1036E00003F0FF05002BF9D120460121FEF7AAF8CF
:1036F00020462946FEF786F8034B53F83420034B47
:103700001A6038BD648BFF1F804B0000D08BFF1FF9
:10371000704770470D4A38B5146814F480524FF062
:10372000000410D021280A4D0AD80A4A012152F873
:1037300030302B60FEF786F82B681C70012038BDF6
:103740002C60204638BD104638BD00BF3480044090
:10375000608BFF1F804B00000B4B1B6813F48053E2
:1037600010D00E28094B09D1094A40F202311160EC
:103770005A7B42F001025A73012070475A7B02F0D3
:10378000FE025A73002070473480044000C0064097
:1037900004C00440F8B51D4B1B68DA04064633D557
:1037A0001B4B1B680BB101221A701A4B1C78013499
:1037B000282C1F4628BF0024174D2B78A34218D170
:1037C000FFF750F840280FDC144A13791B06F3D595
:1037D0002B7813490133282B28BF0023C95CDBB2A7
:1037E000C9B2D1712B70E7E7FF28E5DDFEF7E6FEF1
:1037F000E2E70B4BF6B21E550A4B01221A70074B3B
:10380000E4B2AC223C70DA70F8BD00BF34800440F2
:10381000D08BFF1FD48BFF1FCF8BFF1F00C0064034
:10382000668BFF1F648BFF1F38B504464518AC42FA
:1038300004D014F8010BFFF7ADFFF8E738BDFFFF28
:1038400008B5034B1B7813B1FEF7B8FEF9E708BDC6
:10385000648BFF1F064A074B1B781078DBB2C0B29F
:1038600083422CBF273000F1FF30C01A704700BFE1
:10387000CF8BFF1FD48BFF1F054B1878054B1B7890
:10388000C0B2DBB2984238BF4030C01A704700BFA8
:10389000CE8BFF1F658BFF1F10B5104B10491A7898
:1038A0000B78D2B2DBB29A4214D00133402B28BF3E
:1038B00000230C48DCB2C05C0C700B490968C0B234
:1038C00051B19A4238BF4032D31A1A2B04DC00237C
:1038D0000B7010BD4FF0FF3010BD00BFCE8BFF1F2F
:1038E000658BFF1F8E8BFF1F608BFF1F084B1A78A5
:1038F000084B1B78DBB29A4207D00133402B28BF1C
:103900000023054AD05CC0B270474FF0FF307047CB
:10391000CE8BFF1F658BFF1F8E8BFF1F054B1A7809
:10392000054BD2B21A70054B1B680BB100221A70FE
:10393000704700BF658BFF1FCE8BFF1F608BFF1F83
:1039400010B5294B1A79920620D5284AD8791378D0
:1039500027490133402B097828BF00238B42C0B28E
:1039600003D02449C854D9B21170234A116869B1EF
:10397000224A1278D2B2934236BFC2F14002C2EB61
:1039800003039B18272BC4BF01230B70164AD17861
:10399000C9B20C0616D51379180613D5184B17485B
:1039A0001C780378DBB29C4202D16C23D37009E00F
:1039B0000133282B28BF0023124CE45CDBB2E4B2B5
:1039C000D47103704B060ED5074B1A7912F0400FD5
:1039D000194608D00C4B00221A700C4B1B6803B11F
:1039E0001A702C23CB7010BD00C00640CE8BFF1F79
:1039F000658BFF1F8E8BFF1F608BFF1FCF8BFF1F01
:103A0000D48BFF1F668BFF1F648BFF1FD08BFF1FA4
:103A10001FB572B6154B70221A70154A41211170EC
:103A20000F2102F8011C80221A701A781206FCD5A8
:103A3000104B186862B6104B984298BF0A2301AC2D
:103A400098BF584321460A22FEF72AFF0023E15C73
:103A50000A4A29B102EB430001330A2B4180F6D117
:103A600001335B00137004B010BD00BF00000240C2
:103A700007000240080002407F9698004A88FF1F16
:103A800008B50368C9B21B68984708BD08B5036844
:103A9000C9B21B68984708BD08B50368C9B21B685E
:103AA000984708BD08B50368C9B21B68984708BDA8
:103AB0004B0803F1376000F5D830B0FBF1F0FEF7AA
:103AC0000DBF10B54B0803F1376000F5D830144630
:103AD000B0FBF1F0FEF702FF2046BDE81040FEF714
:103AE00061BFFEF789BF0846FEF7BABF0846FEF77A
:103AF000FBBF0846FEF7D0BF08B50846FFF71AF827
:103B0000003018BF012008BD08B50846FFF734F89B
:103B1000003018BF012008BDFFF718B9FFF750B9F2
:103B2000FFF724B9FFF7F6B8FFF762B9FFF7FCB863
:103B300008B50846FFF746F8012008BD08B5084655
:103B4000FFF740F8012008BD10B50846144611469D
:103B5000FFF782F8204610BD38B508460D4600F044
:103B600027FA044621462846FFF776F8204638BD56
:103B70007047FFFF044B00221A714FF47A711A73D9
:103B8000024A99601A607047D88BFF1F404D0000B1
:103B900008B50368C9B21B68984708BD08B5036833
:103BA000C9B21B68984708BD08B50368C9B21B684D
:103BB000984708BD08B50368C9B21B68984708BD97
:103BC0004B0803F1376000F5D830B0FBF1F0FFF798
:103BD000B7B910B54B0803F1376000F5D83014467B
:103BE000B0FBF1F0FFF7ACF92046BDE81040FFF75D
:103BF0000BBAFFF733BA0846FFF764BA0846FFF777
:103C0000A5BA0846FFF77ABA08B50846FFF7C6FA1C
:103C1000003018BF012008BD08B50846FFF7E0FADC
:103C2000003018BF012008BDFFF7BCBBFFF7F4BB95
:103C3000FFF7C8BBFFF79ABBFFF706BCFFF7A0BBB7
:103C400008B50846FFF7EAFA012008BD08B508469E
:103C5000FFF7E4FA012008BD10B5084614461146E6
:103C6000FFF726FB204610BD38B508460D4600F08C
:103C70009FF9044621462846FFF71AFB204638BD27
:103C80007047FFFF044B00221A714FF47A711A73C8
:103C9000024A99601A607047E88BFF1FA04D000030
:103CA00008B50368C9B21B68984708BD08B5036822
:103CB000C9B21B68984708BD08B50368C9B21B683C
:103CC000984708BD08B50368C9B21B68984708BD86
:103CD0004B0803F1B76000F55840B0FBF1F0FFF777
:103CE0005BBC10B54B0803F1B76000F558401446B3
:103CF000B0FBF1F0FFF750FC2046BDE81040FFF7A5
:103D00008DBCFFF7B5BC0846FFF7E6BC0846FFF7D9
:103D100000BD0846FFF7FCBC08B50846FFF7FAFCF3
:103D2000003018BF012008BD08B50846FFF714FD94
:103D3000003018BF012008BDFFF79EBDFFF7D6BDBC
:103D4000FFF7AABDFFF77CBDFFF7E8BDFFF782BD17
:103D500008B50846FFF71EFD012008BD08B5084656
:103D6000FFF718FD012008BD10B50846144611469E
:103D7000FFF75AFD204610BD38B508460D4600F045
:103D800017F9044621462846FFF74EFD204638BD68
:103D90007047FFFF044B00221A714FF47A711A73B7
:103DA000024A99601A607047F88BFF1F004E0000AE
:103DB00070B50E4B0E4DED1AAD1000241E46AC42F0
:103DC00004D056F8242090470134F8E701F092F827
:103DD000084D094BED1AAD1000241E46AC4204D02C
:103DE00056F8242090470134F8E770BD004F0000DA
:103DF000004F0000144F0000004F000030B50023BA
:103E0000934208D0C55C0133CC1814F8014CA5428C
:103E1000F6D0281B30BD002030BD814270B501D3E3
:103E200000230EE08C18A042FAD28518134613F135
:103E3000FF3305D3514266182944F65CCE54F6E7A9
:103E400070BD934203D0CC5CC4540133F9E770BD1C
:103E500030B500293CD051F8042C0B1F1D49002A15
:103E6000B8BF9B180A680C4612B95A600B6030BD87
:103E700093420DD219685818904203D15A581144F0
:103E8000426819605A60236030BD994203D80A46DF
:103E900051680029F9D1146815199D420AD11B688F
:103EA0002344D0188842136012D108680344136079
:103EB0004B680CE002D90C23036030BD18681C1855
:103EC0008C4203D10C6849682044186059605360E3
:103ED00030BD00BF0C8CFF1F70B5CD1C25F0030555
:103EE00008350C2D38BF0C25002D06463FDB8D42D2
:103EF0003DD3214B1C6818462146A1B10B685B1BC2
:103F00000ED40B2B03D90B60CC18CD501FE08C4284
:103F100002D1626802601AE04B6863600C4616E0EA
:103F20000C464968E9E7154C23681BB9304600F098
:103F300027F820602946304600F022F8431C01464D
:103F400015D0C41C24F0030484420AD1256004F176
:103F50000B00231D20F00700C31A0BD05A42E25079
:103F600070BD3046611A00F00BF80130EED10C2321
:103F70003360002070BD00BF0C8CFF1F088CFF1F3A
:103F800038B5064C0023054608462360FEF75AFC68
:103F9000431C02D1236803B12B6038BD188CFF1F6E
:103FA000034611F8012B03F8012B002AF9D17047C1
:103FB000034613F8012B002AFBD1181A0138704769
:103FC0002DE9F041ADF5047D1D464FF400730F4619
:103FD00090460393044618B183690BB900F094F836
:103FE00004AE00952046314603AA434600F05FF92F
:103FF000054670B1204639462A46039B00F01EF85C
:10400000B542039003D020462946FFF721FF0398CD
:1040100001E04FF0FF300DF5047DBDE8F081FFFFBA
:1040200030B51346044A05460C4610682946224618
:10403000BDE83040FFF7C4BFC088FF1F38B5074C4C
:10404000054600202060084611461A46FEF77CFA15
:10405000431C02D1236803B12B6038BD188CFF1FAD
:10406000F8B5074600F1480494B1A5686668013EBA
:104070000CD4AB89012B07D9B5F90E30013303D02D
:104080003846294600F0D6F96835F0E72468EBE7B2
:10409000F8BDFFFF002310B5044603604360836052
:1040A00081814366C28103614361836119465C304B
:1040B0000822FDF7B9FA054B6362054BA362054B75
:1040C000E362054B2462236310BD00BF2942000058
:1040D0004B42000083420000A742000070B54B1E17
:1040E00068255D430E4605F17401FFF7F5FE0446B1
:1040F00040B1002180E842000C30A06005F1680268
:10410000FDF792FA204670BD836910B5044633BBB3
:104110008364C3640365124B124A1B68826298422F
:1041200004BF0123836100F01FF86060204600F0A7
:104130001BF8A060204600F017F80421E060002280
:104140006068FFF7A7FFA06809210122FFF7A2FF1F
:10415000E06812210222FFF79DFF0123A36110BD39
:104160005C4E000061400000F8B51B4B1E68B3694F
:10417000074613B93046FFF7C7FF4836B46873687F
:10418000013B04D4B4F90C5075B16834F8E73368D6
:104190002BB938460421FFF7A1FF306008B136681B
:1041A000ECE70C233B60F8BD4FF6FF73E38101237E
:1041B000A38165662560A560656025616561A5616F
:1041C00004F15C0029460822FDF72EFA6563A56319
:1041D000A564E5642046F8BD5C4E0000F8B50646CF
:1041E00014460D4621B91146BDE8F840FFF774BEEC
:1041F0001AB9FFF72DFE2046F8BD00F057F9A0428E
:104200000ED230462146FFF767FE074650B12946D9
:104210002246FEF7F3F930462946FFF719FE01E082
:104220002846F8BD3846F8BD10B50C46B1F90E1059
:1042300000F046F9002803DB636D0344636510BD9D
:10424000A38923F48053A38110BD2DE9F0411D46BD
:104250008B89DB0507460C46164605D5B1F90E10CD
:104260000022022300F010F9A389B4F90E1023F400
:104270008053A381384632462B46BDE8F041FFF714
:10428000DDBE10B50C46B1F90E1000F0FDF8431C70
:10429000A38903D123F48053A38110BD43F4805339
:1042A000A381606510BDB1F90E1000F02FB830B5D4
:1042B00015469BB0146829B124B14FF4C162ADF822
:1042C0000C2005E04FF422720024ADF80C202146AA
:1042D000002C0091049103DA8B230360002012E08C
:1042E0004FF6FF72ADF80E2069461A461E9B0294E7
:1042F000059400F053F9031E4FF0000003DB2B6020
:10430000009B187004981BB030BDFFFF38B5064CF9
:104310000023054608462360FEF79EFA431C02D19F
:10432000236803B12B6038BD188CFF1F8A892DE9E3
:10433000F041054610070C4657D44B68002B02DCB1
:104340000B6C002B18DDE66AB6B102F48052002334
:1043500092B22F682B600AB1626D10E0216A284684
:104360000123B047411C024609D12B683BB11D2BEC
:1043700001D0162B46D12F600020BDE8F081A38923
:104380005B0705D56368D21A636B0BB1236CD21A35
:10439000E66A216A28460023B047461CA28905D157
:1043A0002B681BB11D2B01D0162B19D10023636084
:1043B000D1042369236004D5421C01D12B6803B9C1
:1043C0006065616B2F600029D6D004F144039942E7
:1043D00002D02846FFF73CFD00206063BDE8F08175
:1043E00042F04002A281BDE8F0810E69002EC3D0E8
:1043F0000B680E60C6EB030893070CBF4B690023E4
:104400008B6012E0A38943F04003A3814FF0FF309B
:10441000BDE8F081A76A216A284632464346B8477C
:104420000028EFDD0644C0EB0808B8F1000FF1DC0E
:10443000A2E7FFFF38B50B6905460C46DBB118B1A2
:1044400083690BB9FFF760FE0C4B9C4201D16C688D
:1044500008E00B4B9C4201D1AC6803E0094B9C4245
:1044600008BFEC68B4F90C302BB128462146BDE8F2
:104470003840FFF75BBF002038BD00BF604E000032
:10448000804E0000A04E000038B5074C05460020C5
:104490002060084611461A46FEF7E1F9431C02D196
:1044A000236803B12B6038BD188CFF1F51F8040C32
:1044B000002802DA04390B58184404387047FFFF0B
:1044C00038B5074C054600202060084611461A46BC
:1044D000FEF7C0F9431C02D1236803B12B6038BD3D
:1044E000188CFF1F2DE9F0478D68AB4281460C46C2
:1044F00092461F4643D38B8913F4906F3DD02668B4
:104500000969C1EB06086669022206EB460696FBBE
:10451000F2F608F101023A44964238BF16465B05AE
:104520000FD53146FFF7D8FC054698B121694246C0
:10453000FEF764F8A38923F4906343F08003A3811A
:1045400013E03246FFF74AFE054670B94846216936
:10455000FFF77EFC0C23C9F80030A38943F0400329
:10456000A3814FF0FF30BDE8F087256166614544C7
:10457000C8EB06062560A6603D46AF4200D23D4628
:104580002A4620685146FFF748FCA3685B1BA360DE
:1045900023681D4425600020BDE8F0872DE9F04325
:1045A0009DB0074603938B891C060D4616460CD515
:1045B0000B6953B94021FFF78FFC2860286110B9BF
:1045C0000C233B60C8E040236B6100230993202348
:1045D0008DF8293030238DF82A3033461C4613F8E5
:1045E000012B1AB9B4EB06090FD002E0252AF5D148
:1045F000F8E73846294632464B46FFF773FF01304D
:1046000000F0A580099B4B4409932378002B00F010
:104610009E8000234FF0FF32049307930592069388
:104620008DF853301A9304F101094C464D4E217810
:104630003046052200F026FA09F10109049B28B151
:10464000861B0120B04003430493EEE7D90644BF24
:1046500020228DF853201A0744BF2B228DF85320B7
:1046600022782A2A02D0079B21460EE0039A111DC8
:1046700012680391002A01DB079204E0524243F0E2
:1046800002030792049301340AE00C4601312278B8
:10469000303A092A03D80A2000FB0323F5E70793E1
:1046A00023782E2B1AD163782A2B0AD1039B1A1D4B
:1046B0001B680392002B04F10204B8BF4FF0FF33D4
:1046C0000BE0611C00230C4601312278303A092AA4
:1046D00003D80A2000FB0323F5E70593224E217837
:1046E0003046032200F0CEF930B1861B049B4020F7
:1046F000B04003430493013421781C488DF82810FE
:104700000622661C00F0BEF988B1194B33B9039B31
:10471000073323F007030833039314E003AB00933C
:10472000384604A92A46134BAFF3008007E003ABD9
:104730000093384604A92A460E4B00F08FF8B0F1DA
:10474000FF3F804603D0099B4344099345E7AB896B
:104750005B0601D4099801E04FF0FF301DB0BDE8C1
:10476000F08300BFC04E0000C64E0000CA4E0000DD
:1047700000000000E54400002DE9F84315461F46FF
:104780008A680B69DDF820809A42A8BF13462B6027
:1047900091F8432006460C460AB101332B6023688A
:1047A000990602D52B6802332B60236813F00609A3
:1047B0001DD094F843302268003318BF01239206BD
:1047C0001FD5E1185A1C302081F84300224494F888
:1047D000451082F84310023313E03046394604F1A5
:1047E00019020123C047013007D009F10109E2682D
:1047F0002B68D31A9945F0DBDBE74FF0FF30BDE8BB
:10480000F8833046394604F14302C0470130F4D002
:1048100023682A68E16803F00603042B08BFC2EB93
:1048200001052369A2680CBF25EAE57500259A42B7
:10483000C4BFC3EB0203ED184FF00009A9450ADA23
:104840003046394604F11A020123C0470130D4D062
:1048500009F10109F2E70020BDE8F8832DE9FF47DF
:104860000E7E0C9D6E2E80460C4691469A4601F1B6
:10487000430000F0A58011D8632E22D009D8002E65
:1048800000F0AF80582E40F0BF8081F845607B4A31
:104890004FE0642E1ED0692E1CD0B5E0732E00F0C0
:1048A000A48009D86F2E2BD0702E40F0AD800B68FD
:1048B00043F020030B6038E0752E21D0782E34D0E1
:1048C000A2E02B681A1D1B682A6001F1420781F8DB
:1048D00042309DE022682B6812F0800F03D01A1D31
:1048E0002A601D6805E05106F9D51A1D2A60B3F942
:1048F0000050002D39DA2D236D4284F8433034E026
:1049000022682B6812F0800F03D01A1D2A601D68E0
:1049100004E05206F9D51A1D2A601D88237E574AE5
:104920006F2B14BF0A2308231BE07823544A84F812
:1049300045302368296813F0800F01F104062E60CA
:1049400001D00D6802E05F06FBD50D88DE0744BF8D
:1049500043F0200323601DB9236823F02003236064
:104960001023002184F8431001E0444A0A236668BA
:10497000A660002E03DB216821F00401216005B947
:104980006EB104F14201B5FBF3F603FB16550F4679
:10499000555D01F801593546002EF4D100E0074677
:1049A000082B0AD12368DD0707D5626823699A427C
:1049B00003DC302307F8013C013FC01B20612CE0E1
:1049C00009682B68626911F0800F04D0191D2960F5
:1049D0001B681A6005E04906F8D5191D29601B6897
:1049E0001A8000232361074617E02B681A1D2A60EE
:1049F0001F683846FFF7DCFA63682061984288BF79
:104A000023612369636005E004F1420784F8426092
:104A100001232361002384F84330CDF800A04046F1
:104A2000214603AA4B46FFF7A7FE013002D14FF003
:104A3000FF301FE0404649463A462369D0470130DF
:104A4000F5D023689B0705D4E068039B9842B8BF64
:104A500018460FE00025E268039BD31A9D42F3DA63
:104A60004046494604F119020123D0470130DED007
:104A70000135F0E704B0BDE8F08700BFD14E00007B
:104A8000E24E000010B5C9B202449042034606D07F
:104A90001C788C4200F10100F7D1184610BD0020AF
:104AA00010BD20206C656E677468203D2025750A56
:104AB00000202073747261646472203D2025750AA1
:104AC0000020206E616D65203D2025730A002020A6
:104AD0006E616D65286F766572666C6F7729203D13
:104AE0002025730A00FF02000300040005000600F1
:104AF00008000A000C001000140018002000280014
:104B00003800400060008000C00000018001000209
:104B1000800200030000008000000180000000000F
:104B200000000280000001000110000000000200EF
:104B30000110010003200000010002000320010019
:104B400004300000032002000320030005400000A1
:104B500005400100065000000650010007600000FB
:104B60000760010008700000076002000870010083
:104B70006FF07F030370037813F0800FFBD0704752
:104B80004008FE4340A004404408FE4344A00440C3
:104B90000018FE4300C004403000FE433090044043
:104BA0003400FE43349004401C18FE431CC00440F3
:104BB0001018FE4310C004400818FE4308C004400B
:104BC0000C18FE430CC004400C10FE430CB0044013
:104BD0001010FE4310B004401810FE4318B00440FB
:104BE0001C10FE431CB004401410FE4314B00440DB
:104BF0000418FE4304C004400010FE4300B004400B
:104C00000008FE4300A004400408FE4304A0044042
:104C10000C08FE430CA004400808FE4308A0044012
:104C20001418FE4314C004401818FE4318C0044072
:104C30000410FE4304B004400810FE4308B00440D2
:104C40001400FE43149004404C08FE434CA0044062
:104C50000420FE4304D004402410FE4324B004404A
:104C60002010FE4320B004402810FE4328B004402A
:104C70002C10FE432CB004400020FE4300D0044022
:104C80004808FE4348A004401000FE431090044032
:104C900000000000000000008F25000095250000A6
:104CA0007F25000083250000872500008B2500005C
:104CB00015191519000100006F87FF1F1200000071
:104CC000000200009A87FF1F490000000022010037
:104CD000E387FF1F2100000000210100CC87FF1F98
:104CE00009000000002200000488FF1F1C000000D3
:104CF00000210000AC87FF1F090000000003000036
:104D00004688FF1F00000000010309048287FF1F7F
:104D100000000000020309042088FF1F00000000BB
:104D2000030309044A88FF1F000000000000000080
:104D30000000000000000000000000000000000073
:104D4000313B0000493B0000193B0000213B0000C3
:104D50001D3B0000253B0000B13A0000C33A0000B3
:104D6000E33A0000E73A0000ED3A0000F33A0000B1
:104D7000F93A0000093B0000293B00002D3B0000F0
:104D8000813A00008D3A0000993A0000A53A0000EF
:104D9000593B00003D3B0000000000000000000007
:104DA000413C0000593C0000293C0000313C00001F
:104DB0002D3C0000353C0000C13B0000D33B00000F
:104DC000F33B0000F73B0000FD3B0000033C00000C
:104DD000093C0000193C0000393C00003D3C00004B
:104DE000913B00009D3B0000A93B0000B53B00004B
:104DF000693C00004D3C0000000000000000000085
:104E0000513D0000693D0000393D0000413D00007A
:104E10003D3D0000453D0000D13C0000E33C00006A
:104E2000033D0000073D00000D3D0000133D000064
:104E3000193D0000293D0000493D00004D3D0000A6
:104E4000A13C0000AD3C0000B93C0000C53C0000A6
:104E5000793D00005D3D00004300FFFF6088FF1FBB
:104E60000000000000000000000000000000000042
:104E70000000000000000000000000000000000032
:104E80000000000000000000000000000000000022
:104E90000000000000000000000000000000000012
:104EA0000000000000000000000000000000000002
:104EB00000000000000000000000000000000000F2
:104EC000232D302B2000686C4C00656667454647F3
:104ED0000030313233343536373839414243444576
:104EE00046003031323334353637383961626364E5
:104EF000656600FFF8B500BFF8BC08BC9E46704769
:104F000035040000A1250000753B0000853C000031
:044F1000953D0000CB
:104F1400FFFFFFFF0A0400001C8CFF1F01090A1297
:104F240001000200000040C01686040001010203D3
:104F3400010018035400650065006E0073007900D9
:104F44006400750069006E006F00090249000201E7
:104F540000C032090400000203000000092111010D
:104F64000001221C00070583034000010705040318
:104F7400400001090401000203000000092111019D
:104F840000012221000705810340000107050203F7
:104F940020000206C9FF0904A15C7508150026FF5C
:104FA40000954009758102952009769102950409BE
:104FB40076B102C006ABFF0A0002A1017508150014
:104FC40026FF00954009018102954009029102C023
:104FD40026035400650065006E00730079006400C8
:104FE400750069006E006F002000520061007700B8
:104FF400480049004400040309040C0300000000B5
:10500400000000000000000000000000000000009C
:1050140000000000604E0000804E0000A04E000022
:10502400000000000000000000000000000000007C
:10503400584E0000000000000000000000000000C6
:10504400000000000000000000000000000000005C
:10505400000000000000000000000000000000004C
:10506400000000000000000000000000000000003C
:045074006088FF1F32
:00000001FF
