:1000000000180020C100000069270000352700000B
:100010003527000035270000352700003527000070
:10002000352700003527000035270000692700002C
:1000300069270000352700006927000025270000F8
:100040006927000069270000692700006927000070
:100050006927000069270000692700006927000060
:100060006927000069270000692700006927000050
:10007000492D0000E93100008137000069270000A8
:100080006927000069270000692700006927000030
:100090006927000069270000692700006927000020
:1000A000E11B0000692700006927000069270000A4
:1000B0006927000069270000692700006927000000
:1000C00038B502F055FB454A454B1A60454A464B48
:1000D0001A60464A464B1A60464B0822197811426C
:1000E00002D019780A431A70434B2A221A7000234F
:1000F000424A43499A188A4204D24249C9580433B1
:100100001160F5E7404B41491A1F181D00238A4230
:1001100002D21360031CF6E73D493E4A5958101CB1
:1001200099500433C02BF7D100239A083A49920022
:10013000521803211940C9001568FF248C40A543BB
:100140002C1C80258D40291C214301331160202B5C
:10015000EBD1324B8A221860314B1A70314B24227A
:100160005A70A0221A709A799107FCD59A79D5060F
:10017000FCD498790C212B4A01400829F9D103219C
:100180001171402151719A799106FCD59A795506E1
:10019000FCD52549254A1160224A20211170997900
:1001A0000C220A400C2AFAD1214A224B1A60224A18
:1001B000224B1A60224B00221A60224B07221A603F
:1001C000214A224B1A6062B601F0E2FB03F09CFE6A
:1001D00002F0D4FA02F032FAFEE7C046300004F032
:1001E00034800440823F0000388004400100000F4A
:1001F0003C80044002D0074000E0074060FDFF1F44
:100200005CFEFF1F4843000060FEFF1FA0010020AE
:100210000000000000F9FF1F00E400E008ED00E02E
:100220000050064000400640000001104480044099
:10023000C0000505048004407FBB000014E000E01E
:1002400018E000E010E000E00000202020ED00E0D9
:10025000FFFFFFFFFFFFFFFFFFFFFFFFFFFFFFFFAE
:10026000FFFFFFFFFFFFFFFFFFFFFFFFFFFFFFFF9E
:10027000FFFFFFFFFFFFFFFFFFFFFFFFFFFFFFFF8E
:10028000FFFFFFFFFFFFFFFFFFFFFFFFFFFFFFFF7E
:10029000FFFFFFFFFFFFFFFFFFFFFFFFFFFFFFFF6E
:1002A000FFFFFFFFFFFFFFFFFFFFFFFFFFFFFFFF5E
:1002B000FFFFFFFFFFFFFFFFFFFFFFFFFFFFFFFF4E
:1002C000FFFFFFFFFFFFFFFFFFFFFFFFFFFFFFFF3E
:1002D000FFFFFFFFFFFFFFFFFFFFFFFFFFFFFFFF2E
:1002E000FFFFFFFFFFFFFFFFFFFFFFFFFFFFFFFF1E
:1002F000FFFFFFFFFFFFFFFFFFFFFFFFFFFFFFFF0E
:10030000FFFFFFFFFFFFFFFFFFFFFFFFFFFFFFFFFD
:10031000FFFFFFFFFFFFFFFFFFFFFFFFFFFFFFFFED
:10032000FFFFFFFFFFFFFFFFFFFFFFFFFFFFFFFFDD
:10033000FFFFFFFFFFFFFFFFFFFFFFFFFFFFFFFFCD
:10034000FFFFFFFFFFFFFFFFFFFFFFFFFFFFFFFFBD
:10035000FFFFFFFFFFFFFFFFFFFFFFFFFFFFFFFFAD
:10036000FFFFFFFFFFFFFFFFFFFFFFFFFFFFFFFF9D
:10037000FFFFFFFFFFFFFFFFFFFFFFFFFFFFFFFF8D
:10038000FFFFFFFFFFFFFFFFFFFFFFFFFFFFFFFF7D
:10039000FFFFFFFFFFFFFFFFFFFFFFFFFFFFFFFF6D
:1003A000FFFFFFFFFFFFFFFFFFFFFFFFFFFFFFFF5D
:1003B000FFFFFFFFFFFFFFFFFFFFFFFFFFFFFFFF4D
:1003C000FFFFFFFFFFFFFFFFFFFFFFFFFFFFFFFF3D
:1003D000FFFFFFFFFFFFFFFFFFFFFFFFFFFFFFFF2D
:1003E000FFFFFFFFFFFFFFFFFFFFFFFFFFFFFFFF1D
:1003F000FFFFFFFFFFFFFFFFFFFFFFFFFFFFFFFF0D
:10040000FFFFFFFFFFFFFFFFFFFFFFFFDEF9FFFF23
:1004100010B5064C2378002B07D1054B002B02D0DA
:10042000044800E000BF0123237010BD5CFEFF1FE5
:10043000000000004843000008B5084B002B03D023
:100440000748084900E000BF07480368002B03D0B5
:10045000064B002B00D0984708BDC04600000000A6
:100460004843000060FEFF1F5CFEFF1F000000000D
:1004700038B5154915480B78046804221A436502FB
:1004800001D59A420ED10A70006805242343440224
:1004900001D593420FD10B7001F0E4F8062000F073
:1004A000E7FD38BD0A4CA2256D0025608025094C6A
:1004B000AD002560E7E7084AA220400010608020D8
:1004C000064A80001060E6E7C5FFFF1F3480044045
:1004D00014B0044004C0044018B0044008C00440F4
:1004E00008B5024800F0C2F908BDC04678FEFF1FFB
:1004F00008B5642101F02AFF08BD10B5642190B051
:10050000041C01F023FF002801DC01200CE06846F8
:10051000642101F0DBFE0028F7DD201C6946402243
:1005200003F018FD431E9841404210B010BDF0B5D5
:10053000831C97B0041C1B681ABAFA214900019267
:1005400001F0C4FE00283EDB06A8211C03F022FDBA
:1005500006A800F09FFE002802D006A800F0D1FEF9
:10056000201CFFF7C5FF06A80199002200F0D4FE69
:10057000002828D002A806A900F00EFE029B049DC8
:1005800000930026002B1ED0019A201C964218D200
:10059000FA21490001F09AFE002814DB2B1C039F6E
:1005A0004033BB4203D9BD4209D27F1B00E0402744
:1005B00000993A1C6818211C00F088FBED194036A0
:1005C000E2E7FFF795FF17B0F0BDF0B5FA2195B05F
:1005D0004900041C01F07AFE002837DB201CFFF7DD
:1005E00087FF002832DB211C04A803F0D3FC04A8F9
:1005F00000F050FE0123002800D10223237068463A
:1006000004A900F0C9FD029D019F3ABA631C1A605B
:10061000201CFFF772FF002818D12B1C4033BB426F
:1006200003D9BD4212D27E1B00E04026009B211C54
:10063000E818321C00F06AFAAD19002E06D0201C12
:10064000FFF75BFF002801D1002EE6DC15B0F0BDFE
:1006500010B5144B002292B0041C1A8002A840214D
:1006600001AA00F037FF002815D001232370019B59
:100670001BBA621C1360201CFFF73FFF00280ED13D
:10068000201C02A9402203F074FC201CFFF735FF58
:100690000028E3D003E02070201CFFF72EFF12B0EB
:1006A00010BDC046B8FEFF1F10B5642190B0041CF9
:1006B00001F00CFE002813DB6846211C03F06AFCE5
:1006C000684600F0E7FD002805D0684600F019FEF6
:1006D0000123237000E02070201C642101F036FE0D
:1006E00010B010BD10B5041C00F01AFC01235840D6
:1006F000112320706370201C642101F027FE10BDBF
:1007000038B5051C012308350370041C281C00F0B3
:1007100045FB281C00F08AFC00BA631C1860201CF2
:10072000103000F04DFC201C642101F00FFE38BD9C
:10073000F8B503230370072212BA831D1A60204AFA
:1007400012BA80215A600ABA431C1A601D4B1BBAA8
:1007500003611D4B1BBA43611C4B1ABA82611BBA61
:10076000C3611B4B41221A701A4A0E2313701A4B95
:10077000151C19701A7852B2002AFBDA174C021CA9
:1007800021783A32117016490E785670154A061CB7
:1007900017783C3637700F262E700F4D80262E703E
:1007A0001D786DB2002DFBDA2478031C3D331C70DC
:1007B00009785970127864219A7001F0C7FDF8BD6C
:1007C000500DF85F006CDC0200D8B80500366E01F1
:1007D0000700024006000240000002400A000240FA
:1007E000090002400800024010B58022041C12BA21
:1007F000431C1A60FFF781FE011E10D1201C40220D
:1008000001F006F8201CFFF778FE002807D14021F0
:10081000201C0A1C00F0FCFF201CFFF76EFE10BD20
:1008200038B58022041C12BA431C1A60FFF765FE1B
:10083000051E1AD1FA21201C490001F047FD0028AD
:1008400013DB201C291C402200F0F0FFFA21201CA1
:10085000490001F03BFD002807DB4021201C0A1C59
:1008600000F0E4FF201CFFF743FE38BD10B5041C68
:1008700001F060FD002848D0201C002101F026FD79
:10088000201CFFF735FE00283FDB62782378FD2A25
:100890002AD0FE2A34D0002A37D1032B18D006D80C
:1008A000012B0DD010D8201CFFF741FE2DE0092BA5
:1008B00012D0632B14D0042B27D100F0AFFA24E020
:1008C000201CFFF782FE20E0201CFFF7C1FE1CE089
:1008D000201CFFF7E9FE18E0201CFFF711FF14E0D1
:1008E000201CFFF7FFFE10E0002B05D0012B0CD1E0
:1008F000201CFFF779FF08E0201CFFF791FF04E0C0
:10090000092B02D1201CFFF713FF10BD10B5084CB6
:100910002368002B08D072B6064B24681A68224060
:10092000054C22601A6062B6044BD870597010BD35
:10093000C4FEFF1F80E100E0C8FEFF1F006007400B
:10094000F7B50E1C051C5421580700D4502108206F
:10095000034200D00143002A01D101231943297029
:100960000024124F12483A5D6300C15A11480192A7
:1009700003F04AFA0E4F864203D3019A00246A70AC
:1009800006E001341E2CECD1F7E701341E2C09D00F
:10099000064B09481B5D01936300F95A03F034FAD2
:1009A0008642F2D30198A870F7BDC046EE3F000022
:1009B000B23F000000366E01006CDC0210B5041C72
:1009C000FFF7BEFF201C10BD044B98711A7852B27D
:1009D000002AFBDA014B9879C0B2704700600740EB
:1009E0000A4B40229A701A78C2B2000A9A71D871E2
:1009F0001978064A49B20029FADA9379D0790021A8
:100A000091700002184312787047C046006007409A
:100A1000F0B5002925D0134B1A789406FBD502783F
:100A20000C1C9A71021C013C002C11D056781D78C8
:100A3000AF06FCD572B60B4DAE711D786DB2002DB0
:100A4000FBDA084DAD79EDB262B615700132EAE716
:100A5000013940181A7852B2002AFBDA014B9B790F
:100A60000370F0BD00600740044B1B68002B03D0EF
:100A7000034B1A68034B1A607047C046C4FEFF1F41
:100A8000C8FEFF1F00E100E073B501AC201C1A494D
:100A900001220023FFF792FF6B4620785979FFF778
:100AA00035FF164B1C68164B1D78164B25721E78A9
:100AB00002231E4012D07020FFF786FF0020FFF7B0
:100AC00083FF2571061CFFF7CFFF7F239E43F6B2FD
:100AD000002EDAD00C4B00221A7073BD0520FFF7F0
:100AE00073FF301CFFF770FF2571061CFFF7BCFF7A
:100AF000F307CAD4EEE7C04680F0FA02BCFEFF1F3F
:100B0000C0FEFF1FBAFEFF1FBBFEFF1FF0B589B07E
:100B100002900591081C0021039203F033FA664EFF
:100B200007AC31780122049100236449201CFFF7AF
:100B300045FF6B462078597FFFF7E8FE604F3A7813
:100B40000192002A61D05F4B36781C685E4B1D789D
:100B5000022325721E400AD07020FFF735FF0020C7
:100B6000FFF732FF03060AD50021019107E00520B7
:100B7000FFF72AFF301CFFF727FFC207F4D5019BC0
:100B80002571002B01D13B703FE0019902292AD841
:100B900025720620FFF718FF25711023013BFDD1B8
:100BA000049A7520520703D5019B012B00D18520A3
:100BB0002572FFF709FF049925712572890708D569
:100BC0007020FFF701FF0020FFF7FEFE0206FAD5B6
:100BD00007E00520FFF7F8FE0020FFF7F5FEC3074A
:100BE000FAD4257111E007ACFFF73EFFFFF74CFF89
:100BF000324901220023201CFFF7E0FE6B46597F9B
:100C00002078FFF783FE00210191049A039E1207CA
:100C10000AD502998B19013B4B405B0E04D0CB01E6
:100C20008026DB09B604F61A264B029A1C68264B6E
:100C3000170C1D78049B2572DB0708D50320FFF7EE
:100C4000C3FEB8B2FFF7CCFE029988B207E0C0201D
:100C5000FFB280003843FFF7C3FE029A90B2FFF75D
:100C6000BFFE311C0598FFF7D3FE059B0299039A3E
:100C70009B198919921B2571059302910392C4D186
:100C8000019B002B13D025720620FFF79DFE2571D6
:100C90001023013BFDD104997A20490703D5019A1D
:100CA000012A00D18A202572FFF78EFE2571FFF7F9
:100CB000DBFE09B0F0BDC046BAFEFF1F80F0FA02AD
:100CC000BBFEFF1FBCFEFF1FC0FEFF1FF0B587B0BD
:100CD000041C0391151C2C4A1378002B01D0FFF73C
:100CE000D3FE05AE012229490023301CFFF766FE22
:100CF0006B46597D3078FFF709FE254B06201B68AF
:100D000080270193234B019A1B787F001372029373
:100D1000FFF75AFE019B029A1A71E3B2FF1AAF4223
:100D200000D92F1C1023013BFDD1019B029A260CF8
:100D30001A72194B1B78DA0704D50220FFF744FE1C
:100D4000B0B203E08020F6B280003043FFF748FEE7
:100D5000A0B2FFF745FE039EE419ED1B3078FFF7C4
:100D600033FE039A0136D319B342F7D1029A019B9D
:100D700003961A71044A04231370FFF775FE002DC1
:100D8000A9D107B0F0BDC046BBFEFF1F80F0FA023C
:100D9000BCFEFF1FC0FEFF1FBAFEFF1F73B51B4B3B
:100DA000041C1B78002B01D0FFF76EFE01AD012261
:100DB000281C17490023FFF701FE6B465979287854
:100DC000FFF7A4FD134B9F201D68134B1E782E7256
:100DD000FFF7FAFD0020FFF7F7FD20700020FFF776
:100DE000F3FD60700020FFF7EFFD2378A070012B6A
:100DF00007D10020FFF7E8FDE0700020FFF7E4FDD9
:100E000020712E71FFF730FE73BDC046BBFEFF1F81
:100E100080F0FA02BCFEFF1FC0FEFF1FF0B53B4B87
:100E200087B01A78002A01D0FFF72EFE04AC201CF0
:100E3000FFF7B4FF2378202B44D1A3781A1C203A63
:100E4000022A3FD8212B01D0022200E0042230499F
:100E5000087884110194E7B23F242040087097423B
:100E600052D2222B01D0022600E0082603AC012238
:100E7000201C28490023FFF7A1FD6B46597B2078F1
:100E8000FFF744FD244B06201C68244B1D78257277
:100E9000FFF79AFD25711023013BFDD17E4325729A
:100EA000C420FFF791FD3002FFF79AFD0020FFF705
:100EB00097FD174B019A1978013292010A43257167
:100EC0001A701EE003AC0122201C12490023FFF718
:100ED00075FD6B46597B2078FFF718FD0E4B0620F9
:100EE0001C680E4B1D782572FFF76EFD25711023CF
:100EF000013BFDD1C7202572FFF766FD2571FFF785
:100F0000B3FD024C0323237007B0F0BDBBFEFF1FEF
:100F1000BAFEFF1F80F0FA02BCFEFF1FC0FEFF1FDB
:100F2000F7B5224B1A78002A01D101203DE001AC2F
:100F3000201C1F4901220023FFF740FD6B4620784B
:100F40005979FFF7E3FC1B4B1B4F1C681B4B3E788A
:100F50001D78022325721E401AD07020FFF734FD41
:100F60000020FFF731FD2571061CFFF77DFD7F2373
:100F70009E43F6B2002E17D00C4B00241C703B7819
:100F80003F229343A342D0D0FFF748FF201C0CE040
:100F90000520FFF719FD301CFFF716FD2571061C13
:100FA000FFF762FDF307E7D50020FEBDBBFEFF1F84
:100FB00080F0FA02BCFEFF1FBAFEFF1FC0FEFF1F3B
:100FC000F7B5164B071C1B78002B01D0FFF75CFD13
:100FD00001AC0122201C12490023FFF7EFFC6B46F5
:100FE00059792078FFF792FC0E4B4B201D680E4B71
:100FF00000241E782E72FFF7E7FC0020FFF7F0FCBC
:101000000020FFF7EDFC0020FFF7DEFC385501342F
:10101000082CF8D12E71FFF727FDF7BDBBFEFF1F8F
:1010200080F0FA02BCFEFF1FC0FEFF1F83781A1C6F
:10103000103A0F2A04D91A1C203A052A03D8063B75
:101040000120984012E00278002A03D14278002A59
:101050000AD105E0FF2A07D14278FF2A04D1FF3BDD
:10106000581E8341180501E0802040037047FFFFB0
:101070000C23F0B543432F4A2F4D9958D3181B7AB0
:101080002E4E85B0041C3370296000F085FA201CB8
:10109000012100F0FBFB33782A6802AC1371201C9D
:1010A000FFF77CFE201CFFF7C1FF802200235204C3
:1010B000904229D901AF22490122381CFFF77EFC5A
:1010C0006B4659793878FFF721FC237836782D68FC
:1010D0002E72012B04D1BC204001FFF781FC0AE0F5
:1010E0000620FFF771FC2E711023013BFDD1B720C4
:1010F0002E72FFF769FC2E71FFF7B6FC2378202BC8
:1011000001D0012300E009232278012A04D12279A9
:10111000002A05D1142204E0202A03D1022200E093
:1011200004221343074A201C1370FFF737FE0120E7
:1011300005B0F0BD1C400000BCFEFF1FC0FEFF1F3D
:1011400080F0FA02BAFEFF1F13B50822002069469C
:10115000FFF7DCFC0E4C009BA34217D0013301D0FB
:10116000002014E00B4B00206946082200940193F4
:10117000FFF7ACFDFFF7D4FE0028FBD00020694646
:101180000822FFF7C3FC009BA342E9D1019816BDDA
:101190004C5596FA5802F618F0B5002393B0036048
:1011A000061C0391FFF7D0FF002867D087B2039B8E
:1011B00034481C78002C04D0444033480133604349
:1011C000F7E7324902F016FE03237B43013189B26F
:1011D00005910493BC4251D23A1B0092072A01D9CF
:1011E00008230093009B201D40005A000AA9FFF726
:1011F0008DFC0025009A95423ED00AAA6B009B5AAE
:10120000059A934233D12A190520504300230993AC
:101210003B1D18180A22400007A9FFF777FC099B1D
:10122000049A02339B189B000193039B02930EA91F
:1012300010220198FFF76AFC019A0299103201927C
:101240000023029A0131D05C0EAA9A5C824211D12D
:10125000002A04D00133102BF3D10291E7E7079B5A
:101260002C193360089BB2607360B48106E0084AB1
:10127000934203D00135BDE76419ABE7301C13B0CE
:10128000F0BDC046C59D1C8193010001FEFF00001A
:10129000FFFF00001FB5011C6846FFF77DFF0098A7
:1012A000431E9841C0B205B000BD036873B5051C6C
:1012B000002B01D1002622E080896C4606340430E0
:1012C0004000211C0222FFF721FCA889238804305A
:1012D000DB434000211C02222380FFF7F7FCFFF7CD
:1012E0001FFE061EFBD0A889211C043040000222EC
:1012F000FFF70CFC2388002BDCD12B606B60301CCB
:1013000076BD1FB5011C6846FFF746FF6846FFF72C
:10131000CCFF05B000BDFFFFF0B58FB00390049186
:10132000141CFFF7B7FF051E01D00020C3E0FFF734
:101330000BFF061EF9D081B200910827009AEB1925
:10134000934200D9571B281D40007A000AA9FFF7D5
:10135000DDFB0023BB420DD05A000AA9515A574A5F
:10136000914205D10099EB1801938B4207D3DCE73A
:101370000133EFE7009AED189542DED3D5E7009BE5
:101380000C256B4301991D1C05930835002904D1D8
:10139000360CB600AE1902962FE0019A0520504394
:1013A0000099474A00268B18181807A940000A22FE
:1013B0000996FFF7ABFB089B07995B180293099B03
:1013C0009B00ED182F1C1022381C0AA9FFF79EFB6A
:1013D000321C1032331C0AA8801B185C591C0028D0
:1013E00004D10435374AED18154006E0914201D08A
:1013F0000B1CF0E71037161CE5E7002C10D0029A02
:10140000601E211C801802F0B1FC261C4643049883
:10141000211C0138001902F0A9FC4443049403E0A4
:10142000029EFF23FF369E43039802F0BBFD041C7F
:101430000AA8FFF7B3FC049B0AA8F718FFF7F6FD0C
:10144000874200D971E7281C621C0399FFF73EFC14
:101450000499052008910199059A4843009BAD1A0B
:101460000433083D1818AD08400007A90A22079662
:101470000995FFF72BFCFFF753FD0028FBD012481E
:1014800003990B78002B06D0039A58400F4B01327A
:1014900058430392F4E70E4902F0ACFC0198013185
:1014A00004300791400007A90222FFF70FFCFFF765
:1014B00037FD0028FBD00FB0F0BDC046FFFF000095
:1014C000FFFFFF7FFCFF0300C59D1C81930100010E
:1014D000FEFF0000F0B500238DB0037001900C1CDE
:1014E0000392FFF731FE002801D100204FE0294B85
:1014F00080B21D8802902F1D7F0002988542F4D291
:101500006E461636381C0222311CFFF7FFFA32886D
:1015100002376B1C002A01D11D1CEEE71D4A052075
:101520001380454300230793029B06A906335819ED
:1015300040000622FFF7EAFA069B581CD5D0029815
:10154000039A032646431360079B02339E19B60095
:10155000002C18D0251E102D00D9102508AF2A1CEC
:10156000301C391CFFF7D2FA019A0023F95C01986C
:101570000132C154002909D00133AB42F6D3641BB8
:1015800076190192E4E7019B013B1C7001200DB02C
:10159000F0BDC046B8FEFF1F154B80221968D2036C
:1015A0000A431A60134B5022DA7000229A701B789B
:1015B000114B1B78D90703D4902189000F4A02E010
:1015C00080210F4A8900116080229200990701D47E
:1015D0000C4900E00C490A605A0703D4902292009B
:1015E0000A4B02E080220A4B92001A607047C04604
:1015F0003480044000600740C5FFFF1F18B004405E
:1016000008C004401CB004400CC0044014B00440A6
:1016100004C004400E4B10B51940C023DB0419432D
:101620000C4B19600C4B1A6072B60C4C012303432F
:10163000201C984762B622787023134000D0237094
:10164000074B80221968D2000A431A6010BDC046B9
:10165000FCFFFF00040002400800024000000240BE
:101660000C3000F0F8231B021988084A914203D17C
:10167000074A023B138008E0802202335202934261
:10168000F2D10222024B52421A807047FFFF000043
:10169000CCFEFF1F38B50B4D041C2A88002A02D14E
:1016A000FFF7E0FF2A88FF207F2C0AD8F8231B02CF
:1016B0009A4206D31988CDB2A54200D1080A023356
:1016C000F6E738BDCCFEFF1FF0B5484FA7B0041CAD
:1016D000388802AE0D1C01904549301C0E2202F0E4
:1016E00048FC7F2C00D97FE00199002903D1FFF746
:1016F000B9FF3E4A11883F4B023199420CD83B4812
:101700002A02144301808A0702D43B4A224301E0A3
:1017100022041A43301C65E000231820C018FF2261
:10172000694601334254802BF7D1F8231B021988F4
:10173000CAB27F2A02D8090A06A88154802202333D
:1017400052029342F3D106A90D552C4B2C4D2B6020
:1017500072B62C4C01233343201C0193984762B688
:101760002278702313402A1C251C002B00D02370E4
:10177000254C80202368C00003432360234B136063
:1017800072B6204F0199381C884762B62D787023B5
:1017900080221D40D200002D00D03D70236800271C
:1017A00013432360F824240206AAD35DFF2B0ED036
:1017B000A00702D41D023D4308E03A0415431B066E
:1017C0001D43301C211C2A1CFFF724FF0234013763
:1017D000802FE9D105490C80A20705D5064A301CA7
:1017E0002A43211CFFF716FF27B0F0BDCCFEFF1FD8
:1017F0000C400000FFFF00000000FFFF00F80009A0
:1018000004000240000002400C3000F000FC00091F
:1018100070B5041C8D18A94207D0081C4E1CFFF798
:1018200039FF311C20700134F5E770BD70B50B1C19
:10183000041C8D18AB4207D05E1C2178181CFFF7E2
:1018400043FF0134331CF5E770BDFFFF10B51A28C4
:1018500018D80C2358430C4A835810181C7D027A60
:10186000224205D0002901D01A710BE01A7209E05A
:1018700043681A68002902D003210A4301E00221CB
:101880008A431A6010BDC0461C400000F0B51A28FB
:101890003DD80C273D1C45431D4A54196368161C4E
:1018A000012901D0042912D1784332583018147D0F
:1018B000007A20431075A22252001A6020220429C7
:1018C00001D1196814E0196891430A1C1EE0AA5856
:1018D000247A107DA0431075002902D08A1E012AA7
:1018E00012D8802252001A60022903D11A680321FB
:1018F0000A430BE003290AD11A6802210A431A603D
:101900001A6801218A4301E00422FF321A60F0BD07
:101910001C40000072B60C4B0C491A680C4B1B683B
:10192000096862B6480104D5322191428941494291
:101930005B18FA20800043430648821A0648424357
:10194000920D98187047C04618E000E004ED00E0E2
:10195000D0FEFF1F7FBB00005555010038B5041CA9
:10196000FFF7D8FF051C002C0FD0FFF7D3FF074B64
:10197000401B984206D9013C002C06D0FA239B005C
:10198000ED18F2E700F062FEEFE738BDE703000074
:101990001D4B8022D20510B51A60802212061A60F3
:1019A0001A4B002018601A491A4B1B4A1960282349
:1019B00013601A4A1A4C13601A4A13601A4A1360C9
:1019C0001A4A13601A4A136009222260194C2060D7
:1019D000194C2160194C2360194C2360194C22606A
:1019E000194C20601948016019490B6019490B60B6
:1019F000194B1A6000F04EFEC8204000FFF7AEFF02
:101A000000F0C8FB10BDC04600E100E004800340C8
:101A1000FFBF0000088003400C8003401480034097
:101A2000008003401C800340248003402C8003403E
:101A30003480034004900340089003400C9003401E
:101A4000149003400090034004A0034008A003400A
:101A50000CA0034014A0034000A00340F0B50B4FBE
:101A600002223B780A4E1A43D2000A4DB418606035
:101A700028788824002800D0C82409040C43B450D6
:101A800001225040534028703B70F0BD3CFFFF1FC7
:101A900000F8FF1FB4FFFF1F431E10B5032B0FD824
:101AA00072B6084A99008858002807D044685B003D
:101AB0008C50054A01889C5A611A995262B600E01E
:101AC000002010BD2CFFFF1F98010020431E0020A6
:101AD000032B09D872B6054A9B009B58002B02D0F5
:101AE00001305B68FAE762B67047C04680FFFF1FAF
:101AF00038B572B60123164A9A18013A12781107BE
:101B00001CD5144A5C01A5589900002D05D1131964
:101B100008305860104BA3500AE001242143C9004B
:101B20008C58002C0AD15318083058600B4B8B503E
:101B30000B4B1A78013A1A7062B608E00133052B94
:101B4000D9D162B6064B00221A7000F097FB38BD5F
:101B50006041000000F8FF1F88004000C8004000FE
:101B6000AAFFFF1F421E10B5032A30D802238000AF
:101B70001843174BC0001B1872B6164CA05C032804
:101B800009D802F0DFF8140216050833022011E02C
:101B9000083304200EE01048920014580F4B002C1C
:101BA00001D1115001E09858416099500EE0032096
:101BB00000E00520A0540A1C08325A608822180749
:101BC00000D5C822098809040A431A6062B610BD0C
:101BD00000F8FF1FE8FEFF1F80FFFF1F90FFFF1FA1
:101BE000F7B5B9480478061CE4B261071DD5B74BB8
:101BF0001B78002B16D0B64A1378DBB2002B05D029
:101C0000013BDBB21370002B00D100BEB14A137848
:101C1000DBB2002B06D0013BDBB21370002B01D1ED
:101C200000F0ECFCA84A042313700825221C2A406B
:101C300000D146E2A84BA94C1B78DBB21E099A08DA
:101C4000002E00D0CFE1D50065192B686A68980690
:101C5000000F01380C2800D9C2E102F07DF87F01A5
:101C60007F01C101C101C101C101C101C1019E01C9
:101C7000C101C101C1010D001368994F5268994912
:101C80003B6029607A609848984F99490025012265
:101C90009BB23D602561A56102708B4218D8D021AE
:101CA000C9008B4200D3DFE0812191408B4200D1FB
:101CB000B9E006D8802B00D1A0E0822B00D1A2E0B1
:101CC000E8E08C4A934200D1BDE0A022D20014E0AB
:101CD000902109018B4215D00AD8882109018B4235
:101CE00000D0D7E0794B844C1B78161C2370D6E0CB
:101CF000824A934200D12EE1814A0026934200D1CC
:101D0000CCE0C7E0764F714BBA781A706319186A45
:101D1000000603D5586A083800F0B0FA0835802D5F
:101D2000F4D100252E1C774FE859002805D04168D2
:101D3000019100F0A3FA0198F7E77851724B734FC5
:101D4000E850E859002805D04268019200F096FA60
:101D50000198F7E76E4B6F4AE8507300D0526E4B14
:101D60007851F05C0238032807D801F0EBFF020439
:101D70000204002200E001229A5501360435042EA7
:101D8000D1D1664F00233B700125654BEA18654BA6
:101D90009200EB18013B1B781370180720D500F058
:101DA0004FFA6B01002805D0E218083050605E4AF7
:101DB000E25003E0E0503B7801333B7000F040FA22
:101DC0000122AB001343DB00002805D04549E2188F
:101DD00008305060E15003E0E0503B7801333B7045
:101DE000AB0002221A43D2000026A650032213435E
:101DF00093400135E650052DC7D14FE03E4C0226F9
:101E0000257065704BE0364FBB88042B42D83A4CA6
:101E100046489B00257065701B181B7802263342CC
:101E20003DD022703BE02E4D7F23AA881340042B27
:101E300030DC6E88002E2DD13C4F9B00DB191A78C8
:101E400002218A430EE0264D7F23AA881340042BEB
:101E500020DC6E88002E1DD1344F9B00DB191A78D0
:101E600002210A431A7019E01D4D314B6A88A98876
:101E70005C68002C0ED01888904209D1588888429E
:101E800006D1120A032A01D1267808E01E8906E04D
:101E90000C33EDE7254B0F221A705CE0341C104F19
:101EA000FB889E4200D91E1C371E402F00D94027B8
:101EB000201C391CFFF7D2FDE419F61B3AD1351C62
:101EC000402F3BD047E0C04680200740B3FFFF1FB4
:101ED0003DFFFF1FC4FFFF1F9020074000F8FF1FBA
:101EE000A0FFFF1FC8004000B4FFFF1FD4FEFF1F6C
:101EF0008106000002030000ABFFFF1F2109000064
:101F0000210A00002CFFFF1FD8FEFF1F80FFFF1FCC
:101F100090FFFF1F98010020E8FEFF1FAAFFFF1F90
:101F200030C801106041000088004000C020074018
:101F3000644100004025B54200D9351C201C291CF5
:101F4000FFF78CFD6419761B01D1402D03D1784D2C
:101F5000784B2C601E800122774B40E0774B78490C
:101F60001F688F4216D15968764B994212D1137867
:101F7000A92B0FD15378452B0CD19378C22B09D1C3
:101F8000D3786B2B06D1704B00200522011C1A70F0
:101F9000FFF764FD6D4B2B6022E0654F3D68002D1F
:101FA00013D064480688341E402C00D94024211CDC
:101FB000281CFFF753FD361B5E49B6B20E80002E7B
:101FC00001D1402C00D12E193E605C4BA022198813
:101FD000D200914204D100225A709A785C4B1A7058
:101FE0000122554B61E0D200A4186068013E083818
:101FF000F6B22B4036D000F041F95649B0004258B5
:10200000554B002A1BD055684550111C985D08316E
:10201000616003280BD801F095FE02040608032135
:1020200004E0022102E0052100E004219955882303
:10203000270700D5C8231288120413433CE0985D9B
:10204000032808D801F07EFE39390204002200E09E
:1020500001229A5531E02C40624262410324A41AC5
:102060009C552AE062880280002A20D03B4D4380A4
:102070004360B3005F593A49002F01D1585101E044
:10208000CD586860C850374B7600F15A5218F2525A
:1020900000F0D6F8002804D00830606020070AD588
:1020A00007E0314B20601A7801321A7005E02C42AB
:1020B00001D0264B00E02D4B23602D4908230B70E7
:1020C0008FE5012004421ED01B4902230B70294BCF
:1020D000264C1A70284B294D1C609C60284C1A61B4
:1020E000DC609A615D60274B0D241C70264CFF2339
:1020F0002370174C33702270244A1370244B9F2294
:102100001A70087013E063B2002B04DA1D4B0D2225
:102110001A708023337002231C4204D01A4A1178AB
:10212000C9B21170337010231C4200D03370F7BD58
:10213000D4FEFF1FA8FFFF1F94200740A0FFFF1F32
:1021400021090003010004003DFFFF1FC8004000FB
:102150009820074080FFFF1FE8FEFF1F2CFFFF1F96
:10216000D8FEFF1F98010020AAFFFF1F8800400033
:10217000802007403CFFFF1F00F8FF1FECFEFF1F01
:1021800040FFFF1FC0200740882007408C200740E9
:102190008420074010B501F069FB00221A4B002192
:1021A000D150981808324160882AF7D1174A802008
:1021B0001468C00220431060180A154AC0B210709B
:1021C000180C144AC0B21070134A1B0E1370134A35
:1021D000FF231370124A13481370134A137001221D
:1021E00002701248017012490A70124A116899432C
:1021F0000B1C70210B4313600F4B802252041A609A
:102200000E4B10221A7010BD00F8FF1F34800440DE
:102210009C200740B0200740B420074080200740A2
:1022200088200740942007401020074000210740E5
:102230008420074018E400E000E100E008210740A6
:1022400038B572B60B4C2568281C01F03FFE0B28F0
:1022500002D962B600200CE080231B06C3409D43D8
:10226000256062B648235843034B181800230360C7
:10227000436038BD60FDFF1F00FAFF1F10B5041C4E
:102280000E484821201A01F071FD0B2815D80C4B7F
:102290001B78002B07D00B4B1B78002B03D0201C86
:1022A000FFF726FC09E072B68022074B1206C240F7
:1022B000101C1A681043186062B610BD00FAFF1FA8
:1022C000AAFFFF1FB3FFFF1F60FDFF1FF0B5174FF1
:1022D00085B03B68061C0293029A0D1C0192144BB8
:1022E0001B78002B1BD00420FFF7D6FB041E0BD15C
:1022F0003B68019A0393039B9B1AAB4212D8002DB3
:1023000011D000F0A3F9EAE7011C08314022301C8B
:1023100001F02FFE201CFFF7B1FF402004E0012058
:10232000404201E000E0281C05B0F0BDD0FEFF1FD8
:10233000B3FFFF1F034B00201B78834201D0024BE9
:10234000D8887047B3FFFF1F98010020F0B5194FE0
:1023500085B03B68051C0293029A0E1C0192164B35
:102360001B78002B1FD00320FFF7B0FB032809D9EF
:102370003B68019A0393039B9B1AB34216D800F063
:1023800065F9ECE7FFF75CFF041EF1D04026291C3D
:10239000321C083001F0EDFD03202680211CFFF7E0
:1023A000E1FB301C03E00120404200E0002005B0CA
:1023B000F0BDC046D0FEFF1FB3FFFF1F70B5144B2A
:1023C0001B78002B20D0134C2368261C002B03D134
:1023D0000220FFF761FB20602068002814D04388AA
:1023E000C218157A002D0BD002880133934204D312
:1023F000FFF744FF0023336000E04380281C05E022
:10240000FFF73CFF2560DAE70125684270BDC04652
:10241000B3FFFF1FC0FFFF1F38B50E4B1B78002B0B
:1024200013D00D4C2368002B03D10220FFF734FB9F
:1024300020602068002808D04388C3181D7A002D2A
:1024400006D1FFF71BFF2560E7E70120404200E0CF
:10245000281C38BDB3FFFF1FC0FFFF1F38B5124D4A
:102460002B68002B04D0286800240288438811E0E0
:102470000E4B1B78002B03D00220FFF70DFB2860CA
:102480002C68002CEFD10DE0C1180919097A002938
:1024900003D00134E1189142F6DB002C02D1FFF7A2
:1024A000EDFE2C60201C38BDC0FFFF1FB3FFFF1FD7
:1024B000F7B5344D0123071C0C1C2B70002C5DD08C
:1024C000314E306800282BD1304A0192304B1B78B6
:1024D000DBB2002B1AD00120FFF7F8FA052806D945
:1024E000019B2C4A013B0193002B09D10BE00123F6
:1024F0002B70FFF7A5FE244A10600028F0D00FE0F3
:102500001378002B06D001231370002301202B70B9
:10251000404235E02B7000F099F801232B70D5E78D
:102520001C4B002231681A704B884020C01A00945E
:10253000844200D90090181C0830081801900098B7
:102540001B184B80241A0023009A934204D0FA5C93
:102550000198C2540133F7E74A88FF180E4B3F2A0F
:1025600002D805221A70A9E7402200200A801870BC
:102570000120FFF7F7FA002232609FE72C70201C41
:10258000FEBDC046B5FFFF1FB8FFFF1F2932000088
:10259000B3FFFF1FBCFFFF1FC4FFFF1F07B56B4644
:1025A000D8710733181C0121FFF782FF0EBDFFFF12
:1025B00038B50F4B1B78002B19D00E4C2168002921
:1025C00015D04A88002A12D00B48002303709818AF
:1025D0003F2805DC8818C018002505720133F6E78E
:1025E00040230B800120FFF7BDFA0023236038BD94
:1025F000B3FFFF1FB8FFFF1FC4FFFF1F38B50D4B10
:102600001B78DBB2002B13D10B480168041C4A88ED
:1026100098183F2805DC8818C0180025057201337A
:10262000F6E740230B800120FFF79CFA002323608C
:1026300038BDC046B5FFFF1FB8FFFF1F08B5FDF747
:1026400017FFFDF74DFF00F001F8FAE710B5104C49
:102650002378002B1BD101232370FFF7FFFE0028F6
:1026600001D001F038FB00F0FDFA002801D001F0A4
:10267000C7F900F047FD002801D001F061FA01F030
:102680000DF8002801D001F0FBFA0023237010BDE3
:10269000C6FFFF1F1B4B1C4A19781C4B082901D190
:1026A000002102E00A2903D138211160132206E03B
:1026B0000C2901D1342100E03C21116012221A6062
:1026C000134B1A78134B002A01D0002200E001229C
:1026D0001A60114B1A78114B012A01D880220CE0A4
:1026E000042A01D8842208E0082A01D8852204E0BF
:1026F000102A01D8862200E087221A60084B0122A6
:102700001A70704764FDFF1F08B003400CB003400F
:10271000C8FFFF1F20B0034065FDFF1F24B003402A
:10272000C7FFFF1F024B1A6801321A607047C0468C
:10273000D0FEFF1F10B50B4C23685A0301D5FFF7DD
:102740004FFA23685A0501D500F0FEFA23681A05EE
:1027500001D500F049FD2368DA04ECD501F010F84A
:10276000E9E7C0463480044008B5FFF7E3FFFFFF08
:10277000014B00221A607047008104407047FFFF40
:10278000EFF31380002821D1EFF31082002A1FD12C
:10279000EFF30583002B0FD0101C0F2B0ED91A1C42
:1027A000103A92080B4903209200034052188340CC
:1027B0001068D840C0B201E080204000EFF31182E1
:1027C000002A05D0824203D2101C01E001204042C1
:1027D0007047C04600E400E0264B80221968D20012
:1027E0000A431A60244A00231370244A1370244AAF
:1027F0001370244A1370244A1370244B1B78032B44
:1028000009D0152B04D0002B08D1214A214B04E01C
:102810001F4A214B01E0214A214B1A60214B1B78B2
:10282000042B0BD0052B05D0012B0BD1D12292000C
:102830001D4B06E0D12292001C4B02E091221C4B62
:1028400092001A601B4BC204D20E1A70C0B2002252
:1028500058709A702C22DA70174BFF221968914336
:102860000A1C40210A431A60144B802252011A604C
:102870007047C0463480044055000020D1FFFF1F40
:102880005C00002056000020D0FFFF1F1200002037
:102890001303000040A0044018C0044013020000CD
:1028A0000490044066FDFF1F44A004401CC0044087
:1028B0000890044000A006400CE400E000E100E0C5
:1028C00010B5174B132299789143032202400A4313
:1028D000410701D510210A439A700F221049024086
:1028E000042A03D18A79402422438A715A7910211B
:1028F0008A43084200D00A435A71997910229143C1
:10290000840600D51143064A9971C10506D553784E
:1029100011782020DBB201431170537010BDC04606
:1029200000A0064008B5124B1B685A051ED5114B76
:102930001B78DBB2002B02D0FFF788FEF7E70E4AC8
:102940008021490111600D4A0D49D3700422FF32E4
:102950000A600C490A600C4A13700C4A13700C4B45
:102960001B68002B02D00B4A12781A7108BDC046B2
:1029700034800440D0FFFF1F80E100E000A006404B
:1029800040A0044044A0044055000020D1FFFF1F98
:10299000CCFFFF1F1300002038B5041C0B4B1D7823
:1029A000EDB2002DFAD1201C0121FEF76FFF291C8A
:1029B000201CFEF74BFF0C225443054B054AE158FF
:1029C0001C191160044B227A1A7038BDD0FFFF1F0A
:1029D0001C400000580000205400002030B50029A1
:1029E00001D080231843224A1378141C98423ED009
:1029F000204A1268550539D57F221340042B0FD089
:102A000004D8012B0FD100221B4B0BE0052B04D067
:102A1000182B08D10022194B04E00022184B01E0CA
:102A2000184B00221A604423002900D060237F2223
:102A30000240042A15D006D8012A17D1C0229200DC
:102A400013430D4A11E0052A06D0182A0ED1802220
:102A5000D2001343094A08E0C02292001343084AF7
:102A600003E0802292001343064A1360207030BDB9
:102A700066FDFF1F3480044044A0044050D0044051
:102A80001CC004400890044010B51A4A13789842BC
:102A90002ED0194909684C0529D5032B0FD004D82D
:102AA000002B0FD115490B600CE0152B04D0192B0E
:102AB00008D10021124B04E00021124B01E0124B1F
:102AC0000021196003280FD004D800280FD10F4926
:102AD0000A4B0BE0152804D0192808D10C49084BE3
:102AE00004E00A49074B01E00A49074B19601070DE
:102AF00010BDC046120000203480044040A00440B5
:102B000054D0044018C00440049004401303000053
:102B1000130400001302000038B50E4B1A6800239E
:102B2000510514D50C4C1A2810D80C2343430B4ADA
:102B30000B4D9958D3181B7A216001212B70FEF799
:102B4000A5FE23682A781A72012300E02360181C6E
:102B500038BDC04634800440CCFFFF1F1C4000003D
:102B60001300002000207047F8B5214B071C1B689C
:102B70005A053BD51F4B1B68002B02D01E4A12780A
:102B80001A711E4E002334783F220134A2425B4169
:102B90005B421C401A4D2B78A3421CD1FFF7F0FD7D
:102BA000402813DC174A13795BB2002BF2DA2B783A
:102BB000002101333F209842494149420B401249CC
:102BC000C95CDBB2C9B2D1712B70E3E7FF28E1DD4C
:102BD000FFF73CFDDEE70C4BFFB21F550B4B01220C
:102BE0001A70084BE4B2AC223470DA70F8BDC046FB
:102BF0003480044058000020540000205C00002075
:102C00005600002000A00640D2FFFF1FD0FFFF1F8C
:102C100038B5041C4518AC4204D02078FFF7A4FF57
:102C20000134F8E738BDFFFF08B5044B1B78002BD3
:102C300002D0FFF70BFDF8E708BDC046D0FFFF1F2D
:102C4000064B074A1B781078DBB2C0B2834201D32F
:102C50003F3000E00138C01A7047C0465C000020D9
:102C600056000020054B1878054BC0B21B78DBB22C
:102C7000984200D24030C01A7047C046550000202C
:102C8000D1FFFF1F10B5124B12491A780B78D2B240
:102C9000DBB29A4219D001333F2400209C424041CC
:102CA000404203400C48DCB2C05C0C700B49C0B21F
:102CB000096800290BD09A4200D24032D31A1A2B4D
:102CC00005DC074B1B780B7201E00120404210BD70
:102CD00055000020D1FFFF1F14000020CCFFFF1F74
:102CE000130000200A4B1A780A4B1B78DBB29A4279
:102CF0000AD0013300223F219942524152421340EF
:102D0000054AD05CC0B201E0012040427047C04695
:102D100055000020D1FFFF1F14000020064B1A7839
:102D2000064BD2B21A70064B1B68002B02D0054A24
:102D300012781A727047C046D1FFFF1F550000205D
:102D4000CCFFFF1F1300002030B5254A13799906E8
:102D500012D52449D4790B78002001333F259D42B8
:102D60004041404203402048E4B20078834203D00F
:102D70001E48C454DBB20B70D178194CC9B24BB2A7
:102D8000002B1ADA23795BB2002B16DA184B19489C
:102D90001D780378DBB29D4202D16C23E3700CE016
:102DA000013300243F259D42644164422340124C7C
:102DB000E45CDBB2E4B2D4710370402319420ED05C
:102DC000117919420BD00D4B002119700C4B1B6867
:102DD0008B4202D00B49097819722C23D37030BD75
:102DE00000A0064055000020D1FFFF1F1400002066
:102DF0005C00002056000020D2FFFF1FD0FFFF1F05
:102E00005800002054000020164B8022196812013F
:102E10000A431A60144A00231370144A14491370A9
:102E2000144A1370144A1370144A1370144A116030
:102E3000144AD12189001160134AC104C90EC0B2DD
:102E40001170507093702C23D370104B104A196876
:102E50000A408021C9010A431A600E4B8022920168
:102E60001A60704734800440D000002065000020C4
:102E700013030000D8000020D100002064000020CF
:102E80000CB0044010B0044000B006400CE400E078
:102E9000FF00FFFF00E100E010B5174B1322997807
:102EA0009143032202400A43410701D510210A43FE
:102EB0009A700F2210490240042A03D18A794024D3
:102EC00022438A715A7910218A43084200D00A436A
:102ED0005A71997910229143840600D51143064A0C
:102EE0009971C10506D5537811782020DBB20143D2
:102EF0001170537010BDC04600B0064008B5124BAB
:102F00001B681A051ED5114B1B78DBB2002B02D0B3
:102F1000FFF79CFBF7E70E4A8021890111600D4AFB
:102F20000D49D3700422FF320A600C490A600C4A32
:102F300013700C4A13700C4B1B68002B02D00B4A09
:102F400012781A7108BDC046348004406400002025
:102F500080E100E000B006400CB0044010B0044036
:102F6000D000002065000020600000208E000020BE
:102F700038B5041C0B4B1D78EDB2002DFAD1201C86
:102F80000121FEF783FC291C201CFEF75FFC0C22AC
:102F90005443054B054AE1581C191160044B227A31
:102FA0001A7038BD640000201C400000D4000020CE
:102FB000CF0000207047704738B50E4B1A680023C9
:102FC000110514D50C4C1A2810D80C2343430B4A76
:102FD0000B4D9958D3181B7A216001212B70FEF7F5
:102FE00055FC23682A781A72012300E02360181C1C
:102FF00038BDC04634800440600000201C40000002
:103000008E00002000207047F8B5214B071C1B687C
:103010001A053BD51F4B1B68002B02D01E4A1278A5
:103020001A711E4E0023347827220134A2425B41DC
:103030005B421C401A4D2B78A3421CD1FFF7A0FB2A
:10304000402813DC174A13795BB2002BF2DA2B7895
:103050000021013327209842494149420B4012493F
:10306000C95CDBB2C9B2D1712B70E3E7FF28E1DDA7
:10307000FFF7ECFADEE70C4BFFB21F550B4B0122BA
:103080001A70084BE4B2AC223470DA70F8BDC04656
:1030900034800440D4000020CF000020D80000205D
:1030A000D100002000B0064066000020640000202F
:1030B00038B5041C4518AC4204D02078FFF7A4FFB3
:1030C0000134F8E738BDFFFF08B5044B1B78002B2F
:1030D00002D0FFF7BBFAF8E708BDC0466400002045
:1030E000064B074A1B781078DBB2C0B2834201D38B
:1030F000273000E00138C01A7047C046D8000020D1
:10310000D1000020054B1878054BC0B21B78DBB20C
:10311000984200D24030C01A7047C046D00000200C
:103120006500002010B5124B12491A780B78D2B204
:10313000DBB29A4219D001333F2400209C42404127
:10314000404203400C48DCB2C05C0C700B49C0B27A
:10315000096800290BD09A4200D24032D31A1A2BA8
:1031600005DC074B1B780B7201E00120404210BDCB
:10317000D0000020650000208F00002060000020AB
:103180008E0000200A4B1A780A4B1B78DBB29A4259
:103190000AD0013300223F2199425241524213404A
:1031A000054AD05CC0B201E0012040427047C046F1
:1031B000D0000020650000208F000020064B1A7808
:1031C000064BD2B21A70064B1B68002B02D0054A80
:1031D00012781A727047C04665000020D0000020A7
:1031E000600000208E00002030B5254A1379990632
:1031F00012D52449D4790B78002001333F259D4214
:103200004041404203402048E4B20078834203D06A
:103210001E48C454DBB20B70D178194CC9B24BB202
:10322000002B1ADA23795BB2002B16DA184B1948F7
:103230001D780378DBB29D4202D16C23E3700CE071
:103240000133002427259D42644164422340124CEF
:10325000E45CDBB2E4B2D4710370402319420ED0B7
:10326000117919420BD00D4B002119700C4B1B68C2
:103270008B4202D00B49097819722C23D37030BDD0
:1032800000B00640D0000020650000208F00002024
:10329000D8000020D100002066000020640000203B
:1032A000D4000020CF000020204B8022196852015A
:1032B0000A431A601E4A002313701E4A13701E4AE6
:1032C00013701E4A13701E4A13701E4B1B78062B78
:1032D00004D0072B05D11C4A1C4B01E01A4A1C4B99
:1032E0001A601C4B1B78082B05D0142B07D1D12258
:1032F0009200194B02E0D122184B92001A60184B31
:10330000C204D20E1A70C0B2002258709A702C22D9
:10331000DA70144B144A19680A408021C9030A4321
:103320001A60124B8022D2011A6070473480044028
:103330004C010020E1000020540100204D0100203C
:10334000E000002067FDFF1F1303000008C00440D9
:1033500010C0044068FDFF1F14C004400CC00440AE
:1033600000C006400CE400E0FFFF00FF00E100E0C9
:1033700010B5174B132299789143032202400A4358
:10338000410701D510210A439A700F2210490240CB
:10339000042A03D18A79402422438A715A79102160
:1033A0008A43084200D00A435A7199791022914306
:1033B000840600D51143064A9971C10506D5537894
:1033C00011782020DBB201431170537010BDC0464C
:1033D00000C0064008B5124B1B68DA041ED5114B1D
:1033E0001B78DBB2002B02D0FFF730F9F7E70E4A6B
:1033F0008021C90111600D4A0D49D3700422FF32AA
:103400000A600C490A600C4A13700C4A13700C4B8A
:103410001B68002B02D00B4A12781A7108BDC046F7
:1034200034800440E000002080E100E000C006405D
:1034300008C004400CC004404C010020E100002002
:10344000DC0000200A01002038B5041C0B4B1D785D
:10345000EDB2002DFAD1201C0121FEF717FA291C2C
:10346000201CFEF7F3F90C225443054B054AE158A2
:103470001C191160044B227A1A7038BDE00000203C
:103480001C400000500100204B01002030B50029F5
:1034900001D080231843154A1378141C984224D075
:1034A000134A1268D5041FD57F221340082B04D07D
:1034B000142B05D100220F4B01E00F4B00221A60A4
:1034C0004423002900D060237F220240082A06D02E
:1034D000142A09D1C02292001343064A03E0C022F5
:1034E00092001343044A1360207030BD68FDFF1F33
:1034F0003480044014C004400CC0044010B50F4A8E
:103500001378984218D00E490968CC0413D5062BBD
:1035100004D0072B05D100210A4B01E00A4B002102
:103520001960062804D0072805D10849054B01E099
:103530000649054B1960107010BDC04667FDFF1F9E
:103540003480044008C0044010C00440130300004D
:1035500038B50E4B1A680023D10414D50C4C1A2828
:1035600010D80C2343430B4A0B4D9958D3181B7AA0
:10357000216001212B70FEF789F923682A781A72DD
:10358000012300E02360181C38BDC046348004408D
:10359000DC0000201C4000000A01002000207047D1
:1035A000F8B5214B071C1B68DA043BD51F4B1B6881
:1035B000002B02D01E4A12781A711E4E0023347856
:1035C00027220134A2425B415B421C401A4D2B78FA
:1035D000A3421CD1FFF7D4F8402813DC174A137913
:1035E0005BB2002BF2DA2B780021013327209842BE
:1035F000494149420B401249C95CDBB2C9B2D171A1
:103600002B70E3E7FF28E1DDFFF720F8DEE70C4B46
:10361000FFB21F550B4B01221A70084BE4B2AC22CB
:103620003470DA70F8BDC046348004405001002088
:103630004B010020540100204D01002000C0064035
:10364000E2000020E000002038B5041C4518AC4220
:1036500004D02078FFF7A4FF0134F8E738BDFFFF5E
:1036600008B5044B1B78002B02D0FEF7EFFFF8E7FC
:1036700008BDC046E0000020064B074A1B781078C2
:10368000DBB2C0B2834201D3273000E00138C01A58
:103690007047C046540100204D010020054B1878AA
:1036A000054BC0B21B78DBB2984200D24030C01A42
:1036B0007047C0464C010020E100002010B5124BBD
:1036C00012491A780B78D2B2DBB29A4219D0013380
:1036D0003F2400209C424041404203400C48DCB261
:1036E000C05C0C700B49C0B2096800290BD09A422B
:1036F00000D24032D31A1A2B05DC074B1B780B7211
:1037000001E00120404210BD4C010020E1000020FA
:103710000B010020DC0000200A0100200A4B1A786F
:103720000A4B1B78DBB29A420AD0013300223F21B8
:103730009942524152421340054AD05CC0B201E066
:10374000012040427047C0464C010020E1000020AB
:103750000B010020064B1A78064BD2B21A70064BAA
:103760001B68002B02D0054A12781A727047C046B7
:10377000E10000204C010020DC0000200A010020B4
:1037800030B52E4A1379990624D52D49D4790B7872
:10379000002001333F259D424041404203402948DB
:1037A000E4B20078834203D02748C454D8B20870EA
:1037B0002649086800280DD025490978C9B28B42EE
:1037C00001D35B1A01E05B1A4033272B02DD214B4A
:1037D0001B780371D178194CC9B24BB2002B1ADA9D
:1037E00023795BB2002B16DA1B4B19481D7803783E
:1037F000DBB29D4202D16C23E3700CE00133002464
:1038000027259D42644164422340144CE45CDBB2B2
:10381000E4B2D4710370402319420ED011791942D9
:103820000BD00F4B002119700E4B1B688B4202D03E
:103830000D49097819722C23D37030BD00C00640A1
:103840004C010020E10000200B010020DC000020E2
:103850004D0100200A01002054010020E200002058
:10386000E0000020500100204B0100201FB572B67F
:10387000154B70221A70154A41211170144A0F21FC
:10388000117080221A701A7852B2002AFBDA114B9A
:10389000186862B6104B984201D80A23584301AC0D
:1038A000211C0A2200F026FA0023E15C0B4A0029C1
:1038B00005D058001018013341800A2BF5D101338F
:1038C0005B0013701FBDC0460000024007000240AD
:1038D00006000240080002407F96980044FEFF1F49
:1038E00008B50368C9B21B68984708BD08B50368E6
:1038F000C9B21B68984708BD08B50368C9B21B6800
:10390000984708BD08B50368C9B21B68984708BD49
:1039100008B5044B4808C01800F028FAFEF75CFF11
:1039200008BDC046C0C62D0010B5064B4808C018DB
:10393000141C00F01BFAFEF74FFF201CFEF7C0FF1F
:1039400010BDC046C0C62D0008B5FEF7EBFF08BD90
:1039500008B5081CFFF720F808BD08B5081CFFF7DC
:1039600093F808BD08B5081C111CFFF737F808BD0F
:1039700008B5081CFFF7D0F8431E9841C0B208BD37
:1039800008B5081CFFF7EEF8431E9841C0B208BD09
:1039900008B5FFF767F908BD08B5FFF7A3F908BD3B
:1039A00008B5FFF76FF908BD08B5FFF73DF908BD89
:1039B00008B5FFF7B3F908BD08B5FFF741F908BD31
:1039C00008B5081CFFF7D0F8012008BD08B5081C91
:1039D000FFF7CAF8012008BD10B5081C141C111C03
:1039E000FFF716F9201C10BD38B5081C0D1C00F09F
:1039F000D9FA041C211C281CFFF70AF9201C38BD29
:103A00007047FFFF044B00221A711A73FA21034A10
:103A1000890099601A60704758010020F041000049
:103A200008B50368C9B21B68984708BD08B50368A4
:103A3000C9B21B68984708BD08B50368C9B21B68BE
:103A4000984708BD08B50368C9B21B68984708BD08
:103A500008B5044B4808C01800F088F9FFF7D4F9FE
:103A600008BDC04660E3160010B5064B4808C018F4
:103A7000141C00F07BF9FFF7C7F9201CFFF70CFAC4
:103A800010BDC04660E3160008B5FFF737FA08BD61
:103A900008B5081CFFF76CFA08BD08B5081CFFF74D
:103AA0008AFA08BD08B5081C111CFFF783FA08BD87
:103AB00008B5081CFFF780FA431E9841C0B208BD44
:103AC00008B5081CFFF79EFA431E9841C0B208BD16
:103AD00008B5FFF717FB08BD08B5FFF753FB08BD96
:103AE00008B5FFF71FFB08BD08B5FFF7EDFA08BDE5
:103AF00008B5FFF763FB08BD08B5FFF7F1FA08BD8D
:103B000008B5081CFFF780FA012008BD08B5081C9D
:103B1000FFF77AFA012008BD10B5081C141C111C0F
:103B2000FFF7C6FA201C10BD38B5081C0D1C00F0AC
:103B300039FA041C211C281CFFF7BAFA201C38BDD6
:103B40007047FFFF044B00221A711A73FA21034ACF
:103B5000890099601A607047680100205042000097
:103B600008B50368C9B21B68984708BD08B5036863
:103B7000C9B21B68984708BD08B50368C9B21B687D
:103B8000984708BD08B50368C9B21B68984708BDC7
:103B900008B5044B4808C01800F0E8F8FFF784FBAC
:103BA00008BDC04660E3160010B5064B4808C018B3
:103BB000141C00F0DBF8FFF777FB201CFFF7D8FBA5
:103BC00010BDC04660E3160008B5FFF703FC08BD52
:103BD00008B5081CFFF738FC08BD08B5081CFFF73E
:103BE0008DFC08BD08B5081C111CFFF74FFC08BD73
:103BF00008B5081CFFF7ACFC431E9841C0B208BDD5
:103C000008B5081CFFF7CAFC431E9841C0B208BDA6
:103C100008B5FFF743FD08BD08B5FFF77FFD08BDF8
:103C200008B5FFF74BFD08BD08B5FFF719FD08BD46
:103C300008B5FFF78FFD08BD08B5FFF71DFD08BDEE
:103C400008B5081CFFF7ACFC012008BD08B5081C2E
:103C5000FFF7A6FC012008BD10B5081C141C111CA0
:103C6000FFF7F2FC201C10BD38B5081C0D1C00F03D
:103C700099F9041C211C281CFFF7E6FC201C38BD08
:103C80007047FFFF044B00221A711A73FA21034A8E
:103C9000890099601A60704778010020B0420000E6
:103CA00008B5FEF7DBFB08BD08B5FEF787FB08BDCE
:103CB00008B5FEF7B1FB08BD08B5FEF779FC08BDF5
:103CC00008B5081CFEF76AFC08BD08B5081C111CE5
:103CD000FEF7EEFB08BD7047044B00221A711A7301
:103CE000FA21034A890099601A6070478801002010
:103CF00010430000F8B5061C0D1C171C0024301CD6
:103D0000391C00F077F8092901D8303100E037314B
:103D1000C9B22955301C391C00F028F8061E01D004
:103D20000134ECE72B1958702B1C5A1BA24206DAFF
:103D30001A78295D19702A550133013CF5E7281CD2
:103D4000F8BDFFFF02B4714649084900095C49000B
:103D50008E4402BC7047C04603B471464908400017
:103D60004900095A49008E4403BC7047002934D0E9
:103D70000123002210B488422CD301242407A1423D
:103D800004D2814202D209011B01F8E7E400A142FA
:103D900004D2814202D249005B00F8E7884201D395
:103DA000401A1A434C08A04202D3001B5C0822436D
:103DB0008C08A04202D3001B9C082243CC08A042DE
:103DC00002D3001BDC082243002803D01B0901D0CA
:103DD0000909E3E7101C10BC7047002801D000203F
:103DE000C04307B4024802A14018029003BDC04678
:103DF000D90000000029F0D003B5FFF7B9FF0EBCD1
:103E00004243891A1847C046002941D010B4041C07
:103E10004C40A44601230022002900D54942002835
:103E200000D5404288422CD301242407A14204D269
:103E3000814202D209011B01F8E7E400A14204D249
:103E4000814202D249005B00F8E7884201D3401A60
:103E50001A434C08A04202D3001B5C0822438C0882
:103E6000A04202D3001B9C082243CC08A04202D3EC
:103E7000001BDC082243002803D01B0901D00909DC
:103E8000E3E7101C6446002C00D5404210BC70478C
:103E9000002806D003DB0020C043400801E080205A
:103EA000000607B4024802A14018029003BDC046B4
:103EB000190000000029EBD003B5FFF7A7FF0EBCE7
:103EC0004243891A1847C0467047C0461C21012347
:103ED0001B04984201D3000C10391B0A984201D3ED
:103EE000000A08391B09984201D30009043902A2CB
:103EF000105C40187047C046040302020101010132
:103F0000000000000000000070B50E4B0E4D0024B4
:103F1000ED1AAD101E1CAC4204D0A300F358984714
:103F20000134F8E700F000FA084B094D0024ED1ABF
:103F3000AD101E1CAC4204D0A300F35898470134C6
:103F4000F8E770BD34430000344300003443000000
:103F50004843000030B50023934208D0C55C0133CC
:103F6000CC18013C2478A542F6D0281B00E00020A4
:103F700030BD10B50023934203D0CC5CC454013350
:103F8000F9E710BD031C8218934202D01970013367
:103F9000FAE77047031C0A7801311A700133002ACE
:103FA000F9D170470023C25C0133002AFBD1581EAF
:103FB000704702000400060008000A000C000E0012
:103FC0001000140018001C002000280030003800E9
:103FD00040005000600070008000A000C000E000C1
:103FE000000140018001C0010002800200030010B6
:103FF00020304050607041516171425262724353AF
:104000006373445464744555657546568023037044
:1040100003785BB2002BFBDA7047FFFF420000F829
:1040200040A0044001000000420000F844A0044009
:1040300002000000C00000F800C0044001000000C1
:10404000000000F80490044002000000000000F8A6
:104050000890044004000000C00000F81CC00440A8
:1040600080000000C00000F810C0044010000000F4
:10407000C00000F808C0044004000000C00000F8C0
:104080000CC0044008000000800000F80CB00440A0
:1040900008000000800000F810B00440100000008C
:1040A000800000F818B0044040000000800000F8D4
:1040B0001CB0044080000000800000F814B00440F0
:1040C00020000000C00000F804C00440020000000E
:1040D000800000F800B0044001000000400000F83B
:1040E00000A0044001000000400000F804A00440CB
:1040F00002000000400000F80CA00440080000008E
:10410000400000F808A0044004000000C00000F8CF
:1041100014C0044020000000C00000F818C0044093
:1041200040000000800000F804B0044002000000DD
:10413000800000F808B0044004000000020100F80C
:1041400050D0044010000000020100F854D0044098
:1041500020000000030100F878D004404000000077
:10416000151915190001000069FDFF1F120000005C
:104170000002000094FDFF1F490000000022010022
:10418000DDFDFF1F2100000000210100C6FDFF1F13
:104190000900000000220000FEFDFF1F1C000000BF
:1041A00000210000A6FDFF1F090000000003000021
:1041B00040FEFF1F00000000010309047CFDFF1FFB
:1041C00000000000020309041AFEFF1F00000000A7
:1041D0000303090444FEFF1F00000000000000006C
:1041E00000000000000000000000000000000000CF
:1041F000C1390000D939000091390000A13900000F
:1042000099390000A939000011390000293900004E
:1042100049390000513900005B3900006539000060
:104220007139000081390000B1390000B93900004E
:10423000E1380000ED380000F938000005390000D1
:10424000E9390000CD390000000000000000000046
:10425000013B0000193B0000D13A0000E13A0000A8
:10426000D93A0000E93A0000513A0000693A0000EA
:10427000893A0000913A00009B3A0000A53A0000FC
:10428000B13A0000C13A0000F13A0000F93A0000EA
:10429000213A00002D3A0000393A0000453A00006A
:1042A000293B00000D3B0000000000000000000062
:1042B000413C0000593C0000113C0000213C000042
:1042C000193C0000293C0000913B0000A93B000084
:1042D000C93B0000D13B0000DB3B0000E53B000098
:1042E000F13B0000013C0000313C0000393C000083
:1042F000613B00006D3B0000793B0000853B000006
:10430000693C00004D3C000000000000000000007F
:10431000C13C0000CB3C0000A13C0000A93C0000D7
:10432000B13C0000B93C0000F8B5C046F8BC08BC80
:104330009E46704739040000053A0000453B0000E6
:08434000853C0000D93C00009F
:10434800FFFFFFFF0A040107081201010100000036
:1043580040C016860400020102030100180354003D
:10436800650065006E0073007900640075006900DF
:104378006E006F0009024900020100C03209040002
:10438800000203000000092111010001221C00079E
:1043980005830340000107050403400001090401E7
:1043A8000002030000000921110100012221000779
:1043B8000581034000010705020320000206C9FF2A
:1043C8000904A15C7508150026FF00954009758150
:1043D8000295200976910295040976B102C006ABD0
:1043E800FF0A0002A1017508150026FF0095400983
:1043F800018102954009029102C02603540065001C
:1044080065006E00730079006400750069006E0035
:104418006F00200052006100770048004900440006
:10442800040309040C030000000000000000000061
:0C44380000000000000000000000000078
:00000001FF
